{
  "_format": "hh-sol-artifact-1",
  "contractName": "WalletFactory",
  "sourceName": "src/contracts/WalletFactory.sol",
  "abi": [
    {
      "inputs": [
        {
          "internalType": "address",
          "name": "allowed",
          "type": "address"
        }
      ],
      "stateMutability": "nonpayable",
      "type": "constructor"
    },
    {
      "anonymous": false,
      "inputs": [
        {
          "indexed": false,
          "internalType": "address",
          "name": "addr",
          "type": "address"
        },
        {
          "indexed": false,
          "internalType": "uint256",
          "name": "salt",
          "type": "uint256"
        }
      ],
      "name": "LogDeployed",
      "type": "event"
    },
    {
      "inputs": [],
      "name": "allowedToDrain",
      "outputs": [
        {
          "internalType": "address",
          "name": "",
          "type": "address"
        }
      ],
      "stateMutability": "view",
      "type": "function"
    },
    {
      "inputs": [
        {
          "internalType": "bytes",
          "name": "code",
          "type": "bytes"
        },
        {
          "internalType": "uint256",
          "name": "salt",
          "type": "uint256"
        }
      ],
      "name": "deploy",
      "outputs": [],
      "stateMutability": "nonpayable",
      "type": "function"
    },
    {
      "inputs": [
        {
          "internalType": "bytes",
          "name": "code",
          "type": "bytes"
        },
        {
          "internalType": "uint256",
          "name": "salt",
          "type": "uint256"
        },
        {
          "internalType": "address",
          "name": "callee",
          "type": "address"
        },
        {
          "internalType": "bytes",
          "name": "data",
          "type": "bytes"
        }
      ],
      "name": "deployAndCall",
      "outputs": [],
      "stateMutability": "nonpayable",
      "type": "function"
    },
    {
      "inputs": [
        {
          "internalType": "bytes",
          "name": "code",
          "type": "bytes"
        },
        {
          "internalType": "uint256",
          "name": "salt",
          "type": "uint256"
        },
        {
          "components": [
            {
              "internalType": "address",
              "name": "to",
              "type": "address"
            },
            {
              "internalType": "uint256",
              "name": "value",
              "type": "uint256"
            },
            {
              "internalType": "bytes",
              "name": "data",
              "type": "bytes"
            }
          ],
          "internalType": "struct Wallet.Transaction[]",
          "name": "txns",
          "type": "tuple[]"
        },
        {
          "internalType": "bytes",
          "name": "signature",
          "type": "bytes"
        }
      ],
      "name": "deployAndExecute",
      "outputs": [],
      "stateMutability": "nonpayable",
      "type": "function"
    },
    {
      "inputs": [
        {
          "internalType": "contract IERC20",
          "name": "token",
          "type": "address"
        },
        {
          "internalType": "address",
          "name": "to",
          "type": "address"
        },
        {
          "internalType": "uint256",
          "name": "tokenAmount",
          "type": "uint256"
        }
      ],
      "name": "withdraw",
      "outputs": [],
      "stateMutability": "nonpayable",
      "type": "function"
    }
  ],
  "bytecode": "0x60a060405234801561001057600080fd5b50604051610ac6380380610ac683398101604081905261002f91610044565b60601b6001600160601b031916608052610074565b60006020828403121561005657600080fd5b81516001600160a01b038116811461006d57600080fd5b9392505050565b60805160601c610a2e61009860003960008181607101526103cf0152610a2e6000f3fe608060405234801561001057600080fd5b50600436106100675760003560e01c806349c815791161005057806349c81579146100c45780639c4ae2d0146100d7578063d9caed12146100ea57600080fd5b80631ce6236f1461006c5780631e86da2a146100af575b600080fd5b6100937f000000000000000000000000000000000000000000000000000000000000000081565b6040516001600160a01b03909116815260200160405180910390f35b6100c26100bd3660046107ae565b6100fd565b005b6100c26100d2366004610720565b6101b1565b6100c26100e53660046106d4565b61037d565b6100c26100f8366004610883565b6103c4565b600061014088888080601f0160208091040260200160405190810160405280939291908181526020018383808284376000920191909152508a92506104d7915050565b604051636171d1c960e01b81529091506001600160a01b03821690636171d1c9906101759088908890889088906004016108ed565b600060405180830381600087803b15801561018f57600080fd5b505af11580156101a3573d6000803e3d6000fd5b505050505050505050505050565b6101f286868080601f0160208091040260200160405190810160405280939291908181526020018383808284376000920191909152508892506104d7915050565b50600481116102485760405162461bcd60e51b815260206004820152600860248201527f444154415f4c454e00000000000000000000000000000000000000000000000060448201526064015b60405180910390fd5b81356001600160e01b031916636171d1c960e01b81148061029257507f534255ff000000000000000000000000000000000000000000000000000000006001600160e01b03198216145b806102c657507f4b776c6d000000000000000000000000000000000000000000000000000000006001600160e01b03198216145b806102fa57507f63486689000000000000000000000000000000000000000000000000000000006001600160e01b03198216145b6103465760405162461bcd60e51b815260206004820152600e60248201527f494e56414c49445f4d4554484f44000000000000000000000000000000000000604482015260640161023f565b6040518284823760008084836000895af1905080801561036557610372565b3d604051816000823e8181fd5b505050505050505050565b6103be83838080601f0160208091040260200160405190810160405280939291908181526020018383808284376000920191909152508592506104d7915050565b50505050565b336001600160a01b037f0000000000000000000000000000000000000000000000000000000000000000161461043c5760405162461bcd60e51b815260206004820152600f60248201527f4f4e4c595f415554484f52495a45440000000000000000000000000000000000604482015260640161023f565b6040517fa9059cbb0000000000000000000000000000000000000000000000000000000081526001600160a01b0383811660048301526024820183905284169063a9059cbb90604401602060405180830381600087803b15801561049f57600080fd5b505af11580156104b3573d6000803e3d6000fd5b505050506040513d601f19601f820116820180604052508101906103be91906106ab565b8151602080840191909120604080517fff00000000000000000000000000000000000000000000000000000000000000818501523060601b6bffffffffffffffffffffffff19166021820152603581018590526055808201939093528151808203909301835260750190528051910120600090803b8061065a576000848651602088016000f590506001600160a01b0381166105b55760405162461bcd60e51b815260206004820152601060248201527f4641494c45445f4445504c4f59494e4700000000000000000000000000000000604482015260640161023f565b826001600160a01b0316816001600160a01b0316146106165760405162461bcd60e51b815260206004820152600c60248201527f4641494c45445f4d415443480000000000000000000000000000000000000000604482015260640161023f565b604080516001600160a01b0383168152602081018790527fecef66cbb4d4c8dd18157def75d46290ddc298395ea46f7ff64321c1a912cbad910160405180910390a1505b509392505050565b60008083601f84011261067457600080fd5b50813567ffffffffffffffff81111561068c57600080fd5b6020830191508360208285010111156106a457600080fd5b9250929050565b6000602082840312156106bd57600080fd5b815180151581146106cd57600080fd5b9392505050565b6000806000604084860312156106e957600080fd5b833567ffffffffffffffff81111561070057600080fd5b61070c86828701610662565b909790965060209590950135949350505050565b6000806000806000806080878903121561073957600080fd5b863567ffffffffffffffff8082111561075157600080fd5b61075d8a838b01610662565b90985096506020890135955060408901359150610779826109e0565b9093506060880135908082111561078f57600080fd5b5061079c89828a01610662565b979a9699509497509295939492505050565b60008060008060008060006080888a0312156107c957600080fd5b873567ffffffffffffffff808211156107e157600080fd5b6107ed8b838c01610662565b909950975060208a0135965060408a013591508082111561080d57600080fd5b818a0191508a601f83011261082157600080fd5b81358181111561083057600080fd5b8b60208260051b850101111561084557600080fd5b6020830196508095505060608a013591508082111561086357600080fd5b506108708a828b01610662565b989b979a50959850939692959293505050565b60008060006060848603121561089857600080fd5b83356108a3816109e0565b925060208401356108b3816109e0565b929592945050506040919091013590565b81835281816020850137506000828201602090810191909152601f909101601f19169091010190565b60408082528181018590526000906060808401600588901b8501820189855b8a8110156109bd57878303605f190184528135368d9003605e1901811261093257600080fd5b8c01803561093f816109e0565b6001600160a01b03168452602081810135818601528782013536839003601e1901811261096b57600080fd5b8201803567ffffffffffffffff81111561098457600080fd5b80360384131561099357600080fd5b888a8801526109a7898801828585016108c4565b978301979650505092909201915060010161090c565b505085810360208701526109d281888a6108c4565b9a9950505050505050505050565b6001600160a01b03811681146109f557600080fd5b5056fea26469706673582212206f78bc7f579bfa899f462feb4bf89136766ef14a0202c5e8bd31b8fca01785d664736f6c63430008070033",
  "linkReferences": {},
  "deployedLinkReferences": {}
}