{"src/contracts/WalletFactory.sol":{"WalletFactory":{"abi":[{"inputs":[{"internalType":"address","name":"allowed","type":"address"}],"stateMutability":"nonpayable","type":"constructor"},{"anonymous":false,"inputs":[{"indexed":false,"internalType":"address","name":"addr","type":"address"},{"indexed":false,"internalType":"uint256","name":"salt","type":"uint256"}],"name":"LogDeployed","type":"event"},{"inputs":[],"name":"allowedToDrain","outputs":[{"internalType":"address","name":"","type":"address"}],"stateMutability":"view","type":"function"},{"inputs":[{"internalType":"bytes","name":"code","type":"bytes"},{"internalType":"uint256","name":"salt","type":"uint256"}],"name":"deploy","outputs":[],"stateMutability":"nonpayable","type":"function"},{"inputs":[{"internalType":"bytes","name":"code","type":"bytes"},{"internalType":"uint256","name":"salt","type":"uint256"},{"internalType":"address","name":"callee","type":"address"},{"internalType":"bytes","name":"data","type":"bytes"}],"name":"deployAndCall","outputs":[],"stateMutability":"nonpayable","type":"function"},{"inputs":[{"internalType":"bytes","name":"code","type":"bytes"},{"internalType":"uint256","name":"salt","type":"uint256"},{"components":[{"internalType":"address","name":"to","type":"address"},{"internalType":"uint256","name":"value","type":"uint256"},{"internalType":"bytes","name":"data","type":"bytes"}],"internalType":"struct Wallet.Transaction[]","name":"txns","type":"tuple[]"},{"internalType":"bytes","name":"signature","type":"bytes"}],"name":"deployAndExecute","outputs":[],"stateMutability":"nonpayable","type":"function"},{"inputs":[{"internalType":"contract IERC20","name":"token","type":"address"},{"internalType":"address","name":"to","type":"address"},{"internalType":"uint256","name":"tokenAmount","type":"uint256"}],"name":"withdraw","outputs":[],"stateMutability":"nonpayable","type":"function"}],"evm":{"bytecode":{"linkReferences":{},"object":"60a060405234801561001057600080fd5b50604051610ac6380380610ac683398101604081905261002f91610044565b60601b6001600160601b031916608052610074565b60006020828403121561005657600080fd5b81516001600160a01b038116811461006d57600080fd5b9392505050565b60805160601c610a2e61009860003960008181607101526103cf0152610a2e6000f3fe608060405234801561001057600080fd5b50600436106100675760003560e01c806349c815791161005057806349c81579146100c45780639c4ae2d0146100d7578063d9caed12146100ea57600080fd5b80631ce6236f1461006c5780631e86da2a146100af575b600080fd5b6100937f000000000000000000000000000000000000000000000000000000000000000081565b6040516001600160a01b03909116815260200160405180910390f35b6100c26100bd3660046107ae565b6100fd565b005b6100c26100d2366004610720565b6101b1565b6100c26100e53660046106d4565b61037d565b6100c26100f8366004610883565b6103c4565b600061014088888080601f0160208091040260200160405190810160405280939291908181526020018383808284376000920191909152508a92506104d7915050565b604051636171d1c960e01b81529091506001600160a01b03821690636171d1c9906101759088908890889088906004016108ed565b600060405180830381600087803b15801561018f57600080fd5b505af11580156101a3573d6000803e3d6000fd5b505050505050505050505050565b6101f286868080601f0160208091040260200160405190810160405280939291908181526020018383808284376000920191909152508892506104d7915050565b50600481116102485760405162461bcd60e51b815260206004820152600860248201527f444154415f4c454e00000000000000000000000000000000000000000000000060448201526064015b60405180910390fd5b81356001600160e01b031916636171d1c960e01b81148061029257507f534255ff000000000000000000000000000000000000000000000000000000006001600160e01b03198216145b806102c657507f4b776c6d000000000000000000000000000000000000000000000000000000006001600160e01b03198216145b806102fa57507f63486689000000000000000000000000000000000000000000000000000000006001600160e01b03198216145b6103465760405162461bcd60e51b815260206004820152600e60248201527f494e56414c49445f4d4554484f44000000000000000000000000000000000000604482015260640161023f565b6040518284823760008084836000895af1905080801561036557610372565b3d604051816000823e8181fd5b505050505050505050565b6103be83838080601f0160208091040260200160405190810160405280939291908181526020018383808284376000920191909152508592506104d7915050565b50505050565b336001600160a01b037f0000000000000000000000000000000000000000000000000000000000000000161461043c5760405162461bcd60e51b815260206004820152600f60248201527f4f4e4c595f415554484f52495a45440000000000000000000000000000000000604482015260640161023f565b6040517fa9059cbb0000000000000000000000000000000000000000000000000000000081526001600160a01b0383811660048301526024820183905284169063a9059cbb90604401602060405180830381600087803b15801561049f57600080fd5b505af11580156104b3573d6000803e3d6000fd5b505050506040513d601f19601f820116820180604052508101906103be91906106ab565b8151602080840191909120604080517fff00000000000000000000000000000000000000000000000000000000000000818501523060601b6bffffffffffffffffffffffff19166021820152603581018590526055808201939093528151808203909301835260750190528051910120600090803b8061065a576000848651602088016000f590506001600160a01b0381166105b55760405162461bcd60e51b815260206004820152601060248201527f4641494c45445f4445504c4f59494e4700000000000000000000000000000000604482015260640161023f565b826001600160a01b0316816001600160a01b0316146106165760405162461bcd60e51b815260206004820152600c60248201527f4641494c45445f4d415443480000000000000000000000000000000000000000604482015260640161023f565b604080516001600160a01b0383168152602081018790527fecef66cbb4d4c8dd18157def75d46290ddc298395ea46f7ff64321c1a912cbad910160405180910390a1505b509392505050565b60008083601f84011261067457600080fd5b50813567ffffffffffffffff81111561068c57600080fd5b6020830191508360208285010111156106a457600080fd5b9250929050565b6000602082840312156106bd57600080fd5b815180151581146106cd57600080fd5b9392505050565b6000806000604084860312156106e957600080fd5b833567ffffffffffffffff81111561070057600080fd5b61070c86828701610662565b909790965060209590950135949350505050565b6000806000806000806080878903121561073957600080fd5b863567ffffffffffffffff8082111561075157600080fd5b61075d8a838b01610662565b90985096506020890135955060408901359150610779826109e0565b9093506060880135908082111561078f57600080fd5b5061079c89828a01610662565b979a9699509497509295939492505050565b60008060008060008060006080888a0312156107c957600080fd5b873567ffffffffffffffff808211156107e157600080fd5b6107ed8b838c01610662565b909950975060208a0135965060408a013591508082111561080d57600080fd5b818a0191508a601f83011261082157600080fd5b81358181111561083057600080fd5b8b60208260051b850101111561084557600080fd5b6020830196508095505060608a013591508082111561086357600080fd5b506108708a828b01610662565b989b979a50959850939692959293505050565b60008060006060848603121561089857600080fd5b83356108a3816109e0565b925060208401356108b3816109e0565b929592945050506040919091013590565b81835281816020850137506000828201602090810191909152601f909101601f19169091010190565b60408082528181018590526000906060808401600588901b8501820189855b8a8110156109bd57878303605f190184528135368d9003605e1901811261093257600080fd5b8c01803561093f816109e0565b6001600160a01b03168452602081810135818601528782013536839003601e1901811261096b57600080fd5b8201803567ffffffffffffffff81111561098457600080fd5b80360384131561099357600080fd5b888a8801526109a7898801828585016108c4565b978301979650505092909201915060010161090c565b505085810360208701526109d281888a6108c4565b9a9950505050505050505050565b6001600160a01b03811681146109f557600080fd5b5056fea26469706673582212206f78bc7f579bfa899f462feb4bf89136766ef14a0202c5e8bd31b8fca01785d664736f6c63430008070033","opcodes":"PUSH1 0xA0 PUSH1 0x40 MSTORE CALLVALUE DUP1 ISZERO PUSH2 0x10 JUMPI PUSH1 0x0 DUP1 REVERT JUMPDEST POP PUSH1 0x40 MLOAD PUSH2 0xAC6 CODESIZE SUB DUP1 PUSH2 0xAC6 DUP4 CODECOPY DUP2 ADD PUSH1 0x40 DUP2 SWAP1 MSTORE PUSH2 0x2F SWAP2 PUSH2 0x44 JUMP JUMPDEST PUSH1 0x60 SHL PUSH1 0x1 PUSH1 0x1 PUSH1 0x60 SHL SUB NOT AND PUSH1 0x80 MSTORE PUSH2 0x74 JUMP JUMPDEST PUSH1 0x0 PUSH1 0x20 DUP3 DUP5 SUB SLT ISZERO PUSH2 0x56 JUMPI PUSH1 0x0 DUP1 REVERT JUMPDEST DUP2 MLOAD PUSH1 0x1 PUSH1 0x1 PUSH1 0xA0 SHL SUB DUP2 AND DUP2 EQ PUSH2 0x6D JUMPI PUSH1 0x0 DUP1 REVERT JUMPDEST SWAP4 SWAP3 POP POP POP JUMP JUMPDEST PUSH1 0x80 MLOAD PUSH1 0x60 SHR PUSH2 0xA2E PUSH2 0x98 PUSH1 0x0 CODECOPY PUSH1 0x0 DUP2 DUP2 PUSH1 0x71 ADD MSTORE PUSH2 0x3CF ADD MSTORE PUSH2 0xA2E PUSH1 0x0 RETURN INVALID PUSH1 0x80 PUSH1 0x40 MSTORE CALLVALUE DUP1 ISZERO PUSH2 0x10 JUMPI PUSH1 0x0 DUP1 REVERT JUMPDEST POP PUSH1 0x4 CALLDATASIZE LT PUSH2 0x67 JUMPI PUSH1 0x0 CALLDATALOAD PUSH1 0xE0 SHR DUP1 PUSH4 0x49C81579 GT PUSH2 0x50 JUMPI DUP1 PUSH4 0x49C81579 EQ PUSH2 0xC4 JUMPI DUP1 PUSH4 0x9C4AE2D0 EQ PUSH2 0xD7 JUMPI DUP1 PUSH4 0xD9CAED12 EQ PUSH2 0xEA JUMPI PUSH1 0x0 DUP1 REVERT JUMPDEST DUP1 PUSH4 0x1CE6236F EQ PUSH2 0x6C JUMPI DUP1 PUSH4 0x1E86DA2A EQ PUSH2 0xAF JUMPI JUMPDEST PUSH1 0x0 DUP1 REVERT JUMPDEST PUSH2 0x93 PUSH32 0x0 DUP2 JUMP JUMPDEST PUSH1 0x40 MLOAD PUSH1 0x1 PUSH1 0x1 PUSH1 0xA0 SHL SUB SWAP1 SWAP2 AND DUP2 MSTORE PUSH1 0x20 ADD PUSH1 0x40 MLOAD DUP1 SWAP2 SUB SWAP1 RETURN JUMPDEST PUSH2 0xC2 PUSH2 0xBD CALLDATASIZE PUSH1 0x4 PUSH2 0x7AE JUMP JUMPDEST PUSH2 0xFD JUMP JUMPDEST STOP JUMPDEST PUSH2 0xC2 PUSH2 0xD2 CALLDATASIZE PUSH1 0x4 PUSH2 0x720 JUMP JUMPDEST PUSH2 0x1B1 JUMP JUMPDEST PUSH2 0xC2 PUSH2 0xE5 CALLDATASIZE PUSH1 0x4 PUSH2 0x6D4 JUMP JUMPDEST PUSH2 0x37D JUMP JUMPDEST PUSH2 0xC2 PUSH2 0xF8 CALLDATASIZE PUSH1 0x4 PUSH2 0x883 JUMP JUMPDEST PUSH2 0x3C4 JUMP JUMPDEST PUSH1 0x0 PUSH2 0x140 DUP9 DUP9 DUP1 DUP1 PUSH1 0x1F ADD PUSH1 0x20 DUP1 SWAP2 DIV MUL PUSH1 0x20 ADD PUSH1 0x40 MLOAD SWAP1 DUP2 ADD PUSH1 0x40 MSTORE DUP1 SWAP4 SWAP3 SWAP2 SWAP1 DUP2 DUP2 MSTORE PUSH1 0x20 ADD DUP4 DUP4 DUP1 DUP3 DUP5 CALLDATACOPY PUSH1 0x0 SWAP3 ADD SWAP2 SWAP1 SWAP2 MSTORE POP DUP11 SWAP3 POP PUSH2 0x4D7 SWAP2 POP POP JUMP JUMPDEST PUSH1 0x40 MLOAD PUSH4 0x6171D1C9 PUSH1 0xE0 SHL DUP2 MSTORE SWAP1 SWAP2 POP PUSH1 0x1 PUSH1 0x1 PUSH1 0xA0 SHL SUB DUP3 AND SWAP1 PUSH4 0x6171D1C9 SWAP1 PUSH2 0x175 SWAP1 DUP9 SWAP1 DUP9 SWAP1 DUP9 SWAP1 DUP9 SWAP1 PUSH1 0x4 ADD PUSH2 0x8ED JUMP JUMPDEST PUSH1 0x0 PUSH1 0x40 MLOAD DUP1 DUP4 SUB DUP2 PUSH1 0x0 DUP8 DUP1 EXTCODESIZE ISZERO DUP1 ISZERO PUSH2 0x18F JUMPI PUSH1 0x0 DUP1 REVERT JUMPDEST POP GAS CALL ISZERO DUP1 ISZERO PUSH2 0x1A3 JUMPI RETURNDATASIZE PUSH1 0x0 DUP1 RETURNDATACOPY RETURNDATASIZE PUSH1 0x0 REVERT JUMPDEST POP POP POP POP POP POP POP POP POP POP POP POP JUMP JUMPDEST PUSH2 0x1F2 DUP7 DUP7 DUP1 DUP1 PUSH1 0x1F ADD PUSH1 0x20 DUP1 SWAP2 DIV MUL PUSH1 0x20 ADD PUSH1 0x40 MLOAD SWAP1 DUP2 ADD PUSH1 0x40 MSTORE DUP1 SWAP4 SWAP3 SWAP2 SWAP1 DUP2 DUP2 MSTORE PUSH1 0x20 ADD DUP4 DUP4 DUP1 DUP3 DUP5 CALLDATACOPY PUSH1 0x0 SWAP3 ADD SWAP2 SWAP1 SWAP2 MSTORE POP DUP9 SWAP3 POP PUSH2 0x4D7 SWAP2 POP POP JUMP JUMPDEST POP PUSH1 0x4 DUP2 GT PUSH2 0x248 JUMPI PUSH1 0x40 MLOAD PUSH3 0x461BCD PUSH1 0xE5 SHL DUP2 MSTORE PUSH1 0x20 PUSH1 0x4 DUP3 ADD MSTORE PUSH1 0x8 PUSH1 0x24 DUP3 ADD MSTORE PUSH32 0x444154415F4C454E000000000000000000000000000000000000000000000000 PUSH1 0x44 DUP3 ADD MSTORE PUSH1 0x64 ADD JUMPDEST PUSH1 0x40 MLOAD DUP1 SWAP2 SUB SWAP1 REVERT JUMPDEST DUP2 CALLDATALOAD PUSH1 0x1 PUSH1 0x1 PUSH1 0xE0 SHL SUB NOT AND PUSH4 0x6171D1C9 PUSH1 0xE0 SHL DUP2 EQ DUP1 PUSH2 0x292 JUMPI POP PUSH32 0x534255FF00000000000000000000000000000000000000000000000000000000 PUSH1 0x1 PUSH1 0x1 PUSH1 0xE0 SHL SUB NOT DUP3 AND EQ JUMPDEST DUP1 PUSH2 0x2C6 JUMPI POP PUSH32 0x4B776C6D00000000000000000000000000000000000000000000000000000000 PUSH1 0x1 PUSH1 0x1 PUSH1 0xE0 SHL SUB NOT DUP3 AND EQ JUMPDEST DUP1 PUSH2 0x2FA JUMPI POP PUSH32 0x6348668900000000000000000000000000000000000000000000000000000000 PUSH1 0x1 PUSH1 0x1 PUSH1 0xE0 SHL SUB NOT DUP3 AND EQ JUMPDEST PUSH2 0x346 JUMPI PUSH1 0x40 MLOAD PUSH3 0x461BCD PUSH1 0xE5 SHL DUP2 MSTORE PUSH1 0x20 PUSH1 0x4 DUP3 ADD MSTORE PUSH1 0xE PUSH1 0x24 DUP3 ADD MSTORE PUSH32 0x494E56414C49445F4D4554484F44000000000000000000000000000000000000 PUSH1 0x44 DUP3 ADD MSTORE PUSH1 0x64 ADD PUSH2 0x23F JUMP JUMPDEST PUSH1 0x40 MLOAD DUP3 DUP5 DUP3 CALLDATACOPY PUSH1 0x0 DUP1 DUP5 DUP4 PUSH1 0x0 DUP10 GAS CALL SWAP1 POP DUP1 DUP1 ISZERO PUSH2 0x365 JUMPI PUSH2 0x372 JUMP JUMPDEST RETURNDATASIZE PUSH1 0x40 MLOAD DUP2 PUSH1 0x0 DUP3 RETURNDATACOPY DUP2 DUP2 REVERT JUMPDEST POP POP POP POP POP POP POP POP POP JUMP JUMPDEST PUSH2 0x3BE DUP4 DUP4 DUP1 DUP1 PUSH1 0x1F ADD PUSH1 0x20 DUP1 SWAP2 DIV MUL PUSH1 0x20 ADD PUSH1 0x40 MLOAD SWAP1 DUP2 ADD PUSH1 0x40 MSTORE DUP1 SWAP4 SWAP3 SWAP2 SWAP1 DUP2 DUP2 MSTORE PUSH1 0x20 ADD DUP4 DUP4 DUP1 DUP3 DUP5 CALLDATACOPY PUSH1 0x0 SWAP3 ADD SWAP2 SWAP1 SWAP2 MSTORE POP DUP6 SWAP3 POP PUSH2 0x4D7 SWAP2 POP POP JUMP JUMPDEST POP POP POP POP JUMP JUMPDEST CALLER PUSH1 0x1 PUSH1 0x1 PUSH1 0xA0 SHL SUB PUSH32 0x0 AND EQ PUSH2 0x43C JUMPI PUSH1 0x40 MLOAD PUSH3 0x461BCD PUSH1 0xE5 SHL DUP2 MSTORE PUSH1 0x20 PUSH1 0x4 DUP3 ADD MSTORE PUSH1 0xF PUSH1 0x24 DUP3 ADD MSTORE PUSH32 0x4F4E4C595F415554484F52495A45440000000000000000000000000000000000 PUSH1 0x44 DUP3 ADD MSTORE PUSH1 0x64 ADD PUSH2 0x23F JUMP JUMPDEST PUSH1 0x40 MLOAD PUSH32 0xA9059CBB00000000000000000000000000000000000000000000000000000000 DUP2 MSTORE PUSH1 0x1 PUSH1 0x1 PUSH1 0xA0 SHL SUB DUP4 DUP2 AND PUSH1 0x4 DUP4 ADD MSTORE PUSH1 0x24 DUP3 ADD DUP4 SWAP1 MSTORE DUP5 AND SWAP1 PUSH4 0xA9059CBB SWAP1 PUSH1 0x44 ADD PUSH1 0x20 PUSH1 0x40 MLOAD DUP1 DUP4 SUB DUP2 PUSH1 0x0 DUP8 DUP1 EXTCODESIZE ISZERO DUP1 ISZERO PUSH2 0x49F JUMPI PUSH1 0x0 DUP1 REVERT JUMPDEST POP GAS CALL ISZERO DUP1 ISZERO PUSH2 0x4B3 JUMPI RETURNDATASIZE PUSH1 0x0 DUP1 RETURNDATACOPY RETURNDATASIZE PUSH1 0x0 REVERT JUMPDEST POP POP POP POP PUSH1 0x40 MLOAD RETURNDATASIZE PUSH1 0x1F NOT PUSH1 0x1F DUP3 ADD AND DUP3 ADD DUP1 PUSH1 0x40 MSTORE POP DUP2 ADD SWAP1 PUSH2 0x3BE SWAP2 SWAP1 PUSH2 0x6AB JUMP JUMPDEST DUP2 MLOAD PUSH1 0x20 DUP1 DUP5 ADD SWAP2 SWAP1 SWAP2 KECCAK256 PUSH1 0x40 DUP1 MLOAD PUSH32 0xFF00000000000000000000000000000000000000000000000000000000000000 DUP2 DUP6 ADD MSTORE ADDRESS PUSH1 0x60 SHL PUSH12 0xFFFFFFFFFFFFFFFFFFFFFFFF NOT AND PUSH1 0x21 DUP3 ADD MSTORE PUSH1 0x35 DUP2 ADD DUP6 SWAP1 MSTORE PUSH1 0x55 DUP1 DUP3 ADD SWAP4 SWAP1 SWAP4 MSTORE DUP2 MLOAD DUP1 DUP3 SUB SWAP1 SWAP4 ADD DUP4 MSTORE PUSH1 0x75 ADD SWAP1 MSTORE DUP1 MLOAD SWAP2 ADD KECCAK256 PUSH1 0x0 SWAP1 DUP1 EXTCODESIZE DUP1 PUSH2 0x65A JUMPI PUSH1 0x0 DUP5 DUP7 MLOAD PUSH1 0x20 DUP9 ADD PUSH1 0x0 CREATE2 SWAP1 POP PUSH1 0x1 PUSH1 0x1 PUSH1 0xA0 SHL SUB DUP2 AND PUSH2 0x5B5 JUMPI PUSH1 0x40 MLOAD PUSH3 0x461BCD PUSH1 0xE5 SHL DUP2 MSTORE PUSH1 0x20 PUSH1 0x4 DUP3 ADD MSTORE PUSH1 0x10 PUSH1 0x24 DUP3 ADD MSTORE PUSH32 0x4641494C45445F4445504C4F59494E4700000000000000000000000000000000 PUSH1 0x44 DUP3 ADD MSTORE PUSH1 0x64 ADD PUSH2 0x23F JUMP JUMPDEST DUP3 PUSH1 0x1 PUSH1 0x1 PUSH1 0xA0 SHL SUB AND DUP2 PUSH1 0x1 PUSH1 0x1 PUSH1 0xA0 SHL SUB AND EQ PUSH2 0x616 JUMPI PUSH1 0x40 MLOAD PUSH3 0x461BCD PUSH1 0xE5 SHL DUP2 MSTORE PUSH1 0x20 PUSH1 0x4 DUP3 ADD MSTORE PUSH1 0xC PUSH1 0x24 DUP3 ADD MSTORE PUSH32 0x4641494C45445F4D415443480000000000000000000000000000000000000000 PUSH1 0x44 DUP3 ADD MSTORE PUSH1 0x64 ADD PUSH2 0x23F JUMP JUMPDEST PUSH1 0x40 DUP1 MLOAD PUSH1 0x1 PUSH1 0x1 PUSH1 0xA0 SHL SUB DUP4 AND DUP2 MSTORE PUSH1 0x20 DUP2 ADD DUP8 SWAP1 MSTORE PUSH32 0xECEF66CBB4D4C8DD18157DEF75D46290DDC298395EA46F7FF64321C1A912CBAD SWAP2 ADD PUSH1 0x40 MLOAD DUP1 SWAP2 SUB SWAP1 LOG1 POP JUMPDEST POP SWAP4 SWAP3 POP POP POP JUMP JUMPDEST PUSH1 0x0 DUP1 DUP4 PUSH1 0x1F DUP5 ADD SLT PUSH2 0x674 JUMPI PUSH1 0x0 DUP1 REVERT JUMPDEST POP DUP2 CALLDATALOAD PUSH8 0xFFFFFFFFFFFFFFFF DUP2 GT ISZERO PUSH2 0x68C JUMPI PUSH1 0x0 DUP1 REVERT JUMPDEST PUSH1 0x20 DUP4 ADD SWAP2 POP DUP4 PUSH1 0x20 DUP3 DUP6 ADD ADD GT ISZERO PUSH2 0x6A4 JUMPI PUSH1 0x0 DUP1 REVERT JUMPDEST SWAP3 POP SWAP3 SWAP1 POP JUMP JUMPDEST PUSH1 0x0 PUSH1 0x20 DUP3 DUP5 SUB SLT ISZERO PUSH2 0x6BD JUMPI PUSH1 0x0 DUP1 REVERT JUMPDEST DUP2 MLOAD DUP1 ISZERO ISZERO DUP2 EQ PUSH2 0x6CD JUMPI PUSH1 0x0 DUP1 REVERT JUMPDEST SWAP4 SWAP3 POP POP POP JUMP JUMPDEST PUSH1 0x0 DUP1 PUSH1 0x0 PUSH1 0x40 DUP5 DUP7 SUB SLT ISZERO PUSH2 0x6E9 JUMPI PUSH1 0x0 DUP1 REVERT JUMPDEST DUP4 CALLDATALOAD PUSH8 0xFFFFFFFFFFFFFFFF DUP2 GT ISZERO PUSH2 0x700 JUMPI PUSH1 0x0 DUP1 REVERT JUMPDEST PUSH2 0x70C DUP7 DUP3 DUP8 ADD PUSH2 0x662 JUMP JUMPDEST SWAP1 SWAP8 SWAP1 SWAP7 POP PUSH1 0x20 SWAP6 SWAP1 SWAP6 ADD CALLDATALOAD SWAP5 SWAP4 POP POP POP POP JUMP JUMPDEST PUSH1 0x0 DUP1 PUSH1 0x0 DUP1 PUSH1 0x0 DUP1 PUSH1 0x80 DUP8 DUP10 SUB SLT ISZERO PUSH2 0x739 JUMPI PUSH1 0x0 DUP1 REVERT JUMPDEST DUP7 CALLDATALOAD PUSH8 0xFFFFFFFFFFFFFFFF DUP1 DUP3 GT ISZERO PUSH2 0x751 JUMPI PUSH1 0x0 DUP1 REVERT JUMPDEST PUSH2 0x75D DUP11 DUP4 DUP12 ADD PUSH2 0x662 JUMP JUMPDEST SWAP1 SWAP9 POP SWAP7 POP PUSH1 0x20 DUP10 ADD CALLDATALOAD SWAP6 POP PUSH1 0x40 DUP10 ADD CALLDATALOAD SWAP2 POP PUSH2 0x779 DUP3 PUSH2 0x9E0 JUMP JUMPDEST SWAP1 SWAP4 POP PUSH1 0x60 DUP9 ADD CALLDATALOAD SWAP1 DUP1 DUP3 GT ISZERO PUSH2 0x78F JUMPI PUSH1 0x0 DUP1 REVERT JUMPDEST POP PUSH2 0x79C DUP10 DUP3 DUP11 ADD PUSH2 0x662 JUMP JUMPDEST SWAP8 SWAP11 SWAP7 SWAP10 POP SWAP5 SWAP8 POP SWAP3 SWAP6 SWAP4 SWAP5 SWAP3 POP POP POP JUMP JUMPDEST PUSH1 0x0 DUP1 PUSH1 0x0 DUP1 PUSH1 0x0 DUP1 PUSH1 0x0 PUSH1 0x80 DUP9 DUP11 SUB SLT ISZERO PUSH2 0x7C9 JUMPI PUSH1 0x0 DUP1 REVERT JUMPDEST DUP8 CALLDATALOAD PUSH8 0xFFFFFFFFFFFFFFFF DUP1 DUP3 GT ISZERO PUSH2 0x7E1 JUMPI PUSH1 0x0 DUP1 REVERT JUMPDEST PUSH2 0x7ED DUP12 DUP4 DUP13 ADD PUSH2 0x662 JUMP JUMPDEST SWAP1 SWAP10 POP SWAP8 POP PUSH1 0x20 DUP11 ADD CALLDATALOAD SWAP7 POP PUSH1 0x40 DUP11 ADD CALLDATALOAD SWAP2 POP DUP1 DUP3 GT ISZERO PUSH2 0x80D JUMPI PUSH1 0x0 DUP1 REVERT JUMPDEST DUP2 DUP11 ADD SWAP2 POP DUP11 PUSH1 0x1F DUP4 ADD SLT PUSH2 0x821 JUMPI PUSH1 0x0 DUP1 REVERT JUMPDEST DUP2 CALLDATALOAD DUP2 DUP2 GT ISZERO PUSH2 0x830 JUMPI PUSH1 0x0 DUP1 REVERT JUMPDEST DUP12 PUSH1 0x20 DUP3 PUSH1 0x5 SHL DUP6 ADD ADD GT ISZERO PUSH2 0x845 JUMPI PUSH1 0x0 DUP1 REVERT JUMPDEST PUSH1 0x20 DUP4 ADD SWAP7 POP DUP1 SWAP6 POP POP PUSH1 0x60 DUP11 ADD CALLDATALOAD SWAP2 POP DUP1 DUP3 GT ISZERO PUSH2 0x863 JUMPI PUSH1 0x0 DUP1 REVERT JUMPDEST POP PUSH2 0x870 DUP11 DUP3 DUP12 ADD PUSH2 0x662 JUMP JUMPDEST SWAP9 SWAP12 SWAP8 SWAP11 POP SWAP6 SWAP9 POP SWAP4 SWAP7 SWAP3 SWAP6 SWAP3 SWAP4 POP POP POP JUMP JUMPDEST PUSH1 0x0 DUP1 PUSH1 0x0 PUSH1 0x60 DUP5 DUP7 SUB SLT ISZERO PUSH2 0x898 JUMPI PUSH1 0x0 DUP1 REVERT JUMPDEST DUP4 CALLDATALOAD PUSH2 0x8A3 DUP2 PUSH2 0x9E0 JUMP JUMPDEST SWAP3 POP PUSH1 0x20 DUP5 ADD CALLDATALOAD PUSH2 0x8B3 DUP2 PUSH2 0x9E0 JUMP JUMPDEST SWAP3 SWAP6 SWAP3 SWAP5 POP POP POP PUSH1 0x40 SWAP2 SWAP1 SWAP2 ADD CALLDATALOAD SWAP1 JUMP JUMPDEST DUP2 DUP4 MSTORE DUP2 DUP2 PUSH1 0x20 DUP6 ADD CALLDATACOPY POP PUSH1 0x0 DUP3 DUP3 ADD PUSH1 0x20 SWAP1 DUP2 ADD SWAP2 SWAP1 SWAP2 MSTORE PUSH1 0x1F SWAP1 SWAP2 ADD PUSH1 0x1F NOT AND SWAP1 SWAP2 ADD ADD SWAP1 JUMP JUMPDEST PUSH1 0x40 DUP1 DUP3 MSTORE DUP2 DUP2 ADD DUP6 SWAP1 MSTORE PUSH1 0x0 SWAP1 PUSH1 0x60 DUP1 DUP5 ADD PUSH1 0x5 DUP9 SWAP1 SHL DUP6 ADD DUP3 ADD DUP10 DUP6 JUMPDEST DUP11 DUP2 LT ISZERO PUSH2 0x9BD JUMPI DUP8 DUP4 SUB PUSH1 0x5F NOT ADD DUP5 MSTORE DUP2 CALLDATALOAD CALLDATASIZE DUP14 SWAP1 SUB PUSH1 0x5E NOT ADD DUP2 SLT PUSH2 0x932 JUMPI PUSH1 0x0 DUP1 REVERT JUMPDEST DUP13 ADD DUP1 CALLDATALOAD PUSH2 0x93F DUP2 PUSH2 0x9E0 JUMP JUMPDEST PUSH1 0x1 PUSH1 0x1 PUSH1 0xA0 SHL SUB AND DUP5 MSTORE PUSH1 0x20 DUP2 DUP2 ADD CALLDATALOAD DUP2 DUP7 ADD MSTORE DUP8 DUP3 ADD CALLDATALOAD CALLDATASIZE DUP4 SWAP1 SUB PUSH1 0x1E NOT ADD DUP2 SLT PUSH2 0x96B JUMPI PUSH1 0x0 DUP1 REVERT JUMPDEST DUP3 ADD DUP1 CALLDATALOAD PUSH8 0xFFFFFFFFFFFFFFFF DUP2 GT ISZERO PUSH2 0x984 JUMPI PUSH1 0x0 DUP1 REVERT JUMPDEST DUP1 CALLDATASIZE SUB DUP5 SGT ISZERO PUSH2 0x993 JUMPI PUSH1 0x0 DUP1 REVERT JUMPDEST DUP9 DUP11 DUP9 ADD MSTORE PUSH2 0x9A7 DUP10 DUP9 ADD DUP3 DUP6 DUP6 ADD PUSH2 0x8C4 JUMP JUMPDEST SWAP8 DUP4 ADD SWAP8 SWAP7 POP POP POP SWAP3 SWAP1 SWAP3 ADD SWAP2 POP PUSH1 0x1 ADD PUSH2 0x90C JUMP JUMPDEST POP POP DUP6 DUP2 SUB PUSH1 0x20 DUP8 ADD MSTORE PUSH2 0x9D2 DUP2 DUP9 DUP11 PUSH2 0x8C4 JUMP JUMPDEST SWAP11 SWAP10 POP POP POP POP POP POP POP POP POP POP JUMP JUMPDEST PUSH1 0x1 PUSH1 0x1 PUSH1 0xA0 SHL SUB DUP2 AND DUP2 EQ PUSH2 0x9F5 JUMPI PUSH1 0x0 DUP1 REVERT JUMPDEST POP JUMP INVALID LOG2 PUSH5 0x6970667358 0x22 SLT KECCAK256 PUSH16 0x78BC7F579BFA899F462FEB4BF8913676 PUSH15 0xF14A0202C5E8BD31B8FCA01785D664 PUSH20 0x6F6C634300080700330000000000000000000000 "},"methodIdentifiers":{"allowedToDrain()":"1ce6236f","deploy(bytes,uint256)":"9c4ae2d0","deployAndCall(bytes,uint256,address,bytes)":"49c81579","deployAndExecute(bytes,uint256,(address,uint256,bytes)[],bytes)":"1e86da2a","withdraw(address,address,uint256)":"d9caed12"}},"storageLayout":{"storage":[],"types":null}}}}