{"src/contracts/Wallet.sol":{"Wallet":{"abi":[{"inputs":[{"internalType":"address[]","name":"addrs","type":"address[]"}],"stateMutability":"nonpayable","type":"constructor"},{"anonymous":false,"inputs":[{"indexed":true,"internalType":"bytes32","name":"txnHash","type":"bytes32"},{"indexed":true,"internalType":"bytes32","name":"recoveryHash","type":"bytes32"},{"indexed":true,"internalType":"address","name":"recoveryKey","type":"address"},{"indexed":false,"internalType":"uint256","name":"time","type":"uint256"}],"name":"LogCancelled","type":"event"},{"anonymous":false,"inputs":[{"indexed":true,"internalType":"address","name":"to","type":"address"},{"indexed":false,"internalType":"uint256","name":"value","type":"uint256"},{"indexed":false,"internalType":"bytes","name":"data","type":"bytes"},{"indexed":false,"internalType":"bytes","name":"returnData","type":"bytes"}],"name":"LogErr","type":"event"},{"anonymous":false,"inputs":[{"indexed":true,"internalType":"bytes32","name":"txnHash","type":"bytes32"},{"indexed":true,"internalType":"bytes32","name":"recoveryHash","type":"bytes32"},{"indexed":false,"internalType":"uint256","name":"time","type":"uint256"}],"name":"LogExecScheduled","type":"event"},{"anonymous":false,"inputs":[{"indexed":true,"internalType":"address","name":"addr","type":"address"},{"indexed":false,"internalType":"bytes32","name":"priv","type":"bytes32"}],"name":"LogPrivilegeChanged","type":"event"},{"anonymous":false,"inputs":[{"indexed":true,"internalType":"bytes32","name":"txnHash","type":"bytes32"},{"indexed":true,"internalType":"bytes32","name":"recoveryHash","type":"bytes32"},{"indexed":true,"internalType":"address","name":"recoveryKey","type":"address"},{"indexed":false,"internalType":"uint256","name":"nonce","type":"uint256"},{"indexed":false,"internalType":"uint256","name":"time","type":"uint256"},{"components":[{"internalType":"address","name":"to","type":"address"},{"internalType":"uint256","name":"value","type":"uint256"},{"internalType":"bytes","name":"data","type":"bytes"}],"indexed":false,"internalType":"struct Wallet.Transaction[]","name":"txns","type":"tuple[]"}],"name":"LogScheduled","type":"event"},{"anonymous":false,"inputs":[{"indexed":true,"internalType":"bytes32","name":"txnHash","type":"bytes32"},{"indexed":true,"internalType":"bytes32","name":"recoveryHash","type":"bytes32"},{"indexed":true,"internalType":"address","name":"recoveryKey","type":"address"},{"indexed":false,"internalType":"uint256","name":"time","type":"uint256"}],"name":"LogScheduled2","type":"event"},{"stateMutability":"payable","type":"fallback"},{"inputs":[{"components":[{"internalType":"address","name":"to","type":"address"},{"internalType":"uint256","name":"value","type":"uint256"},{"internalType":"bytes","name":"data","type":"bytes"}],"internalType":"struct Wallet.Transaction[]","name":"txns","type":"tuple[]"},{"internalType":"bytes","name":"signature","type":"bytes"}],"name":"execute","outputs":[],"stateMutability":"nonpayable","type":"function"},{"inputs":[{"components":[{"internalType":"address","name":"to","type":"address"},{"internalType":"uint256","name":"value","type":"uint256"},{"internalType":"bytes","name":"data","type":"bytes"}],"internalType":"struct Wallet.Transaction[]","name":"txns","type":"tuple[]"}],"name":"executeBySelf","outputs":[],"stateMutability":"nonpayable","type":"function"},{"inputs":[{"components":[{"internalType":"address","name":"to","type":"address"},{"internalType":"uint256","name":"value","type":"uint256"},{"internalType":"bytes","name":"data","type":"bytes"}],"internalType":"struct Wallet.Transaction[]","name":"txns","type":"tuple[]"}],"name":"executeBySender","outputs":[],"stateMutability":"nonpayable","type":"function"},{"inputs":[{"internalType":"bytes32","name":"hash","type":"bytes32"},{"internalType":"bytes","name":"signature","type":"bytes"}],"name":"isValidSignature","outputs":[{"internalType":"bytes4","name":"","type":"bytes4"}],"stateMutability":"view","type":"function"},{"inputs":[],"name":"nonce","outputs":[{"internalType":"uint256","name":"","type":"uint256"}],"stateMutability":"view","type":"function"},{"inputs":[{"internalType":"address","name":"","type":"address"},{"internalType":"address","name":"","type":"address"},{"internalType":"uint256[]","name":"","type":"uint256[]"},{"internalType":"uint256[]","name":"","type":"uint256[]"},{"internalType":"bytes","name":"","type":"bytes"}],"name":"onERC1155BatchReceived","outputs":[{"internalType":"bytes4","name":"","type":"bytes4"}],"stateMutability":"pure","type":"function"},{"inputs":[{"internalType":"address","name":"","type":"address"},{"internalType":"address","name":"","type":"address"},{"internalType":"uint256","name":"","type":"uint256"},{"internalType":"uint256","name":"","type":"uint256"},{"internalType":"bytes","name":"","type":"bytes"}],"name":"onERC1155Received","outputs":[{"internalType":"bytes4","name":"","type":"bytes4"}],"stateMutability":"pure","type":"function"},{"inputs":[{"internalType":"address","name":"","type":"address"},{"internalType":"address","name":"","type":"address"},{"internalType":"uint256","name":"","type":"uint256"},{"internalType":"bytes","name":"","type":"bytes"}],"name":"onERC721Received","outputs":[{"internalType":"bytes4","name":"","type":"bytes4"}],"stateMutability":"pure","type":"function"},{"inputs":[{"internalType":"address","name":"","type":"address"}],"name":"privileges","outputs":[{"internalType":"bytes32","name":"","type":"bytes32"}],"stateMutability":"view","type":"function"},{"inputs":[{"internalType":"bytes32","name":"","type":"bytes32"}],"name":"scheduledRecoveries","outputs":[{"internalType":"uint256","name":"","type":"uint256"}],"stateMutability":"view","type":"function"},{"inputs":[{"internalType":"address","name":"addr","type":"address"},{"internalType":"bytes32","name":"priv","type":"bytes32"}],"name":"setAddrPrivilege","outputs":[],"stateMutability":"nonpayable","type":"function"},{"inputs":[{"internalType":"bytes4","name":"interfaceID","type":"bytes4"}],"name":"supportsInterface","outputs":[{"internalType":"bool","name":"","type":"bool"}],"stateMutability":"pure","type":"function"},{"inputs":[{"internalType":"address","name":"to","type":"address"},{"internalType":"uint256","name":"value","type":"uint256"},{"internalType":"bytes","name":"data","type":"bytes"}],"name":"tryCatch","outputs":[],"stateMutability":"nonpayable","type":"function"},{"inputs":[{"internalType":"address","name":"to","type":"address"},{"internalType":"uint256","name":"value","type":"uint256"},{"internalType":"bytes","name":"data","type":"bytes"},{"internalType":"uint256","name":"gasLimit","type":"uint256"}],"name":"tryCatchLimit","outputs":[],"stateMutability":"nonpayable","type":"function"},{"stateMutability":"payable","type":"receive"}],"evm":{"bytecode":{"linkReferences":{},"object":"60806040523480156200001157600080fd5b506040516200239b3803806200239b83398101604081905262000034916200012a565b805160005b818110156200010457600160001b6000808584815181106200005f576200005f6200022d565b60200260200101516001600160a01b03166001600160a01b0316815260200190815260200160002081905550828181518110620000a057620000a06200022d565b60200260200101516001600160a01b03167f08ac40e0195c5998554e98853c23964a13a24309e127b2d016e8ec4adecf5e83600160001b604051620000e791815260200190565b60405180910390a280620000fb8162000203565b91505062000039565b50505062000259565b80516001600160a01b03811681146200012557600080fd5b919050565b600060208083850312156200013e57600080fd5b82516001600160401b03808211156200015657600080fd5b818501915085601f8301126200016b57600080fd5b81518181111562000180576200018062000243565b8060051b604051601f19603f83011681018181108582111715620001a857620001a862000243565b604052828152858101935084860182860187018a1015620001c857600080fd5b600095505b83861015620001f657620001e1816200010d565b855260019590950194938601938601620001cd565b5098975050505050505050565b60006000198214156200022657634e487b7160e01b600052601160045260246000fd5b5060010190565b634e487b7160e01b600052603260045260246000fd5b634e487b7160e01b600052604160045260246000fd5b61213280620002696000396000f3fe6080604052600436106100e15760003560e01c80636769de821161007f578063bc197c8111610059578063bc197c81146102ee578063bf1cb38314610333578063c066a5b114610353578063f23a6e6114610380576100e8565b80636769de8214610298578063abc5345e146102b8578063affed0e0146102d8576100e8565b8063160aa0ef116100bb578063160aa0ef146101fd5780631626ba7e146102385780633628d042146102585780636171d1c914610278576100e8565b806301ffc9a7146101495780630d5828d41461017e578063150b7a02146101a0576100e8565b366100e857005b61696960009081526020527f662a30f03e82d96c1f4d254ac3d297ac2d115f4d7e55a040fee317b77fa274e7546001600160a01b0381166101265750005b3660008037600080366000845af43d806000803e8161014457806000fd5b806000f35b34801561015557600080fd5b50610169610164366004611af1565b6103c5565b60405190151581526020015b60405180910390f35b34801561018a57600080fd5b5061019e6101993660046118fe565b61042e565b005b3480156101ac57600080fd5b506101e46101bb366004611829565b7f150b7a0200000000000000000000000000000000000000000000000000000000949350505050565b6040516001600160e01b03199091168152602001610175565b34801561020957600080fd5b5061022a610218366004611a8c565b60026020526000908152604090205481565b604051908152602001610175565b34801561024457600080fd5b506101e4610253366004611aa5565b610545565b34801561026457600080fd5b5061019e610273366004611986565b6105d4565b34801561028457600080fd5b5061019e610293366004611a2c565b6106e1565b3480156102a457600080fd5b5061019e6102b33660046119ea565b610c50565b3480156102c457600080fd5b5061019e6102d33660046119ea565b610cb0565b3480156102e457600080fd5b5061022a60015481565b3480156102fa57600080fd5b506101e461030936600461177b565b7fbc197c810000000000000000000000000000000000000000000000000000000095945050505050565b34801561033f57600080fd5b5061019e61034e36600461192a565b610d75565b34801561035f57600080fd5b5061022a61036e366004611741565b60006020819052908152604090205481565b34801561038c57600080fd5b506101e461039b366004611895565b7ff23a6e610000000000000000000000000000000000000000000000000000000095945050505050565b60007f01ffc9a7000000000000000000000000000000000000000000000000000000006001600160e01b03198316148061042857507f4e2312e0000000000000000000000000000000000000000000000000000000006001600160e01b03198316145b92915050565b3330146104825760405162461bcd60e51b815260206004820152601660248201527f4f4e4c595f4944454e544954595f43414e5f43414c4c0000000000000000000060448201526064015b60405180910390fd5b6001600160a01b038216600090815260208190526040902054600110156104f45760018114156104f45760405162461bcd60e51b815260206004820152601660248201527f554e53455454494e475f5350454349414c5f44415441000000000000000000006044820152606401610479565b6001600160a01b0382166000818152602081815260409182902084905590518381527f08ac40e0195c5998554e98853c23964a13a24309e127b2d016e8ec4adecf5e83910160405180910390a25050565b60008060001b60008061058e8787878080601f016020809104026020016040519081016040528093929190818152602001838380828437600092019190915250610e8192505050565b6001600160a01b03166001600160a01b0316815260200190815260200160002054146105c25750630b135d3f60e11b6105cd565b506001600160e01b03195b9392505050565b3330146106235760405162461bcd60e51b815260206004820152601660248201527f4f4e4c595f4944454e544954595f43414e5f43414c4c000000000000000000006044820152606401610479565b600080866001600160a01b03168684908787604051610643929190611cd0565b600060405180830381858888f193505050503d8060008114610681576040519150601f19603f3d011682016040523d82523d6000602084013e610686565b606091505b5091509150816106d857866001600160a01b03167f80c2637928bd94d0e1a90eaac1efc1553be6391d962fe5c82a01e90122c84ccc878787856040516106cf9493929190611e62565b60405180910390a25b50505050505050565b600154604051600090610700903090469085908a908a90602001611ce0565b6040516020818303038152906040528051906020012090508160016107259190611f64565b600190815560009081908690869061073d9082611f7c565b81811061074c5761074c6120a2565b919091013560f81c91505060fe8110610a8d576000808080610770898b018b611b2b565b50935093509350935060008560ff1660ff1490506000856040516020016107979190611dfd565b60408051601f1981840301815291815281516020928301206001600160a01b03871660009081529283905291205490915081146108165760405162461bcd60e51b815260206004820152601760248201527f5245434f564552595f4e4f545f415554484f52495a45440000000000000000006044820152606401610479565b6000898152600260205260409020548015801590610832575082155b156108e0578398508042116108895760405162461bcd60e51b815260206004820152601260248201527f5245434f564552595f4e4f545f524541445900000000000000000000000000006044820152606401610479565b600260008b815260200190815260200160002060009055818a7fdedaa4afdb5fdfa3ae5d58bb0f5b01a38b6766dc750c29f828808e27e9f89638426040516108d391815260200190565b60405180910390a3610a81565b60006108ec8b88610e81565b90506000805b89515181101561094e57826001600160a01b03168a60000151828151811061091c5761091c6120a2565b60200260200101516001600160a01b0316141561093c576001915061094e565b806109468161205b565b9150506108f2565b508061099c5760405162461bcd60e51b815260206004820152601760248201527f5245434f564552595f4e4f545f415554484f52495a45440000000000000000006044820152606401610479565b8415610a0357600260008d815260200190815260200160002060009055816001600160a01b0316848d7fd9c10d884d0d236030e76a4d486ed75e9557f5fddb152fffa5132a761267b3ef426040516109f691815260200190565b60405180910390a4610a6f565b6020890151610a129042611f64565b600260008e815260200190815260200160002081905550816001600160a01b0316848d7fb2f8bda3c8f565fdc73233855a3905b0f79fd43d42b8fa03dd03fb4411a3c1d742604051610a6691815260200190565b60405180910390a45b50505050505050505050505050610c4a565b50505050505050610bce565b83158015610a9e57508060ff1660fd145b15610b235760218514610af35760405162461bcd60e51b815260206004820152600d60248201527f434c41494d5f5349475f4c454e000000000000000000000000000000000000006044820152606401610479565b85600086610b02600182611f7c565b92610b0f93929190611f3a565b810190610b1c9190611741565b9150610bce565b610b668387878080601f01602080910402602001604051908101604052809392919081815260200183838082843760009201919091525060019250610e8b915050565b6001600160a01b038116600090815260208190526040902054909250610bce5760405162461bcd60e51b815260206004820152601660248201527f494e53554646494349454e545f50524956494c454745000000000000000000006044820152606401610479565b610be0610bdb888a611f93565b61141e565b6001600160a01b038216600090815260208190526040902054610c455760405162461bcd60e51b815260206004820152601860248201527f50524956494c4547455f4e4f545f444f574e47524144454400000000000000006044820152606401610479565b505050505b50505050565b333014610c9f5760405162461bcd60e51b815260206004820152601660248201527f4f4e4c595f4944454e544954595f43414e5f43414c4c000000000000000000006044820152606401610479565b610cac610bdb8284611f93565b5050565b33600090815260208190526040902054610d0c5760405162461bcd60e51b815260206004820152601660248201527f494e53554646494349454e545f50524956494c454745000000000000000000006044820152606401610479565b610d19610bdb8284611f93565b33600090815260208190526040902054610cac5760405162461bcd60e51b815260206004820152601860248201527f50524956494c4547455f4e4f545f444f574e47524144454400000000000000006044820152606401610479565b333014610dc45760405162461bcd60e51b815260206004820152601660248201527f4f4e4c595f4944454e544954595f43414e5f43414c4c000000000000000000006044820152606401610479565b600080856001600160a01b0316855a908686604051610de4929190611cd0565b600060405180830381858888f193505050503d8060008114610e22576040519150601f19603f3d011682016040523d82523d6000602084013e610e27565b606091505b509150915081610e7957856001600160a01b03167f80c2637928bd94d0e1a90eaac1efc1553be6391d962fe5c82a01e90122c84ccc86868685604051610e709493929190611e62565b60405180910390a25b505050505050565b60006105cd838360005b6000600183511015610edf5760405162461bcd60e51b815260206004820152600960248201527f53565f5349474c454e00000000000000000000000000000000000000000000006044820152606401610479565b600083600185510381518110610ef757610ef76120a2565b016020015160f81c905060048110610f515760405162461bcd60e51b815260206004820152600a60248201527f53565f5349474d4f4445000000000000000000000000000000000000000000006044820152606401610479565b60008160ff166004811115610f6857610f6861208c565b90506000816004811115610f7e57610f7e61208c565b1480610f9b57506001816004811115610f9957610f9961208c565b145b156111b5578451604214610ff15760405162461bcd60e51b815260206004820152600660248201527f53565f4c454e00000000000000000000000000000000000000000000000000006044820152606401610479565b6000610ffd86826114c9565b9050600061100c8760206114c9565b9050600087604081518110611023576110236120a2565b016020015160f81c9050601b81148061103f57508060ff16601c145b61108b5760405162461bcd60e51b815260206004820152600c60248201527f53565f494e56414c49445f5600000000000000000000000000000000000000006044820152606401610479565b600184600481111561109f5761109f61208c565b14156110f1576040517f19457468657265756d205369676e6564204d6573736167653a0a3332000000006020820152603c81018a9052605c016040516020818303038152906040528051906020012098505b604080516000808252602082018084528c905260ff841692820192909252606081018590526080810184905260019060a0016020604051602081039080840390855afa158015611145573d6000803e3d6000fd5b5050604051601f1901519150506001600160a01b0381166111a85760405162461bcd60e51b815260206004820152600b60248201527f53565f5a45524f5f5349470000000000000000000000000000000000000000006044820152606401610479565b95506105cd945050505050565b60028160048111156111c9576111c961208c565b14156113265760218551116112205760405162461bcd60e51b815260206004820152600d60248201527f53565f4c454e5f57414c4c4554000000000000000000000000000000000000006044820152606401610479565b845160201901600061123287836114c9565b905061123e878361152f565b604051630b135d3f60e11b81526001600160a01b03821690631626ba7e9061126c908b908b90600401611ddc565b60206040518083038186803b15801561128457600080fd5b505afa158015611298573d6000803e3d6000fd5b505050506040513d601f19601f820116820180604052508101906112bc9190611b0e565b6001600160e01b031916630b135d3f60e11b1461131b5760405162461bcd60e51b815260206004820152601160248201527f53565f57414c4c45545f494e56414c49440000000000000000000000000000006044820152606401610479565b93506105cd92505050565b600381600481111561133a5761133a61208c565b1480156113445750835b1561141257326001146113995760405162461bcd60e51b815260206004820152600f60248201527f53565f53504f4f465f4f524947494e00000000000000000000000000000000006044820152606401610479565b84516021146113ea5760405162461bcd60e51b815260206004820152600c60248201527f53565f53504f4f465f4c454e00000000000000000000000000000000000000006044820152606401610479565b6113f585602061152f565b84806020019051810190611409919061175e565b925050506105cd565b50600095945050505050565b600081511161146f5760405162461bcd60e51b815260206004820152600c60248201527f4d5553545f504153535f545800000000000000000000000000000000000000006044820152606401610479565b805160005b818110156114c4576000838281518110611490576114906120a2565b602002602001015190506114b1816000015182602001518360400151611583565b50806114bc8161205b565b915050611474565b505050565b60006114d6602083611f64565b915081835110156115295760405162461bcd60e51b815260206004820152601060248201527f42797465734c69623a206c656e677468000000000000000000000000000000006044820152606401610479565b50015190565b8082511161157f5760405162461bcd60e51b815260206004820152601860248201527f42797465734c69623a206f6e6c7920736872696e6b696e6700000000000000006044820152606401610479565b9052565b60008082516020840185875af180801561159c576115a9565b3d604051816000823e8181fd5b5050505050565b80356115bb816120ce565b919050565b60008083601f8401126115d257600080fd5b50813567ffffffffffffffff8111156115ea57600080fd5b6020830191508360208260051b850101111561160557600080fd5b9250929050565b600082601f83011261161d57600080fd5b8135602061163261162d83611f16565b611ee5565b80838252828201915082860187848660051b890101111561165257600080fd5b60005b8581101561167157813584529284019290840190600101611655565b5090979650505050505050565b60008083601f84011261169057600080fd5b50813567ffffffffffffffff8111156116a857600080fd5b60208301915083602082850101111561160557600080fd5b600082601f8301126116d157600080fd5b813567ffffffffffffffff8111156116eb576116eb6120b8565b6116fe601f8201601f1916602001611ee5565b81815284602083860101111561171357600080fd5b816020850160208301376000918101602001919091529392505050565b803560ff811681146115bb57600080fd5b60006020828403121561175357600080fd5b81356105cd816120ce565b60006020828403121561177057600080fd5b81516105cd816120ce565b600080600080600060a0868803121561179357600080fd5b853561179e816120ce565b945060208601356117ae816120ce565b9350604086013567ffffffffffffffff808211156117cb57600080fd5b6117d789838a0161160c565b945060608801359150808211156117ed57600080fd5b6117f989838a0161160c565b9350608088013591508082111561180f57600080fd5b5061181c888289016116c0565b9150509295509295909350565b6000806000806080858703121561183f57600080fd5b843561184a816120ce565b9350602085013561185a816120ce565b925060408501359150606085013567ffffffffffffffff81111561187d57600080fd5b611889878288016116c0565b91505092959194509250565b600080600080600060a086880312156118ad57600080fd5b85356118b8816120ce565b945060208601356118c8816120ce565b93506040860135925060608601359150608086013567ffffffffffffffff8111156118f257600080fd5b61181c888289016116c0565b6000806040838503121561191157600080fd5b823561191c816120ce565b946020939093013593505050565b6000806000806060858703121561194057600080fd5b843561194b816120ce565b935060208501359250604085013567ffffffffffffffff81111561196e57600080fd5b61197a8782880161167e565b95989497509550505050565b60008060008060006080868803121561199e57600080fd5b85356119a9816120ce565b945060208601359350604086013567ffffffffffffffff8111156119cc57600080fd5b6119d88882890161167e565b96999598509660600135949350505050565b600080602083850312156119fd57600080fd5b823567ffffffffffffffff811115611a1457600080fd5b611a20858286016115c0565b90969095509350505050565b60008060008060408587031215611a4257600080fd5b843567ffffffffffffffff80821115611a5a57600080fd5b611a66888389016115c0565b90965094506020870135915080821115611a7f57600080fd5b5061197a8782880161167e565b600060208284031215611a9e57600080fd5b5035919050565b600080600060408486031215611aba57600080fd5b83359250602084013567ffffffffffffffff811115611ad857600080fd5b611ae48682870161167e565b9497909650939450505050565b600060208284031215611b0357600080fd5b81356105cd816120e6565b600060208284031215611b2057600080fd5b81516105cd816120e6565b600080600080600060a08688031215611b4357600080fd5b853567ffffffffffffffff80821115611b5b57600080fd5b908701906040828a031215611b6f57600080fd5b611b77611e99565b823582811115611b8657600080fd5b8301601f81018b13611b9757600080fd5b80356020611ba761162d83611f16565b8083825282820191508285018f848660051b8801011115611bc757600080fd5b600095505b84861015611bf3578035611bdf816120ce565b835260019590950194918301918301611bcc565b5085525094850135858401525090975050908701359080821115611c1657600080fd5b50611c23888289016116c0565b945050611c32604087016115b0565b9250611c40606087016115b0565b9150611c4e60808701611730565b90509295509295909350565b81835281816020850137506000828201602090810191909152601f909101601f19169091010190565b6000815180845260005b81811015611ca957602081850181015186830182015201611c8d565b81811115611cbb576000602083870101525b50601f01601f19169290920160200192915050565b8183823760009101908152919050565b6000608082016001600160a01b038089168452602088818601526040888187015260606080818801528488865260a08801905060a08960051b89010195508960005b8a811015611dc957898803609f190183528135368d9003605e19018112611d4857600080fd5b8c018035611d55816120ce565b8816895280870135878a01528581013536829003601e19018112611d7857600080fd5b8101803567ffffffffffffffff811115611d9157600080fd5b803603831315611da057600080fd5b86888c0152611db4878c01828b8501611c5a565b9a505050928601925090850190600101611d22565b50959d9c50505050505050505050505050565b828152604060208201526000611df56040830184611c83565b949350505050565b6020808252825160408383015280516060840181905260009291820190839060808601905b80831015611e4b5783516001600160a01b03168252928401926001929092019190840190611e22565b508387015160408701528094505050505092915050565b848152606060208201526000611e7c606083018587611c5a565b8281036040840152611e8e8185611c83565b979650505050505050565b6040805190810167ffffffffffffffff81118282101715611ebc57611ebc6120b8565b60405290565b6040516060810167ffffffffffffffff81118282101715611ebc57611ebc6120b8565b604051601f8201601f1916810167ffffffffffffffff81118282101715611f0e57611f0e6120b8565b604052919050565b600067ffffffffffffffff821115611f3057611f306120b8565b5060051b60200190565b60008085851115611f4a57600080fd5b83861115611f5757600080fd5b5050820193919092039150565b60008219821115611f7757611f77612076565b500190565b600082821015611f8e57611f8e612076565b500390565b6000611fa161162d84611f16565b808482526020808301925084368760051b87011115611fbf57600080fd5b60005b8781101561204f57813567ffffffffffffffff80821115611fe257600080fd5b818901915060608236031215611ff757600080fd5b611fff611ec2565b823561200a816120ce565b815282860135868201526040808401358381111561202757600080fd5b612033368287016116c0565b9183019190915250875250509382019390820190600101611fc2565b50919695505050505050565b600060001982141561206f5761206f612076565b5060010190565b634e487b7160e01b600052601160045260246000fd5b634e487b7160e01b600052602160045260246000fd5b634e487b7160e01b600052603260045260246000fd5b634e487b7160e01b600052604160045260246000fd5b6001600160a01b03811681146120e357600080fd5b50565b6001600160e01b0319811681146120e357600080fdfea2646970667358221220d9aaaa295bc1a06a2ac00d1dd4400fe93299dd0b6664212e22872dfb34e1453a64736f6c63430008070033","opcodes":"PUSH1 0x80 PUSH1 0x40 MSTORE CALLVALUE DUP1 ISZERO PUSH3 0x11 JUMPI PUSH1 0x0 DUP1 REVERT JUMPDEST POP PUSH1 0x40 MLOAD PUSH3 0x239B CODESIZE SUB DUP1 PUSH3 0x239B DUP4 CODECOPY DUP2 ADD PUSH1 0x40 DUP2 SWAP1 MSTORE PUSH3 0x34 SWAP2 PUSH3 0x12A JUMP JUMPDEST DUP1 MLOAD PUSH1 0x0 JUMPDEST DUP2 DUP2 LT ISZERO PUSH3 0x104 JUMPI PUSH1 0x1 PUSH1 0x0 SHL PUSH1 0x0 DUP1 DUP6 DUP5 DUP2 MLOAD DUP2 LT PUSH3 0x5F JUMPI PUSH3 0x5F PUSH3 0x22D JUMP JUMPDEST PUSH1 0x20 MUL PUSH1 0x20 ADD ADD MLOAD PUSH1 0x1 PUSH1 0x1 PUSH1 0xA0 SHL SUB AND PUSH1 0x1 PUSH1 0x1 PUSH1 0xA0 SHL SUB AND DUP2 MSTORE PUSH1 0x20 ADD SWAP1 DUP2 MSTORE PUSH1 0x20 ADD PUSH1 0x0 KECCAK256 DUP2 SWAP1 SSTORE POP DUP3 DUP2 DUP2 MLOAD DUP2 LT PUSH3 0xA0 JUMPI PUSH3 0xA0 PUSH3 0x22D JUMP JUMPDEST PUSH1 0x20 MUL PUSH1 0x20 ADD ADD MLOAD PUSH1 0x1 PUSH1 0x1 PUSH1 0xA0 SHL SUB AND PUSH32 0x8AC40E0195C5998554E98853C23964A13A24309E127B2D016E8EC4ADECF5E83 PUSH1 0x1 PUSH1 0x0 SHL PUSH1 0x40 MLOAD PUSH3 0xE7 SWAP2 DUP2 MSTORE PUSH1 0x20 ADD SWAP1 JUMP JUMPDEST PUSH1 0x40 MLOAD DUP1 SWAP2 SUB SWAP1 LOG2 DUP1 PUSH3 0xFB DUP2 PUSH3 0x203 JUMP JUMPDEST SWAP2 POP POP PUSH3 0x39 JUMP JUMPDEST POP POP POP PUSH3 0x259 JUMP JUMPDEST DUP1 MLOAD PUSH1 0x1 PUSH1 0x1 PUSH1 0xA0 SHL SUB DUP2 AND DUP2 EQ PUSH3 0x125 JUMPI PUSH1 0x0 DUP1 REVERT JUMPDEST SWAP2 SWAP1 POP JUMP JUMPDEST PUSH1 0x0 PUSH1 0x20 DUP1 DUP4 DUP6 SUB SLT ISZERO PUSH3 0x13E JUMPI PUSH1 0x0 DUP1 REVERT JUMPDEST DUP3 MLOAD PUSH1 0x1 PUSH1 0x1 PUSH1 0x40 SHL SUB DUP1 DUP3 GT ISZERO PUSH3 0x156 JUMPI PUSH1 0x0 DUP1 REVERT JUMPDEST DUP2 DUP6 ADD SWAP2 POP DUP6 PUSH1 0x1F DUP4 ADD SLT PUSH3 0x16B JUMPI PUSH1 0x0 DUP1 REVERT JUMPDEST DUP2 MLOAD DUP2 DUP2 GT ISZERO PUSH3 0x180 JUMPI PUSH3 0x180 PUSH3 0x243 JUMP JUMPDEST DUP1 PUSH1 0x5 SHL PUSH1 0x40 MLOAD PUSH1 0x1F NOT PUSH1 0x3F DUP4 ADD AND DUP2 ADD DUP2 DUP2 LT DUP6 DUP3 GT OR ISZERO PUSH3 0x1A8 JUMPI PUSH3 0x1A8 PUSH3 0x243 JUMP JUMPDEST PUSH1 0x40 MSTORE DUP3 DUP2 MSTORE DUP6 DUP2 ADD SWAP4 POP DUP5 DUP7 ADD DUP3 DUP7 ADD DUP8 ADD DUP11 LT ISZERO PUSH3 0x1C8 JUMPI PUSH1 0x0 DUP1 REVERT JUMPDEST PUSH1 0x0 SWAP6 POP JUMPDEST DUP4 DUP7 LT ISZERO PUSH3 0x1F6 JUMPI PUSH3 0x1E1 DUP2 PUSH3 0x10D JUMP JUMPDEST DUP6 MSTORE PUSH1 0x1 SWAP6 SWAP1 SWAP6 ADD SWAP5 SWAP4 DUP7 ADD SWAP4 DUP7 ADD PUSH3 0x1CD JUMP JUMPDEST POP SWAP9 SWAP8 POP POP POP POP POP POP POP POP JUMP JUMPDEST PUSH1 0x0 PUSH1 0x0 NOT DUP3 EQ ISZERO PUSH3 0x226 JUMPI PUSH4 0x4E487B71 PUSH1 0xE0 SHL PUSH1 0x0 MSTORE PUSH1 0x11 PUSH1 0x4 MSTORE PUSH1 0x24 PUSH1 0x0 REVERT JUMPDEST POP PUSH1 0x1 ADD SWAP1 JUMP JUMPDEST PUSH4 0x4E487B71 PUSH1 0xE0 SHL PUSH1 0x0 MSTORE PUSH1 0x32 PUSH1 0x4 MSTORE PUSH1 0x24 PUSH1 0x0 REVERT JUMPDEST PUSH4 0x4E487B71 PUSH1 0xE0 SHL PUSH1 0x0 MSTORE PUSH1 0x41 PUSH1 0x4 MSTORE PUSH1 0x24 PUSH1 0x0 REVERT JUMPDEST PUSH2 0x2132 DUP1 PUSH3 0x269 PUSH1 0x0 CODECOPY PUSH1 0x0 RETURN INVALID PUSH1 0x80 PUSH1 0x40 MSTORE PUSH1 0x4 CALLDATASIZE LT PUSH2 0xE1 JUMPI PUSH1 0x0 CALLDATALOAD PUSH1 0xE0 SHR DUP1 PUSH4 0x6769DE82 GT PUSH2 0x7F JUMPI DUP1 PUSH4 0xBC197C81 GT PUSH2 0x59 JUMPI DUP1 PUSH4 0xBC197C81 EQ PUSH2 0x2EE JUMPI DUP1 PUSH4 0xBF1CB383 EQ PUSH2 0x333 JUMPI DUP1 PUSH4 0xC066A5B1 EQ PUSH2 0x353 JUMPI DUP1 PUSH4 0xF23A6E61 EQ PUSH2 0x380 JUMPI PUSH2 0xE8 JUMP JUMPDEST DUP1 PUSH4 0x6769DE82 EQ PUSH2 0x298 JUMPI DUP1 PUSH4 0xABC5345E EQ PUSH2 0x2B8 JUMPI DUP1 PUSH4 0xAFFED0E0 EQ PUSH2 0x2D8 JUMPI PUSH2 0xE8 JUMP JUMPDEST DUP1 PUSH4 0x160AA0EF GT PUSH2 0xBB JUMPI DUP1 PUSH4 0x160AA0EF EQ PUSH2 0x1FD JUMPI DUP1 PUSH4 0x1626BA7E EQ PUSH2 0x238 JUMPI DUP1 PUSH4 0x3628D042 EQ PUSH2 0x258 JUMPI DUP1 PUSH4 0x6171D1C9 EQ PUSH2 0x278 JUMPI PUSH2 0xE8 JUMP JUMPDEST DUP1 PUSH4 0x1FFC9A7 EQ PUSH2 0x149 JUMPI DUP1 PUSH4 0xD5828D4 EQ PUSH2 0x17E JUMPI DUP1 PUSH4 0x150B7A02 EQ PUSH2 0x1A0 JUMPI PUSH2 0xE8 JUMP JUMPDEST CALLDATASIZE PUSH2 0xE8 JUMPI STOP JUMPDEST PUSH2 0x6969 PUSH1 0x0 SWAP1 DUP2 MSTORE PUSH1 0x20 MSTORE PUSH32 0x662A30F03E82D96C1F4D254AC3D297AC2D115F4D7E55A040FEE317B77FA274E7 SLOAD PUSH1 0x1 PUSH1 0x1 PUSH1 0xA0 SHL SUB DUP2 AND PUSH2 0x126 JUMPI POP STOP JUMPDEST CALLDATASIZE PUSH1 0x0 DUP1 CALLDATACOPY PUSH1 0x0 DUP1 CALLDATASIZE PUSH1 0x0 DUP5 GAS DELEGATECALL RETURNDATASIZE DUP1 PUSH1 0x0 DUP1 RETURNDATACOPY DUP2 PUSH2 0x144 JUMPI DUP1 PUSH1 0x0 REVERT JUMPDEST DUP1 PUSH1 0x0 RETURN JUMPDEST CALLVALUE DUP1 ISZERO PUSH2 0x155 JUMPI PUSH1 0x0 DUP1 REVERT JUMPDEST POP PUSH2 0x169 PUSH2 0x164 CALLDATASIZE PUSH1 0x4 PUSH2 0x1AF1 JUMP JUMPDEST PUSH2 0x3C5 JUMP JUMPDEST PUSH1 0x40 MLOAD SWAP1 ISZERO ISZERO DUP2 MSTORE PUSH1 0x20 ADD JUMPDEST PUSH1 0x40 MLOAD DUP1 SWAP2 SUB SWAP1 RETURN JUMPDEST CALLVALUE DUP1 ISZERO PUSH2 0x18A JUMPI PUSH1 0x0 DUP1 REVERT JUMPDEST POP PUSH2 0x19E PUSH2 0x199 CALLDATASIZE PUSH1 0x4 PUSH2 0x18FE JUMP JUMPDEST PUSH2 0x42E JUMP JUMPDEST STOP JUMPDEST CALLVALUE DUP1 ISZERO PUSH2 0x1AC JUMPI PUSH1 0x0 DUP1 REVERT JUMPDEST POP PUSH2 0x1E4 PUSH2 0x1BB CALLDATASIZE PUSH1 0x4 PUSH2 0x1829 JUMP JUMPDEST PUSH32 0x150B7A0200000000000000000000000000000000000000000000000000000000 SWAP5 SWAP4 POP POP POP POP JUMP JUMPDEST PUSH1 0x40 MLOAD PUSH1 0x1 PUSH1 0x1 PUSH1 0xE0 SHL SUB NOT SWAP1 SWAP2 AND DUP2 MSTORE PUSH1 0x20 ADD PUSH2 0x175 JUMP JUMPDEST CALLVALUE DUP1 ISZERO PUSH2 0x209 JUMPI PUSH1 0x0 DUP1 REVERT JUMPDEST POP PUSH2 0x22A PUSH2 0x218 CALLDATASIZE PUSH1 0x4 PUSH2 0x1A8C JUMP JUMPDEST PUSH1 0x2 PUSH1 0x20 MSTORE PUSH1 0x0 SWAP1 DUP2 MSTORE PUSH1 0x40 SWAP1 KECCAK256 SLOAD DUP2 JUMP JUMPDEST PUSH1 0x40 MLOAD SWAP1 DUP2 MSTORE PUSH1 0x20 ADD PUSH2 0x175 JUMP JUMPDEST CALLVALUE DUP1 ISZERO PUSH2 0x244 JUMPI PUSH1 0x0 DUP1 REVERT JUMPDEST POP PUSH2 0x1E4 PUSH2 0x253 CALLDATASIZE PUSH1 0x4 PUSH2 0x1AA5 JUMP JUMPDEST PUSH2 0x545 JUMP JUMPDEST CALLVALUE DUP1 ISZERO PUSH2 0x264 JUMPI PUSH1 0x0 DUP1 REVERT JUMPDEST POP PUSH2 0x19E PUSH2 0x273 CALLDATASIZE PUSH1 0x4 PUSH2 0x1986 JUMP JUMPDEST PUSH2 0x5D4 JUMP JUMPDEST CALLVALUE DUP1 ISZERO PUSH2 0x284 JUMPI PUSH1 0x0 DUP1 REVERT JUMPDEST POP PUSH2 0x19E PUSH2 0x293 CALLDATASIZE PUSH1 0x4 PUSH2 0x1A2C JUMP JUMPDEST PUSH2 0x6E1 JUMP JUMPDEST CALLVALUE DUP1 ISZERO PUSH2 0x2A4 JUMPI PUSH1 0x0 DUP1 REVERT JUMPDEST POP PUSH2 0x19E PUSH2 0x2B3 CALLDATASIZE PUSH1 0x4 PUSH2 0x19EA JUMP JUMPDEST PUSH2 0xC50 JUMP JUMPDEST CALLVALUE DUP1 ISZERO PUSH2 0x2C4 JUMPI PUSH1 0x0 DUP1 REVERT JUMPDEST POP PUSH2 0x19E PUSH2 0x2D3 CALLDATASIZE PUSH1 0x4 PUSH2 0x19EA JUMP JUMPDEST PUSH2 0xCB0 JUMP JUMPDEST CALLVALUE DUP1 ISZERO PUSH2 0x2E4 JUMPI PUSH1 0x0 DUP1 REVERT JUMPDEST POP PUSH2 0x22A PUSH1 0x1 SLOAD DUP2 JUMP JUMPDEST CALLVALUE DUP1 ISZERO PUSH2 0x2FA JUMPI PUSH1 0x0 DUP1 REVERT JUMPDEST POP PUSH2 0x1E4 PUSH2 0x309 CALLDATASIZE PUSH1 0x4 PUSH2 0x177B JUMP JUMPDEST PUSH32 0xBC197C8100000000000000000000000000000000000000000000000000000000 SWAP6 SWAP5 POP POP POP POP POP JUMP JUMPDEST CALLVALUE DUP1 ISZERO PUSH2 0x33F JUMPI PUSH1 0x0 DUP1 REVERT JUMPDEST POP PUSH2 0x19E PUSH2 0x34E CALLDATASIZE PUSH1 0x4 PUSH2 0x192A JUMP JUMPDEST PUSH2 0xD75 JUMP JUMPDEST CALLVALUE DUP1 ISZERO PUSH2 0x35F JUMPI PUSH1 0x0 DUP1 REVERT JUMPDEST POP PUSH2 0x22A PUSH2 0x36E CALLDATASIZE PUSH1 0x4 PUSH2 0x1741 JUMP JUMPDEST PUSH1 0x0 PUSH1 0x20 DUP2 SWAP1 MSTORE SWAP1 DUP2 MSTORE PUSH1 0x40 SWAP1 KECCAK256 SLOAD DUP2 JUMP JUMPDEST CALLVALUE DUP1 ISZERO PUSH2 0x38C JUMPI PUSH1 0x0 DUP1 REVERT JUMPDEST POP PUSH2 0x1E4 PUSH2 0x39B CALLDATASIZE PUSH1 0x4 PUSH2 0x1895 JUMP JUMPDEST PUSH32 0xF23A6E6100000000000000000000000000000000000000000000000000000000 SWAP6 SWAP5 POP POP POP POP POP JUMP JUMPDEST PUSH1 0x0 PUSH32 0x1FFC9A700000000000000000000000000000000000000000000000000000000 PUSH1 0x1 PUSH1 0x1 PUSH1 0xE0 SHL SUB NOT DUP4 AND EQ DUP1 PUSH2 0x428 JUMPI POP PUSH32 0x4E2312E000000000000000000000000000000000000000000000000000000000 PUSH1 0x1 PUSH1 0x1 PUSH1 0xE0 SHL SUB NOT DUP4 AND EQ JUMPDEST SWAP3 SWAP2 POP POP JUMP JUMPDEST CALLER ADDRESS EQ PUSH2 0x482 JUMPI PUSH1 0x40 MLOAD PUSH3 0x461BCD PUSH1 0xE5 SHL DUP2 MSTORE PUSH1 0x20 PUSH1 0x4 DUP3 ADD MSTORE PUSH1 0x16 PUSH1 0x24 DUP3 ADD MSTORE PUSH32 0x4F4E4C595F4944454E544954595F43414E5F43414C4C00000000000000000000 PUSH1 0x44 DUP3 ADD MSTORE PUSH1 0x64 ADD JUMPDEST PUSH1 0x40 MLOAD DUP1 SWAP2 SUB SWAP1 REVERT JUMPDEST PUSH1 0x1 PUSH1 0x1 PUSH1 0xA0 SHL SUB DUP3 AND PUSH1 0x0 SWAP1 DUP2 MSTORE PUSH1 0x20 DUP2 SWAP1 MSTORE PUSH1 0x40 SWAP1 KECCAK256 SLOAD PUSH1 0x1 LT ISZERO PUSH2 0x4F4 JUMPI PUSH1 0x1 DUP2 EQ ISZERO PUSH2 0x4F4 JUMPI PUSH1 0x40 MLOAD PUSH3 0x461BCD PUSH1 0xE5 SHL DUP2 MSTORE PUSH1 0x20 PUSH1 0x4 DUP3 ADD MSTORE PUSH1 0x16 PUSH1 0x24 DUP3 ADD MSTORE PUSH32 0x554E53455454494E475F5350454349414C5F4441544100000000000000000000 PUSH1 0x44 DUP3 ADD MSTORE PUSH1 0x64 ADD PUSH2 0x479 JUMP JUMPDEST PUSH1 0x1 PUSH1 0x1 PUSH1 0xA0 SHL SUB DUP3 AND PUSH1 0x0 DUP2 DUP2 MSTORE PUSH1 0x20 DUP2 DUP2 MSTORE PUSH1 0x40 SWAP2 DUP3 SWAP1 KECCAK256 DUP5 SWAP1 SSTORE SWAP1 MLOAD DUP4 DUP2 MSTORE PUSH32 0x8AC40E0195C5998554E98853C23964A13A24309E127B2D016E8EC4ADECF5E83 SWAP2 ADD PUSH1 0x40 MLOAD DUP1 SWAP2 SUB SWAP1 LOG2 POP POP JUMP JUMPDEST PUSH1 0x0 DUP1 PUSH1 0x0 SHL PUSH1 0x0 DUP1 PUSH2 0x58E DUP8 DUP8 DUP8 DUP1 DUP1 PUSH1 0x1F ADD PUSH1 0x20 DUP1 SWAP2 DIV MUL PUSH1 0x20 ADD PUSH1 0x40 MLOAD SWAP1 DUP2 ADD PUSH1 0x40 MSTORE DUP1 SWAP4 SWAP3 SWAP2 SWAP1 DUP2 DUP2 MSTORE PUSH1 0x20 ADD DUP4 DUP4 DUP1 DUP3 DUP5 CALLDATACOPY PUSH1 0x0 SWAP3 ADD SWAP2 SWAP1 SWAP2 MSTORE POP PUSH2 0xE81 SWAP3 POP POP POP JUMP JUMPDEST PUSH1 0x1 PUSH1 0x1 PUSH1 0xA0 SHL SUB AND PUSH1 0x1 PUSH1 0x1 PUSH1 0xA0 SHL SUB AND DUP2 MSTORE PUSH1 0x20 ADD SWAP1 DUP2 MSTORE PUSH1 0x20 ADD PUSH1 0x0 KECCAK256 SLOAD EQ PUSH2 0x5C2 JUMPI POP PUSH4 0xB135D3F PUSH1 0xE1 SHL PUSH2 0x5CD JUMP JUMPDEST POP PUSH1 0x1 PUSH1 0x1 PUSH1 0xE0 SHL SUB NOT JUMPDEST SWAP4 SWAP3 POP POP POP JUMP JUMPDEST CALLER ADDRESS EQ PUSH2 0x623 JUMPI PUSH1 0x40 MLOAD PUSH3 0x461BCD PUSH1 0xE5 SHL DUP2 MSTORE PUSH1 0x20 PUSH1 0x4 DUP3 ADD MSTORE PUSH1 0x16 PUSH1 0x24 DUP3 ADD MSTORE PUSH32 0x4F4E4C595F4944454E544954595F43414E5F43414C4C00000000000000000000 PUSH1 0x44 DUP3 ADD MSTORE PUSH1 0x64 ADD PUSH2 0x479 JUMP JUMPDEST PUSH1 0x0 DUP1 DUP7 PUSH1 0x1 PUSH1 0x1 PUSH1 0xA0 SHL SUB AND DUP7 DUP5 SWAP1 DUP8 DUP8 PUSH1 0x40 MLOAD PUSH2 0x643 SWAP3 SWAP2 SWAP1 PUSH2 0x1CD0 JUMP JUMPDEST PUSH1 0x0 PUSH1 0x40 MLOAD DUP1 DUP4 SUB DUP2 DUP6 DUP9 DUP9 CALL SWAP4 POP POP POP POP RETURNDATASIZE DUP1 PUSH1 0x0 DUP2 EQ PUSH2 0x681 JUMPI PUSH1 0x40 MLOAD SWAP2 POP PUSH1 0x1F NOT PUSH1 0x3F RETURNDATASIZE ADD AND DUP3 ADD PUSH1 0x40 MSTORE RETURNDATASIZE DUP3 MSTORE RETURNDATASIZE PUSH1 0x0 PUSH1 0x20 DUP5 ADD RETURNDATACOPY PUSH2 0x686 JUMP JUMPDEST PUSH1 0x60 SWAP2 POP JUMPDEST POP SWAP2 POP SWAP2 POP DUP2 PUSH2 0x6D8 JUMPI DUP7 PUSH1 0x1 PUSH1 0x1 PUSH1 0xA0 SHL SUB AND PUSH32 0x80C2637928BD94D0E1A90EAAC1EFC1553BE6391D962FE5C82A01E90122C84CCC DUP8 DUP8 DUP8 DUP6 PUSH1 0x40 MLOAD PUSH2 0x6CF SWAP5 SWAP4 SWAP3 SWAP2 SWAP1 PUSH2 0x1E62 JUMP JUMPDEST PUSH1 0x40 MLOAD DUP1 SWAP2 SUB SWAP1 LOG2 JUMPDEST POP POP POP POP POP POP POP JUMP JUMPDEST PUSH1 0x1 SLOAD PUSH1 0x40 MLOAD PUSH1 0x0 SWAP1 PUSH2 0x700 SWAP1 ADDRESS SWAP1 CHAINID SWAP1 DUP6 SWAP1 DUP11 SWAP1 DUP11 SWAP1 PUSH1 0x20 ADD PUSH2 0x1CE0 JUMP JUMPDEST PUSH1 0x40 MLOAD PUSH1 0x20 DUP2 DUP4 SUB SUB DUP2 MSTORE SWAP1 PUSH1 0x40 MSTORE DUP1 MLOAD SWAP1 PUSH1 0x20 ADD KECCAK256 SWAP1 POP DUP2 PUSH1 0x1 PUSH2 0x725 SWAP2 SWAP1 PUSH2 0x1F64 JUMP JUMPDEST PUSH1 0x1 SWAP1 DUP2 SSTORE PUSH1 0x0 SWAP1 DUP2 SWAP1 DUP7 SWAP1 DUP7 SWAP1 PUSH2 0x73D SWAP1 DUP3 PUSH2 0x1F7C JUMP JUMPDEST DUP2 DUP2 LT PUSH2 0x74C JUMPI PUSH2 0x74C PUSH2 0x20A2 JUMP JUMPDEST SWAP2 SWAP1 SWAP2 ADD CALLDATALOAD PUSH1 0xF8 SHR SWAP2 POP POP PUSH1 0xFE DUP2 LT PUSH2 0xA8D JUMPI PUSH1 0x0 DUP1 DUP1 DUP1 PUSH2 0x770 DUP10 DUP12 ADD DUP12 PUSH2 0x1B2B JUMP JUMPDEST POP SWAP4 POP SWAP4 POP SWAP4 POP SWAP4 POP PUSH1 0x0 DUP6 PUSH1 0xFF AND PUSH1 0xFF EQ SWAP1 POP PUSH1 0x0 DUP6 PUSH1 0x40 MLOAD PUSH1 0x20 ADD PUSH2 0x797 SWAP2 SWAP1 PUSH2 0x1DFD JUMP JUMPDEST PUSH1 0x40 DUP1 MLOAD PUSH1 0x1F NOT DUP2 DUP5 SUB ADD DUP2 MSTORE SWAP2 DUP2 MSTORE DUP2 MLOAD PUSH1 0x20 SWAP3 DUP4 ADD KECCAK256 PUSH1 0x1 PUSH1 0x1 PUSH1 0xA0 SHL SUB DUP8 AND PUSH1 0x0 SWAP1 DUP2 MSTORE SWAP3 DUP4 SWAP1 MSTORE SWAP2 KECCAK256 SLOAD SWAP1 SWAP2 POP DUP2 EQ PUSH2 0x816 JUMPI PUSH1 0x40 MLOAD PUSH3 0x461BCD PUSH1 0xE5 SHL DUP2 MSTORE PUSH1 0x20 PUSH1 0x4 DUP3 ADD MSTORE PUSH1 0x17 PUSH1 0x24 DUP3 ADD MSTORE PUSH32 0x5245434F564552595F4E4F545F415554484F52495A4544000000000000000000 PUSH1 0x44 DUP3 ADD MSTORE PUSH1 0x64 ADD PUSH2 0x479 JUMP JUMPDEST PUSH1 0x0 DUP10 DUP2 MSTORE PUSH1 0x2 PUSH1 0x20 MSTORE PUSH1 0x40 SWAP1 KECCAK256 SLOAD DUP1 ISZERO DUP1 ISZERO SWAP1 PUSH2 0x832 JUMPI POP DUP3 ISZERO JUMPDEST ISZERO PUSH2 0x8E0 JUMPI DUP4 SWAP9 POP DUP1 TIMESTAMP GT PUSH2 0x889 JUMPI PUSH1 0x40 MLOAD PUSH3 0x461BCD PUSH1 0xE5 SHL DUP2 MSTORE PUSH1 0x20 PUSH1 0x4 DUP3 ADD MSTORE PUSH1 0x12 PUSH1 0x24 DUP3 ADD MSTORE PUSH32 0x5245434F564552595F4E4F545F52454144590000000000000000000000000000 PUSH1 0x44 DUP3 ADD MSTORE PUSH1 0x64 ADD PUSH2 0x479 JUMP JUMPDEST PUSH1 0x2 PUSH1 0x0 DUP12 DUP2 MSTORE PUSH1 0x20 ADD SWAP1 DUP2 MSTORE PUSH1 0x20 ADD PUSH1 0x0 KECCAK256 PUSH1 0x0 SWAP1 SSTORE DUP2 DUP11 PUSH32 0xDEDAA4AFDB5FDFA3AE5D58BB0F5B01A38B6766DC750C29F828808E27E9F89638 TIMESTAMP PUSH1 0x40 MLOAD PUSH2 0x8D3 SWAP2 DUP2 MSTORE PUSH1 0x20 ADD SWAP1 JUMP JUMPDEST PUSH1 0x40 MLOAD DUP1 SWAP2 SUB SWAP1 LOG3 PUSH2 0xA81 JUMP JUMPDEST PUSH1 0x0 PUSH2 0x8EC DUP12 DUP9 PUSH2 0xE81 JUMP JUMPDEST SWAP1 POP PUSH1 0x0 DUP1 JUMPDEST DUP10 MLOAD MLOAD DUP2 LT ISZERO PUSH2 0x94E JUMPI DUP3 PUSH1 0x1 PUSH1 0x1 PUSH1 0xA0 SHL SUB AND DUP11 PUSH1 0x0 ADD MLOAD DUP3 DUP2 MLOAD DUP2 LT PUSH2 0x91C JUMPI PUSH2 0x91C PUSH2 0x20A2 JUMP JUMPDEST PUSH1 0x20 MUL PUSH1 0x20 ADD ADD MLOAD PUSH1 0x1 PUSH1 0x1 PUSH1 0xA0 SHL SUB AND EQ ISZERO PUSH2 0x93C JUMPI PUSH1 0x1 SWAP2 POP PUSH2 0x94E JUMP JUMPDEST DUP1 PUSH2 0x946 DUP2 PUSH2 0x205B JUMP JUMPDEST SWAP2 POP POP PUSH2 0x8F2 JUMP JUMPDEST POP DUP1 PUSH2 0x99C JUMPI PUSH1 0x40 MLOAD PUSH3 0x461BCD PUSH1 0xE5 SHL DUP2 MSTORE PUSH1 0x20 PUSH1 0x4 DUP3 ADD MSTORE PUSH1 0x17 PUSH1 0x24 DUP3 ADD MSTORE PUSH32 0x5245434F564552595F4E4F545F415554484F52495A4544000000000000000000 PUSH1 0x44 DUP3 ADD MSTORE PUSH1 0x64 ADD PUSH2 0x479 JUMP JUMPDEST DUP5 ISZERO PUSH2 0xA03 JUMPI PUSH1 0x2 PUSH1 0x0 DUP14 DUP2 MSTORE PUSH1 0x20 ADD SWAP1 DUP2 MSTORE PUSH1 0x20 ADD PUSH1 0x0 KECCAK256 PUSH1 0x0 SWAP1 SSTORE DUP2 PUSH1 0x1 PUSH1 0x1 PUSH1 0xA0 SHL SUB AND DUP5 DUP14 PUSH32 0xD9C10D884D0D236030E76A4D486ED75E9557F5FDDB152FFFA5132A761267B3EF TIMESTAMP PUSH1 0x40 MLOAD PUSH2 0x9F6 SWAP2 DUP2 MSTORE PUSH1 0x20 ADD SWAP1 JUMP JUMPDEST PUSH1 0x40 MLOAD DUP1 SWAP2 SUB SWAP1 LOG4 PUSH2 0xA6F JUMP JUMPDEST PUSH1 0x20 DUP10 ADD MLOAD PUSH2 0xA12 SWAP1 TIMESTAMP PUSH2 0x1F64 JUMP JUMPDEST PUSH1 0x2 PUSH1 0x0 DUP15 DUP2 MSTORE PUSH1 0x20 ADD SWAP1 DUP2 MSTORE PUSH1 0x20 ADD PUSH1 0x0 KECCAK256 DUP2 SWAP1 SSTORE POP DUP2 PUSH1 0x1 PUSH1 0x1 PUSH1 0xA0 SHL SUB AND DUP5 DUP14 PUSH32 0xB2F8BDA3C8F565FDC73233855A3905B0F79FD43D42B8FA03DD03FB4411A3C1D7 TIMESTAMP PUSH1 0x40 MLOAD PUSH2 0xA66 SWAP2 DUP2 MSTORE PUSH1 0x20 ADD SWAP1 JUMP JUMPDEST PUSH1 0x40 MLOAD DUP1 SWAP2 SUB SWAP1 LOG4 JUMPDEST POP POP POP POP POP POP POP POP POP POP POP POP POP PUSH2 0xC4A JUMP JUMPDEST POP POP POP POP POP POP POP PUSH2 0xBCE JUMP JUMPDEST DUP4 ISZERO DUP1 ISZERO PUSH2 0xA9E JUMPI POP DUP1 PUSH1 0xFF AND PUSH1 0xFD EQ JUMPDEST ISZERO PUSH2 0xB23 JUMPI PUSH1 0x21 DUP6 EQ PUSH2 0xAF3 JUMPI PUSH1 0x40 MLOAD PUSH3 0x461BCD PUSH1 0xE5 SHL DUP2 MSTORE PUSH1 0x20 PUSH1 0x4 DUP3 ADD MSTORE PUSH1 0xD PUSH1 0x24 DUP3 ADD MSTORE PUSH32 0x434C41494D5F5349475F4C454E00000000000000000000000000000000000000 PUSH1 0x44 DUP3 ADD MSTORE PUSH1 0x64 ADD PUSH2 0x479 JUMP JUMPDEST DUP6 PUSH1 0x0 DUP7 PUSH2 0xB02 PUSH1 0x1 DUP3 PUSH2 0x1F7C JUMP JUMPDEST SWAP3 PUSH2 0xB0F SWAP4 SWAP3 SWAP2 SWAP1 PUSH2 0x1F3A JUMP JUMPDEST DUP2 ADD SWAP1 PUSH2 0xB1C SWAP2 SWAP1 PUSH2 0x1741 JUMP JUMPDEST SWAP2 POP PUSH2 0xBCE JUMP JUMPDEST PUSH2 0xB66 DUP4 DUP8 DUP8 DUP1 DUP1 PUSH1 0x1F ADD PUSH1 0x20 DUP1 SWAP2 DIV MUL PUSH1 0x20 ADD PUSH1 0x40 MLOAD SWAP1 DUP2 ADD PUSH1 0x40 MSTORE DUP1 SWAP4 SWAP3 SWAP2 SWAP1 DUP2 DUP2 MSTORE PUSH1 0x20 ADD DUP4 DUP4 DUP1 DUP3 DUP5 CALLDATACOPY PUSH1 0x0 SWAP3 ADD SWAP2 SWAP1 SWAP2 MSTORE POP PUSH1 0x1 SWAP3 POP PUSH2 0xE8B SWAP2 POP POP JUMP JUMPDEST PUSH1 0x1 PUSH1 0x1 PUSH1 0xA0 SHL SUB DUP2 AND PUSH1 0x0 SWAP1 DUP2 MSTORE PUSH1 0x20 DUP2 SWAP1 MSTORE PUSH1 0x40 SWAP1 KECCAK256 SLOAD SWAP1 SWAP3 POP PUSH2 0xBCE JUMPI PUSH1 0x40 MLOAD PUSH3 0x461BCD PUSH1 0xE5 SHL DUP2 MSTORE PUSH1 0x20 PUSH1 0x4 DUP3 ADD MSTORE PUSH1 0x16 PUSH1 0x24 DUP3 ADD MSTORE PUSH32 0x494E53554646494349454E545F50524956494C45474500000000000000000000 PUSH1 0x44 DUP3 ADD MSTORE PUSH1 0x64 ADD PUSH2 0x479 JUMP JUMPDEST PUSH2 0xBE0 PUSH2 0xBDB DUP9 DUP11 PUSH2 0x1F93 JUMP JUMPDEST PUSH2 0x141E JUMP JUMPDEST PUSH1 0x1 PUSH1 0x1 PUSH1 0xA0 SHL SUB DUP3 AND PUSH1 0x0 SWAP1 DUP2 MSTORE PUSH1 0x20 DUP2 SWAP1 MSTORE PUSH1 0x40 SWAP1 KECCAK256 SLOAD PUSH2 0xC45 JUMPI PUSH1 0x40 MLOAD PUSH3 0x461BCD PUSH1 0xE5 SHL DUP2 MSTORE PUSH1 0x20 PUSH1 0x4 DUP3 ADD MSTORE PUSH1 0x18 PUSH1 0x24 DUP3 ADD MSTORE PUSH32 0x50524956494C4547455F4E4F545F444F574E4752414445440000000000000000 PUSH1 0x44 DUP3 ADD MSTORE PUSH1 0x64 ADD PUSH2 0x479 JUMP JUMPDEST POP POP POP POP JUMPDEST POP POP POP POP JUMP JUMPDEST CALLER ADDRESS EQ PUSH2 0xC9F JUMPI PUSH1 0x40 MLOAD PUSH3 0x461BCD PUSH1 0xE5 SHL DUP2 MSTORE PUSH1 0x20 PUSH1 0x4 DUP3 ADD MSTORE PUSH1 0x16 PUSH1 0x24 DUP3 ADD MSTORE PUSH32 0x4F4E4C595F4944454E544954595F43414E5F43414C4C00000000000000000000 PUSH1 0x44 DUP3 ADD MSTORE PUSH1 0x64 ADD PUSH2 0x479 JUMP JUMPDEST PUSH2 0xCAC PUSH2 0xBDB DUP3 DUP5 PUSH2 0x1F93 JUMP JUMPDEST POP POP JUMP JUMPDEST CALLER PUSH1 0x0 SWAP1 DUP2 MSTORE PUSH1 0x20 DUP2 SWAP1 MSTORE PUSH1 0x40 SWAP1 KECCAK256 SLOAD PUSH2 0xD0C JUMPI PUSH1 0x40 MLOAD PUSH3 0x461BCD PUSH1 0xE5 SHL DUP2 MSTORE PUSH1 0x20 PUSH1 0x4 DUP3 ADD MSTORE PUSH1 0x16 PUSH1 0x24 DUP3 ADD MSTORE PUSH32 0x494E53554646494349454E545F50524956494C45474500000000000000000000 PUSH1 0x44 DUP3 ADD MSTORE PUSH1 0x64 ADD PUSH2 0x479 JUMP JUMPDEST PUSH2 0xD19 PUSH2 0xBDB DUP3 DUP5 PUSH2 0x1F93 JUMP JUMPDEST CALLER PUSH1 0x0 SWAP1 DUP2 MSTORE PUSH1 0x20 DUP2 SWAP1 MSTORE PUSH1 0x40 SWAP1 KECCAK256 SLOAD PUSH2 0xCAC JUMPI PUSH1 0x40 MLOAD PUSH3 0x461BCD PUSH1 0xE5 SHL DUP2 MSTORE PUSH1 0x20 PUSH1 0x4 DUP3 ADD MSTORE PUSH1 0x18 PUSH1 0x24 DUP3 ADD MSTORE PUSH32 0x50524956494C4547455F4E4F545F444F574E4752414445440000000000000000 PUSH1 0x44 DUP3 ADD MSTORE PUSH1 0x64 ADD PUSH2 0x479 JUMP JUMPDEST CALLER ADDRESS EQ PUSH2 0xDC4 JUMPI PUSH1 0x40 MLOAD PUSH3 0x461BCD PUSH1 0xE5 SHL DUP2 MSTORE PUSH1 0x20 PUSH1 0x4 DUP3 ADD MSTORE PUSH1 0x16 PUSH1 0x24 DUP3 ADD MSTORE PUSH32 0x4F4E4C595F4944454E544954595F43414E5F43414C4C00000000000000000000 PUSH1 0x44 DUP3 ADD MSTORE PUSH1 0x64 ADD PUSH2 0x479 JUMP JUMPDEST PUSH1 0x0 DUP1 DUP6 PUSH1 0x1 PUSH1 0x1 PUSH1 0xA0 SHL SUB AND DUP6 GAS SWAP1 DUP7 DUP7 PUSH1 0x40 MLOAD PUSH2 0xDE4 SWAP3 SWAP2 SWAP1 PUSH2 0x1CD0 JUMP JUMPDEST PUSH1 0x0 PUSH1 0x40 MLOAD DUP1 DUP4 SUB DUP2 DUP6 DUP9 DUP9 CALL SWAP4 POP POP POP POP RETURNDATASIZE DUP1 PUSH1 0x0 DUP2 EQ PUSH2 0xE22 JUMPI PUSH1 0x40 MLOAD SWAP2 POP PUSH1 0x1F NOT PUSH1 0x3F RETURNDATASIZE ADD AND DUP3 ADD PUSH1 0x40 MSTORE RETURNDATASIZE DUP3 MSTORE RETURNDATASIZE PUSH1 0x0 PUSH1 0x20 DUP5 ADD RETURNDATACOPY PUSH2 0xE27 JUMP JUMPDEST PUSH1 0x60 SWAP2 POP JUMPDEST POP SWAP2 POP SWAP2 POP DUP2 PUSH2 0xE79 JUMPI DUP6 PUSH1 0x1 PUSH1 0x1 PUSH1 0xA0 SHL SUB AND PUSH32 0x80C2637928BD94D0E1A90EAAC1EFC1553BE6391D962FE5C82A01E90122C84CCC DUP7 DUP7 DUP7 DUP6 PUSH1 0x40 MLOAD PUSH2 0xE70 SWAP5 SWAP4 SWAP3 SWAP2 SWAP1 PUSH2 0x1E62 JUMP JUMPDEST PUSH1 0x40 MLOAD DUP1 SWAP2 SUB SWAP1 LOG2 JUMPDEST POP POP POP POP POP POP JUMP JUMPDEST PUSH1 0x0 PUSH2 0x5CD DUP4 DUP4 PUSH1 0x0 JUMPDEST PUSH1 0x0 PUSH1 0x1 DUP4 MLOAD LT ISZERO PUSH2 0xEDF JUMPI PUSH1 0x40 MLOAD PUSH3 0x461BCD PUSH1 0xE5 SHL DUP2 MSTORE PUSH1 0x20 PUSH1 0x4 DUP3 ADD MSTORE PUSH1 0x9 PUSH1 0x24 DUP3 ADD MSTORE PUSH32 0x53565F5349474C454E0000000000000000000000000000000000000000000000 PUSH1 0x44 DUP3 ADD MSTORE PUSH1 0x64 ADD PUSH2 0x479 JUMP JUMPDEST PUSH1 0x0 DUP4 PUSH1 0x1 DUP6 MLOAD SUB DUP2 MLOAD DUP2 LT PUSH2 0xEF7 JUMPI PUSH2 0xEF7 PUSH2 0x20A2 JUMP JUMPDEST ADD PUSH1 0x20 ADD MLOAD PUSH1 0xF8 SHR SWAP1 POP PUSH1 0x4 DUP2 LT PUSH2 0xF51 JUMPI PUSH1 0x40 MLOAD PUSH3 0x461BCD PUSH1 0xE5 SHL DUP2 MSTORE PUSH1 0x20 PUSH1 0x4 DUP3 ADD MSTORE PUSH1 0xA PUSH1 0x24 DUP3 ADD MSTORE PUSH32 0x53565F5349474D4F444500000000000000000000000000000000000000000000 PUSH1 0x44 DUP3 ADD MSTORE PUSH1 0x64 ADD PUSH2 0x479 JUMP JUMPDEST PUSH1 0x0 DUP2 PUSH1 0xFF AND PUSH1 0x4 DUP2 GT ISZERO PUSH2 0xF68 JUMPI PUSH2 0xF68 PUSH2 0x208C JUMP JUMPDEST SWAP1 POP PUSH1 0x0 DUP2 PUSH1 0x4 DUP2 GT ISZERO PUSH2 0xF7E JUMPI PUSH2 0xF7E PUSH2 0x208C JUMP JUMPDEST EQ DUP1 PUSH2 0xF9B JUMPI POP PUSH1 0x1 DUP2 PUSH1 0x4 DUP2 GT ISZERO PUSH2 0xF99 JUMPI PUSH2 0xF99 PUSH2 0x208C JUMP JUMPDEST EQ JUMPDEST ISZERO PUSH2 0x11B5 JUMPI DUP5 MLOAD PUSH1 0x42 EQ PUSH2 0xFF1 JUMPI PUSH1 0x40 MLOAD PUSH3 0x461BCD PUSH1 0xE5 SHL DUP2 MSTORE PUSH1 0x20 PUSH1 0x4 DUP3 ADD MSTORE PUSH1 0x6 PUSH1 0x24 DUP3 ADD MSTORE PUSH32 0x53565F4C454E0000000000000000000000000000000000000000000000000000 PUSH1 0x44 DUP3 ADD MSTORE PUSH1 0x64 ADD PUSH2 0x479 JUMP JUMPDEST PUSH1 0x0 PUSH2 0xFFD DUP7 DUP3 PUSH2 0x14C9 JUMP JUMPDEST SWAP1 POP PUSH1 0x0 PUSH2 0x100C DUP8 PUSH1 0x20 PUSH2 0x14C9 JUMP JUMPDEST SWAP1 POP PUSH1 0x0 DUP8 PUSH1 0x40 DUP2 MLOAD DUP2 LT PUSH2 0x1023 JUMPI PUSH2 0x1023 PUSH2 0x20A2 JUMP JUMPDEST ADD PUSH1 0x20 ADD MLOAD PUSH1 0xF8 SHR SWAP1 POP PUSH1 0x1B DUP2 EQ DUP1 PUSH2 0x103F JUMPI POP DUP1 PUSH1 0xFF AND PUSH1 0x1C EQ JUMPDEST PUSH2 0x108B JUMPI PUSH1 0x40 MLOAD PUSH3 0x461BCD PUSH1 0xE5 SHL DUP2 MSTORE PUSH1 0x20 PUSH1 0x4 DUP3 ADD MSTORE PUSH1 0xC PUSH1 0x24 DUP3 ADD MSTORE PUSH32 0x53565F494E56414C49445F560000000000000000000000000000000000000000 PUSH1 0x44 DUP3 ADD MSTORE PUSH1 0x64 ADD PUSH2 0x479 JUMP JUMPDEST PUSH1 0x1 DUP5 PUSH1 0x4 DUP2 GT ISZERO PUSH2 0x109F JUMPI PUSH2 0x109F PUSH2 0x208C JUMP JUMPDEST EQ ISZERO PUSH2 0x10F1 JUMPI PUSH1 0x40 MLOAD PUSH32 0x19457468657265756D205369676E6564204D6573736167653A0A333200000000 PUSH1 0x20 DUP3 ADD MSTORE PUSH1 0x3C DUP2 ADD DUP11 SWAP1 MSTORE PUSH1 0x5C ADD PUSH1 0x40 MLOAD PUSH1 0x20 DUP2 DUP4 SUB SUB DUP2 MSTORE SWAP1 PUSH1 0x40 MSTORE DUP1 MLOAD SWAP1 PUSH1 0x20 ADD KECCAK256 SWAP9 POP JUMPDEST PUSH1 0x40 DUP1 MLOAD PUSH1 0x0 DUP1 DUP3 MSTORE PUSH1 0x20 DUP3 ADD DUP1 DUP5 MSTORE DUP13 SWAP1 MSTORE PUSH1 0xFF DUP5 AND SWAP3 DUP3 ADD SWAP3 SWAP1 SWAP3 MSTORE PUSH1 0x60 DUP2 ADD DUP6 SWAP1 MSTORE PUSH1 0x80 DUP2 ADD DUP5 SWAP1 MSTORE PUSH1 0x1 SWAP1 PUSH1 0xA0 ADD PUSH1 0x20 PUSH1 0x40 MLOAD PUSH1 0x20 DUP2 SUB SWAP1 DUP1 DUP5 SUB SWAP1 DUP6 GAS STATICCALL ISZERO DUP1 ISZERO PUSH2 0x1145 JUMPI RETURNDATASIZE PUSH1 0x0 DUP1 RETURNDATACOPY RETURNDATASIZE PUSH1 0x0 REVERT JUMPDEST POP POP PUSH1 0x40 MLOAD PUSH1 0x1F NOT ADD MLOAD SWAP2 POP POP PUSH1 0x1 PUSH1 0x1 PUSH1 0xA0 SHL SUB DUP2 AND PUSH2 0x11A8 JUMPI PUSH1 0x40 MLOAD PUSH3 0x461BCD PUSH1 0xE5 SHL DUP2 MSTORE PUSH1 0x20 PUSH1 0x4 DUP3 ADD MSTORE PUSH1 0xB PUSH1 0x24 DUP3 ADD MSTORE PUSH32 0x53565F5A45524F5F534947000000000000000000000000000000000000000000 PUSH1 0x44 DUP3 ADD MSTORE PUSH1 0x64 ADD PUSH2 0x479 JUMP JUMPDEST SWAP6 POP PUSH2 0x5CD SWAP5 POP POP POP POP POP JUMP JUMPDEST PUSH1 0x2 DUP2 PUSH1 0x4 DUP2 GT ISZERO PUSH2 0x11C9 JUMPI PUSH2 0x11C9 PUSH2 0x208C JUMP JUMPDEST EQ ISZERO PUSH2 0x1326 JUMPI PUSH1 0x21 DUP6 MLOAD GT PUSH2 0x1220 JUMPI PUSH1 0x40 MLOAD PUSH3 0x461BCD PUSH1 0xE5 SHL DUP2 MSTORE PUSH1 0x20 PUSH1 0x4 DUP3 ADD MSTORE PUSH1 0xD PUSH1 0x24 DUP3 ADD MSTORE PUSH32 0x53565F4C454E5F57414C4C455400000000000000000000000000000000000000 PUSH1 0x44 DUP3 ADD MSTORE PUSH1 0x64 ADD PUSH2 0x479 JUMP JUMPDEST DUP5 MLOAD PUSH1 0x20 NOT ADD PUSH1 0x0 PUSH2 0x1232 DUP8 DUP4 PUSH2 0x14C9 JUMP JUMPDEST SWAP1 POP PUSH2 0x123E DUP8 DUP4 PUSH2 0x152F JUMP JUMPDEST PUSH1 0x40 MLOAD PUSH4 0xB135D3F PUSH1 0xE1 SHL DUP2 MSTORE PUSH1 0x1 PUSH1 0x1 PUSH1 0xA0 SHL SUB DUP3 AND SWAP1 PUSH4 0x1626BA7E SWAP1 PUSH2 0x126C SWAP1 DUP12 SWAP1 DUP12 SWAP1 PUSH1 0x4 ADD PUSH2 0x1DDC JUMP JUMPDEST PUSH1 0x20 PUSH1 0x40 MLOAD DUP1 DUP4 SUB DUP2 DUP7 DUP1 EXTCODESIZE ISZERO DUP1 ISZERO PUSH2 0x1284 JUMPI PUSH1 0x0 DUP1 REVERT JUMPDEST POP GAS STATICCALL ISZERO DUP1 ISZERO PUSH2 0x1298 JUMPI RETURNDATASIZE PUSH1 0x0 DUP1 RETURNDATACOPY RETURNDATASIZE PUSH1 0x0 REVERT JUMPDEST POP POP POP POP PUSH1 0x40 MLOAD RETURNDATASIZE PUSH1 0x1F NOT PUSH1 0x1F DUP3 ADD AND DUP3 ADD DUP1 PUSH1 0x40 MSTORE POP DUP2 ADD SWAP1 PUSH2 0x12BC SWAP2 SWAP1 PUSH2 0x1B0E JUMP JUMPDEST PUSH1 0x1 PUSH1 0x1 PUSH1 0xE0 SHL SUB NOT AND PUSH4 0xB135D3F PUSH1 0xE1 SHL EQ PUSH2 0x131B JUMPI PUSH1 0x40 MLOAD PUSH3 0x461BCD PUSH1 0xE5 SHL DUP2 MSTORE PUSH1 0x20 PUSH1 0x4 DUP3 ADD MSTORE PUSH1 0x11 PUSH1 0x24 DUP3 ADD MSTORE PUSH32 0x53565F57414C4C45545F494E56414C4944000000000000000000000000000000 PUSH1 0x44 DUP3 ADD MSTORE PUSH1 0x64 ADD PUSH2 0x479 JUMP JUMPDEST SWAP4 POP PUSH2 0x5CD SWAP3 POP POP POP JUMP JUMPDEST PUSH1 0x3 DUP2 PUSH1 0x4 DUP2 GT ISZERO PUSH2 0x133A JUMPI PUSH2 0x133A PUSH2 0x208C JUMP JUMPDEST EQ DUP1 ISZERO PUSH2 0x1344 JUMPI POP DUP4 JUMPDEST ISZERO PUSH2 0x1412 JUMPI ORIGIN PUSH1 0x1 EQ PUSH2 0x1399 JUMPI PUSH1 0x40 MLOAD PUSH3 0x461BCD PUSH1 0xE5 SHL DUP2 MSTORE PUSH1 0x20 PUSH1 0x4 DUP3 ADD MSTORE PUSH1 0xF PUSH1 0x24 DUP3 ADD MSTORE PUSH32 0x53565F53504F4F465F4F524947494E0000000000000000000000000000000000 PUSH1 0x44 DUP3 ADD MSTORE PUSH1 0x64 ADD PUSH2 0x479 JUMP JUMPDEST DUP5 MLOAD PUSH1 0x21 EQ PUSH2 0x13EA JUMPI PUSH1 0x40 MLOAD PUSH3 0x461BCD PUSH1 0xE5 SHL DUP2 MSTORE PUSH1 0x20 PUSH1 0x4 DUP3 ADD MSTORE PUSH1 0xC PUSH1 0x24 DUP3 ADD MSTORE PUSH32 0x53565F53504F4F465F4C454E0000000000000000000000000000000000000000 PUSH1 0x44 DUP3 ADD MSTORE PUSH1 0x64 ADD PUSH2 0x479 JUMP JUMPDEST PUSH2 0x13F5 DUP6 PUSH1 0x20 PUSH2 0x152F JUMP JUMPDEST DUP5 DUP1 PUSH1 0x20 ADD SWAP1 MLOAD DUP2 ADD SWAP1 PUSH2 0x1409 SWAP2 SWAP1 PUSH2 0x175E JUMP JUMPDEST SWAP3 POP POP POP PUSH2 0x5CD JUMP JUMPDEST POP PUSH1 0x0 SWAP6 SWAP5 POP POP POP POP POP JUMP JUMPDEST PUSH1 0x0 DUP2 MLOAD GT PUSH2 0x146F JUMPI PUSH1 0x40 MLOAD PUSH3 0x461BCD PUSH1 0xE5 SHL DUP2 MSTORE PUSH1 0x20 PUSH1 0x4 DUP3 ADD MSTORE PUSH1 0xC PUSH1 0x24 DUP3 ADD MSTORE PUSH32 0x4D5553545F504153535F54580000000000000000000000000000000000000000 PUSH1 0x44 DUP3 ADD MSTORE PUSH1 0x64 ADD PUSH2 0x479 JUMP JUMPDEST DUP1 MLOAD PUSH1 0x0 JUMPDEST DUP2 DUP2 LT ISZERO PUSH2 0x14C4 JUMPI PUSH1 0x0 DUP4 DUP3 DUP2 MLOAD DUP2 LT PUSH2 0x1490 JUMPI PUSH2 0x1490 PUSH2 0x20A2 JUMP JUMPDEST PUSH1 0x20 MUL PUSH1 0x20 ADD ADD MLOAD SWAP1 POP PUSH2 0x14B1 DUP2 PUSH1 0x0 ADD MLOAD DUP3 PUSH1 0x20 ADD MLOAD DUP4 PUSH1 0x40 ADD MLOAD PUSH2 0x1583 JUMP JUMPDEST POP DUP1 PUSH2 0x14BC DUP2 PUSH2 0x205B JUMP JUMPDEST SWAP2 POP POP PUSH2 0x1474 JUMP JUMPDEST POP POP POP JUMP JUMPDEST PUSH1 0x0 PUSH2 0x14D6 PUSH1 0x20 DUP4 PUSH2 0x1F64 JUMP JUMPDEST SWAP2 POP DUP2 DUP4 MLOAD LT ISZERO PUSH2 0x1529 JUMPI PUSH1 0x40 MLOAD PUSH3 0x461BCD PUSH1 0xE5 SHL DUP2 MSTORE PUSH1 0x20 PUSH1 0x4 DUP3 ADD MSTORE PUSH1 0x10 PUSH1 0x24 DUP3 ADD MSTORE PUSH32 0x42797465734C69623A206C656E67746800000000000000000000000000000000 PUSH1 0x44 DUP3 ADD MSTORE PUSH1 0x64 ADD PUSH2 0x479 JUMP JUMPDEST POP ADD MLOAD SWAP1 JUMP JUMPDEST DUP1 DUP3 MLOAD GT PUSH2 0x157F JUMPI PUSH1 0x40 MLOAD PUSH3 0x461BCD PUSH1 0xE5 SHL DUP2 MSTORE PUSH1 0x20 PUSH1 0x4 DUP3 ADD MSTORE PUSH1 0x18 PUSH1 0x24 DUP3 ADD MSTORE PUSH32 0x42797465734C69623A206F6E6C7920736872696E6B696E670000000000000000 PUSH1 0x44 DUP3 ADD MSTORE PUSH1 0x64 ADD PUSH2 0x479 JUMP JUMPDEST SWAP1 MSTORE JUMP JUMPDEST PUSH1 0x0 DUP1 DUP3 MLOAD PUSH1 0x20 DUP5 ADD DUP6 DUP8 GAS CALL DUP1 DUP1 ISZERO PUSH2 0x159C JUMPI PUSH2 0x15A9 JUMP JUMPDEST RETURNDATASIZE PUSH1 0x40 MLOAD DUP2 PUSH1 0x0 DUP3 RETURNDATACOPY DUP2 DUP2 REVERT JUMPDEST POP POP POP POP POP JUMP JUMPDEST DUP1 CALLDATALOAD PUSH2 0x15BB DUP2 PUSH2 0x20CE JUMP JUMPDEST SWAP2 SWAP1 POP JUMP JUMPDEST PUSH1 0x0 DUP1 DUP4 PUSH1 0x1F DUP5 ADD SLT PUSH2 0x15D2 JUMPI PUSH1 0x0 DUP1 REVERT JUMPDEST POP DUP2 CALLDATALOAD PUSH8 0xFFFFFFFFFFFFFFFF DUP2 GT ISZERO PUSH2 0x15EA JUMPI PUSH1 0x0 DUP1 REVERT JUMPDEST PUSH1 0x20 DUP4 ADD SWAP2 POP DUP4 PUSH1 0x20 DUP3 PUSH1 0x5 SHL DUP6 ADD ADD GT ISZERO PUSH2 0x1605 JUMPI PUSH1 0x0 DUP1 REVERT JUMPDEST SWAP3 POP SWAP3 SWAP1 POP JUMP JUMPDEST PUSH1 0x0 DUP3 PUSH1 0x1F DUP4 ADD SLT PUSH2 0x161D JUMPI PUSH1 0x0 DUP1 REVERT JUMPDEST DUP2 CALLDATALOAD PUSH1 0x20 PUSH2 0x1632 PUSH2 0x162D DUP4 PUSH2 0x1F16 JUMP JUMPDEST PUSH2 0x1EE5 JUMP JUMPDEST DUP1 DUP4 DUP3 MSTORE DUP3 DUP3 ADD SWAP2 POP DUP3 DUP7 ADD DUP8 DUP5 DUP7 PUSH1 0x5 SHL DUP10 ADD ADD GT ISZERO PUSH2 0x1652 JUMPI PUSH1 0x0 DUP1 REVERT JUMPDEST PUSH1 0x0 JUMPDEST DUP6 DUP2 LT ISZERO PUSH2 0x1671 JUMPI DUP2 CALLDATALOAD DUP5 MSTORE SWAP3 DUP5 ADD SWAP3 SWAP1 DUP5 ADD SWAP1 PUSH1 0x1 ADD PUSH2 0x1655 JUMP JUMPDEST POP SWAP1 SWAP8 SWAP7 POP POP POP POP POP POP POP JUMP JUMPDEST PUSH1 0x0 DUP1 DUP4 PUSH1 0x1F DUP5 ADD SLT PUSH2 0x1690 JUMPI PUSH1 0x0 DUP1 REVERT JUMPDEST POP DUP2 CALLDATALOAD PUSH8 0xFFFFFFFFFFFFFFFF DUP2 GT ISZERO PUSH2 0x16A8 JUMPI PUSH1 0x0 DUP1 REVERT JUMPDEST PUSH1 0x20 DUP4 ADD SWAP2 POP DUP4 PUSH1 0x20 DUP3 DUP6 ADD ADD GT ISZERO PUSH2 0x1605 JUMPI PUSH1 0x0 DUP1 REVERT JUMPDEST PUSH1 0x0 DUP3 PUSH1 0x1F DUP4 ADD SLT PUSH2 0x16D1 JUMPI PUSH1 0x0 DUP1 REVERT JUMPDEST DUP2 CALLDATALOAD PUSH8 0xFFFFFFFFFFFFFFFF DUP2 GT ISZERO PUSH2 0x16EB JUMPI PUSH2 0x16EB PUSH2 0x20B8 JUMP JUMPDEST PUSH2 0x16FE PUSH1 0x1F DUP3 ADD PUSH1 0x1F NOT AND PUSH1 0x20 ADD PUSH2 0x1EE5 JUMP JUMPDEST DUP2 DUP2 MSTORE DUP5 PUSH1 0x20 DUP4 DUP7 ADD ADD GT ISZERO PUSH2 0x1713 JUMPI PUSH1 0x0 DUP1 REVERT JUMPDEST DUP2 PUSH1 0x20 DUP6 ADD PUSH1 0x20 DUP4 ADD CALLDATACOPY PUSH1 0x0 SWAP2 DUP2 ADD PUSH1 0x20 ADD SWAP2 SWAP1 SWAP2 MSTORE SWAP4 SWAP3 POP POP POP JUMP JUMPDEST DUP1 CALLDATALOAD PUSH1 0xFF DUP2 AND DUP2 EQ PUSH2 0x15BB JUMPI PUSH1 0x0 DUP1 REVERT JUMPDEST PUSH1 0x0 PUSH1 0x20 DUP3 DUP5 SUB SLT ISZERO PUSH2 0x1753 JUMPI PUSH1 0x0 DUP1 REVERT JUMPDEST DUP2 CALLDATALOAD PUSH2 0x5CD DUP2 PUSH2 0x20CE JUMP JUMPDEST PUSH1 0x0 PUSH1 0x20 DUP3 DUP5 SUB SLT ISZERO PUSH2 0x1770 JUMPI PUSH1 0x0 DUP1 REVERT JUMPDEST DUP2 MLOAD PUSH2 0x5CD DUP2 PUSH2 0x20CE JUMP JUMPDEST PUSH1 0x0 DUP1 PUSH1 0x0 DUP1 PUSH1 0x0 PUSH1 0xA0 DUP7 DUP9 SUB SLT ISZERO PUSH2 0x1793 JUMPI PUSH1 0x0 DUP1 REVERT JUMPDEST DUP6 CALLDATALOAD PUSH2 0x179E DUP2 PUSH2 0x20CE JUMP JUMPDEST SWAP5 POP PUSH1 0x20 DUP7 ADD CALLDATALOAD PUSH2 0x17AE DUP2 PUSH2 0x20CE JUMP JUMPDEST SWAP4 POP PUSH1 0x40 DUP7 ADD CALLDATALOAD PUSH8 0xFFFFFFFFFFFFFFFF DUP1 DUP3 GT ISZERO PUSH2 0x17CB JUMPI PUSH1 0x0 DUP1 REVERT JUMPDEST PUSH2 0x17D7 DUP10 DUP4 DUP11 ADD PUSH2 0x160C JUMP JUMPDEST SWAP5 POP PUSH1 0x60 DUP9 ADD CALLDATALOAD SWAP2 POP DUP1 DUP3 GT ISZERO PUSH2 0x17ED JUMPI PUSH1 0x0 DUP1 REVERT JUMPDEST PUSH2 0x17F9 DUP10 DUP4 DUP11 ADD PUSH2 0x160C JUMP JUMPDEST SWAP4 POP PUSH1 0x80 DUP9 ADD CALLDATALOAD SWAP2 POP DUP1 DUP3 GT ISZERO PUSH2 0x180F JUMPI PUSH1 0x0 DUP1 REVERT JUMPDEST POP PUSH2 0x181C DUP9 DUP3 DUP10 ADD PUSH2 0x16C0 JUMP JUMPDEST SWAP2 POP POP SWAP3 SWAP6 POP SWAP3 SWAP6 SWAP1 SWAP4 POP JUMP JUMPDEST PUSH1 0x0 DUP1 PUSH1 0x0 DUP1 PUSH1 0x80 DUP6 DUP8 SUB SLT ISZERO PUSH2 0x183F JUMPI PUSH1 0x0 DUP1 REVERT JUMPDEST DUP5 CALLDATALOAD PUSH2 0x184A DUP2 PUSH2 0x20CE JUMP JUMPDEST SWAP4 POP PUSH1 0x20 DUP6 ADD CALLDATALOAD PUSH2 0x185A DUP2 PUSH2 0x20CE JUMP JUMPDEST SWAP3 POP PUSH1 0x40 DUP6 ADD CALLDATALOAD SWAP2 POP PUSH1 0x60 DUP6 ADD CALLDATALOAD PUSH8 0xFFFFFFFFFFFFFFFF DUP2 GT ISZERO PUSH2 0x187D JUMPI PUSH1 0x0 DUP1 REVERT JUMPDEST PUSH2 0x1889 DUP8 DUP3 DUP9 ADD PUSH2 0x16C0 JUMP JUMPDEST SWAP2 POP POP SWAP3 SWAP6 SWAP2 SWAP5 POP SWAP3 POP JUMP JUMPDEST PUSH1 0x0 DUP1 PUSH1 0x0 DUP1 PUSH1 0x0 PUSH1 0xA0 DUP7 DUP9 SUB SLT ISZERO PUSH2 0x18AD JUMPI PUSH1 0x0 DUP1 REVERT JUMPDEST DUP6 CALLDATALOAD PUSH2 0x18B8 DUP2 PUSH2 0x20CE JUMP JUMPDEST SWAP5 POP PUSH1 0x20 DUP7 ADD CALLDATALOAD PUSH2 0x18C8 DUP2 PUSH2 0x20CE JUMP JUMPDEST SWAP4 POP PUSH1 0x40 DUP7 ADD CALLDATALOAD SWAP3 POP PUSH1 0x60 DUP7 ADD CALLDATALOAD SWAP2 POP PUSH1 0x80 DUP7 ADD CALLDATALOAD PUSH8 0xFFFFFFFFFFFFFFFF DUP2 GT ISZERO PUSH2 0x18F2 JUMPI PUSH1 0x0 DUP1 REVERT JUMPDEST PUSH2 0x181C DUP9 DUP3 DUP10 ADD PUSH2 0x16C0 JUMP JUMPDEST PUSH1 0x0 DUP1 PUSH1 0x40 DUP4 DUP6 SUB SLT ISZERO PUSH2 0x1911 JUMPI PUSH1 0x0 DUP1 REVERT JUMPDEST DUP3 CALLDATALOAD PUSH2 0x191C DUP2 PUSH2 0x20CE JUMP JUMPDEST SWAP5 PUSH1 0x20 SWAP4 SWAP1 SWAP4 ADD CALLDATALOAD SWAP4 POP POP POP JUMP JUMPDEST PUSH1 0x0 DUP1 PUSH1 0x0 DUP1 PUSH1 0x60 DUP6 DUP8 SUB SLT ISZERO PUSH2 0x1940 JUMPI PUSH1 0x0 DUP1 REVERT JUMPDEST DUP5 CALLDATALOAD PUSH2 0x194B DUP2 PUSH2 0x20CE JUMP JUMPDEST SWAP4 POP PUSH1 0x20 DUP6 ADD CALLDATALOAD SWAP3 POP PUSH1 0x40 DUP6 ADD CALLDATALOAD PUSH8 0xFFFFFFFFFFFFFFFF DUP2 GT ISZERO PUSH2 0x196E JUMPI PUSH1 0x0 DUP1 REVERT JUMPDEST PUSH2 0x197A DUP8 DUP3 DUP9 ADD PUSH2 0x167E JUMP JUMPDEST SWAP6 SWAP9 SWAP5 SWAP8 POP SWAP6 POP POP POP POP JUMP JUMPDEST PUSH1 0x0 DUP1 PUSH1 0x0 DUP1 PUSH1 0x0 PUSH1 0x80 DUP7 DUP9 SUB SLT ISZERO PUSH2 0x199E JUMPI PUSH1 0x0 DUP1 REVERT JUMPDEST DUP6 CALLDATALOAD PUSH2 0x19A9 DUP2 PUSH2 0x20CE JUMP JUMPDEST SWAP5 POP PUSH1 0x20 DUP7 ADD CALLDATALOAD SWAP4 POP PUSH1 0x40 DUP7 ADD CALLDATALOAD PUSH8 0xFFFFFFFFFFFFFFFF DUP2 GT ISZERO PUSH2 0x19CC JUMPI PUSH1 0x0 DUP1 REVERT JUMPDEST PUSH2 0x19D8 DUP9 DUP3 DUP10 ADD PUSH2 0x167E JUMP JUMPDEST SWAP7 SWAP10 SWAP6 SWAP9 POP SWAP7 PUSH1 0x60 ADD CALLDATALOAD SWAP5 SWAP4 POP POP POP POP JUMP JUMPDEST PUSH1 0x0 DUP1 PUSH1 0x20 DUP4 DUP6 SUB SLT ISZERO PUSH2 0x19FD JUMPI PUSH1 0x0 DUP1 REVERT JUMPDEST DUP3 CALLDATALOAD PUSH8 0xFFFFFFFFFFFFFFFF DUP2 GT ISZERO PUSH2 0x1A14 JUMPI PUSH1 0x0 DUP1 REVERT JUMPDEST PUSH2 0x1A20 DUP6 DUP3 DUP7 ADD PUSH2 0x15C0 JUMP JUMPDEST SWAP1 SWAP7 SWAP1 SWAP6 POP SWAP4 POP POP POP POP JUMP JUMPDEST PUSH1 0x0 DUP1 PUSH1 0x0 DUP1 PUSH1 0x40 DUP6 DUP8 SUB SLT ISZERO PUSH2 0x1A42 JUMPI PUSH1 0x0 DUP1 REVERT JUMPDEST DUP5 CALLDATALOAD PUSH8 0xFFFFFFFFFFFFFFFF DUP1 DUP3 GT ISZERO PUSH2 0x1A5A JUMPI PUSH1 0x0 DUP1 REVERT JUMPDEST PUSH2 0x1A66 DUP9 DUP4 DUP10 ADD PUSH2 0x15C0 JUMP JUMPDEST SWAP1 SWAP7 POP SWAP5 POP PUSH1 0x20 DUP8 ADD CALLDATALOAD SWAP2 POP DUP1 DUP3 GT ISZERO PUSH2 0x1A7F JUMPI PUSH1 0x0 DUP1 REVERT JUMPDEST POP PUSH2 0x197A DUP8 DUP3 DUP9 ADD PUSH2 0x167E JUMP JUMPDEST PUSH1 0x0 PUSH1 0x20 DUP3 DUP5 SUB SLT ISZERO PUSH2 0x1A9E JUMPI PUSH1 0x0 DUP1 REVERT JUMPDEST POP CALLDATALOAD SWAP2 SWAP1 POP JUMP JUMPDEST PUSH1 0x0 DUP1 PUSH1 0x0 PUSH1 0x40 DUP5 DUP7 SUB SLT ISZERO PUSH2 0x1ABA JUMPI PUSH1 0x0 DUP1 REVERT JUMPDEST DUP4 CALLDATALOAD SWAP3 POP PUSH1 0x20 DUP5 ADD CALLDATALOAD PUSH8 0xFFFFFFFFFFFFFFFF DUP2 GT ISZERO PUSH2 0x1AD8 JUMPI PUSH1 0x0 DUP1 REVERT JUMPDEST PUSH2 0x1AE4 DUP7 DUP3 DUP8 ADD PUSH2 0x167E JUMP JUMPDEST SWAP5 SWAP8 SWAP1 SWAP7 POP SWAP4 SWAP5 POP POP POP POP JUMP JUMPDEST PUSH1 0x0 PUSH1 0x20 DUP3 DUP5 SUB SLT ISZERO PUSH2 0x1B03 JUMPI PUSH1 0x0 DUP1 REVERT JUMPDEST DUP2 CALLDATALOAD PUSH2 0x5CD DUP2 PUSH2 0x20E6 JUMP JUMPDEST PUSH1 0x0 PUSH1 0x20 DUP3 DUP5 SUB SLT ISZERO PUSH2 0x1B20 JUMPI PUSH1 0x0 DUP1 REVERT JUMPDEST DUP2 MLOAD PUSH2 0x5CD DUP2 PUSH2 0x20E6 JUMP JUMPDEST PUSH1 0x0 DUP1 PUSH1 0x0 DUP1 PUSH1 0x0 PUSH1 0xA0 DUP7 DUP9 SUB SLT ISZERO PUSH2 0x1B43 JUMPI PUSH1 0x0 DUP1 REVERT JUMPDEST DUP6 CALLDATALOAD PUSH8 0xFFFFFFFFFFFFFFFF DUP1 DUP3 GT ISZERO PUSH2 0x1B5B JUMPI PUSH1 0x0 DUP1 REVERT JUMPDEST SWAP1 DUP8 ADD SWAP1 PUSH1 0x40 DUP3 DUP11 SUB SLT ISZERO PUSH2 0x1B6F JUMPI PUSH1 0x0 DUP1 REVERT JUMPDEST PUSH2 0x1B77 PUSH2 0x1E99 JUMP JUMPDEST DUP3 CALLDATALOAD DUP3 DUP2 GT ISZERO PUSH2 0x1B86 JUMPI PUSH1 0x0 DUP1 REVERT JUMPDEST DUP4 ADD PUSH1 0x1F DUP2 ADD DUP12 SGT PUSH2 0x1B97 JUMPI PUSH1 0x0 DUP1 REVERT JUMPDEST DUP1 CALLDATALOAD PUSH1 0x20 PUSH2 0x1BA7 PUSH2 0x162D DUP4 PUSH2 0x1F16 JUMP JUMPDEST DUP1 DUP4 DUP3 MSTORE DUP3 DUP3 ADD SWAP2 POP DUP3 DUP6 ADD DUP16 DUP5 DUP7 PUSH1 0x5 SHL DUP9 ADD ADD GT ISZERO PUSH2 0x1BC7 JUMPI PUSH1 0x0 DUP1 REVERT JUMPDEST PUSH1 0x0 SWAP6 POP JUMPDEST DUP5 DUP7 LT ISZERO PUSH2 0x1BF3 JUMPI DUP1 CALLDATALOAD PUSH2 0x1BDF DUP2 PUSH2 0x20CE JUMP JUMPDEST DUP4 MSTORE PUSH1 0x1 SWAP6 SWAP1 SWAP6 ADD SWAP5 SWAP2 DUP4 ADD SWAP2 DUP4 ADD PUSH2 0x1BCC JUMP JUMPDEST POP DUP6 MSTORE POP SWAP5 DUP6 ADD CALLDATALOAD DUP6 DUP5 ADD MSTORE POP SWAP1 SWAP8 POP POP SWAP1 DUP8 ADD CALLDATALOAD SWAP1 DUP1 DUP3 GT ISZERO PUSH2 0x1C16 JUMPI PUSH1 0x0 DUP1 REVERT JUMPDEST POP PUSH2 0x1C23 DUP9 DUP3 DUP10 ADD PUSH2 0x16C0 JUMP JUMPDEST SWAP5 POP POP PUSH2 0x1C32 PUSH1 0x40 DUP8 ADD PUSH2 0x15B0 JUMP JUMPDEST SWAP3 POP PUSH2 0x1C40 PUSH1 0x60 DUP8 ADD PUSH2 0x15B0 JUMP JUMPDEST SWAP2 POP PUSH2 0x1C4E PUSH1 0x80 DUP8 ADD PUSH2 0x1730 JUMP JUMPDEST SWAP1 POP SWAP3 SWAP6 POP SWAP3 SWAP6 SWAP1 SWAP4 POP JUMP JUMPDEST DUP2 DUP4 MSTORE DUP2 DUP2 PUSH1 0x20 DUP6 ADD CALLDATACOPY POP PUSH1 0x0 DUP3 DUP3 ADD PUSH1 0x20 SWAP1 DUP2 ADD SWAP2 SWAP1 SWAP2 MSTORE PUSH1 0x1F SWAP1 SWAP2 ADD PUSH1 0x1F NOT AND SWAP1 SWAP2 ADD ADD SWAP1 JUMP JUMPDEST PUSH1 0x0 DUP2 MLOAD DUP1 DUP5 MSTORE PUSH1 0x0 JUMPDEST DUP2 DUP2 LT ISZERO PUSH2 0x1CA9 JUMPI PUSH1 0x20 DUP2 DUP6 ADD DUP2 ADD MLOAD DUP7 DUP4 ADD DUP3 ADD MSTORE ADD PUSH2 0x1C8D JUMP JUMPDEST DUP2 DUP2 GT ISZERO PUSH2 0x1CBB JUMPI PUSH1 0x0 PUSH1 0x20 DUP4 DUP8 ADD ADD MSTORE JUMPDEST POP PUSH1 0x1F ADD PUSH1 0x1F NOT AND SWAP3 SWAP1 SWAP3 ADD PUSH1 0x20 ADD SWAP3 SWAP2 POP POP JUMP JUMPDEST DUP2 DUP4 DUP3 CALLDATACOPY PUSH1 0x0 SWAP2 ADD SWAP1 DUP2 MSTORE SWAP2 SWAP1 POP JUMP JUMPDEST PUSH1 0x0 PUSH1 0x80 DUP3 ADD PUSH1 0x1 PUSH1 0x1 PUSH1 0xA0 SHL SUB DUP1 DUP10 AND DUP5 MSTORE PUSH1 0x20 DUP9 DUP2 DUP7 ADD MSTORE PUSH1 0x40 DUP9 DUP2 DUP8 ADD MSTORE PUSH1 0x60 PUSH1 0x80 DUP2 DUP9 ADD MSTORE DUP5 DUP9 DUP7 MSTORE PUSH1 0xA0 DUP9 ADD SWAP1 POP PUSH1 0xA0 DUP10 PUSH1 0x5 SHL DUP10 ADD ADD SWAP6 POP DUP10 PUSH1 0x0 JUMPDEST DUP11 DUP2 LT ISZERO PUSH2 0x1DC9 JUMPI DUP10 DUP9 SUB PUSH1 0x9F NOT ADD DUP4 MSTORE DUP2 CALLDATALOAD CALLDATASIZE DUP14 SWAP1 SUB PUSH1 0x5E NOT ADD DUP2 SLT PUSH2 0x1D48 JUMPI PUSH1 0x0 DUP1 REVERT JUMPDEST DUP13 ADD DUP1 CALLDATALOAD PUSH2 0x1D55 DUP2 PUSH2 0x20CE JUMP JUMPDEST DUP9 AND DUP10 MSTORE DUP1 DUP8 ADD CALLDATALOAD DUP8 DUP11 ADD MSTORE DUP6 DUP2 ADD CALLDATALOAD CALLDATASIZE DUP3 SWAP1 SUB PUSH1 0x1E NOT ADD DUP2 SLT PUSH2 0x1D78 JUMPI PUSH1 0x0 DUP1 REVERT JUMPDEST DUP2 ADD DUP1 CALLDATALOAD PUSH8 0xFFFFFFFFFFFFFFFF DUP2 GT ISZERO PUSH2 0x1D91 JUMPI PUSH1 0x0 DUP1 REVERT JUMPDEST DUP1 CALLDATASIZE SUB DUP4 SGT ISZERO PUSH2 0x1DA0 JUMPI PUSH1 0x0 DUP1 REVERT JUMPDEST DUP7 DUP9 DUP13 ADD MSTORE PUSH2 0x1DB4 DUP8 DUP13 ADD DUP3 DUP12 DUP6 ADD PUSH2 0x1C5A JUMP JUMPDEST SWAP11 POP POP POP SWAP3 DUP7 ADD SWAP3 POP SWAP1 DUP6 ADD SWAP1 PUSH1 0x1 ADD PUSH2 0x1D22 JUMP JUMPDEST POP SWAP6 SWAP14 SWAP13 POP POP POP POP POP POP POP POP POP POP POP POP POP JUMP JUMPDEST DUP3 DUP2 MSTORE PUSH1 0x40 PUSH1 0x20 DUP3 ADD MSTORE PUSH1 0x0 PUSH2 0x1DF5 PUSH1 0x40 DUP4 ADD DUP5 PUSH2 0x1C83 JUMP JUMPDEST SWAP5 SWAP4 POP POP POP POP JUMP JUMPDEST PUSH1 0x20 DUP1 DUP3 MSTORE DUP3 MLOAD PUSH1 0x40 DUP4 DUP4 ADD MSTORE DUP1 MLOAD PUSH1 0x60 DUP5 ADD DUP2 SWAP1 MSTORE PUSH1 0x0 SWAP3 SWAP2 DUP3 ADD SWAP1 DUP4 SWAP1 PUSH1 0x80 DUP7 ADD SWAP1 JUMPDEST DUP1 DUP4 LT ISZERO PUSH2 0x1E4B JUMPI DUP4 MLOAD PUSH1 0x1 PUSH1 0x1 PUSH1 0xA0 SHL SUB AND DUP3 MSTORE SWAP3 DUP5 ADD SWAP3 PUSH1 0x1 SWAP3 SWAP1 SWAP3 ADD SWAP2 SWAP1 DUP5 ADD SWAP1 PUSH2 0x1E22 JUMP JUMPDEST POP DUP4 DUP8 ADD MLOAD PUSH1 0x40 DUP8 ADD MSTORE DUP1 SWAP5 POP POP POP POP POP SWAP3 SWAP2 POP POP JUMP JUMPDEST DUP5 DUP2 MSTORE PUSH1 0x60 PUSH1 0x20 DUP3 ADD MSTORE PUSH1 0x0 PUSH2 0x1E7C PUSH1 0x60 DUP4 ADD DUP6 DUP8 PUSH2 0x1C5A JUMP JUMPDEST DUP3 DUP2 SUB PUSH1 0x40 DUP5 ADD MSTORE PUSH2 0x1E8E DUP2 DUP6 PUSH2 0x1C83 JUMP JUMPDEST SWAP8 SWAP7 POP POP POP POP POP POP POP JUMP JUMPDEST PUSH1 0x40 DUP1 MLOAD SWAP1 DUP2 ADD PUSH8 0xFFFFFFFFFFFFFFFF DUP2 GT DUP3 DUP3 LT OR ISZERO PUSH2 0x1EBC JUMPI PUSH2 0x1EBC PUSH2 0x20B8 JUMP JUMPDEST PUSH1 0x40 MSTORE SWAP1 JUMP JUMPDEST PUSH1 0x40 MLOAD PUSH1 0x60 DUP2 ADD PUSH8 0xFFFFFFFFFFFFFFFF DUP2 GT DUP3 DUP3 LT OR ISZERO PUSH2 0x1EBC JUMPI PUSH2 0x1EBC PUSH2 0x20B8 JUMP JUMPDEST PUSH1 0x40 MLOAD PUSH1 0x1F DUP3 ADD PUSH1 0x1F NOT AND DUP2 ADD PUSH8 0xFFFFFFFFFFFFFFFF DUP2 GT DUP3 DUP3 LT OR ISZERO PUSH2 0x1F0E JUMPI PUSH2 0x1F0E PUSH2 0x20B8 JUMP JUMPDEST PUSH1 0x40 MSTORE SWAP2 SWAP1 POP JUMP JUMPDEST PUSH1 0x0 PUSH8 0xFFFFFFFFFFFFFFFF DUP3 GT ISZERO PUSH2 0x1F30 JUMPI PUSH2 0x1F30 PUSH2 0x20B8 JUMP JUMPDEST POP PUSH1 0x5 SHL PUSH1 0x20 ADD SWAP1 JUMP JUMPDEST PUSH1 0x0 DUP1 DUP6 DUP6 GT ISZERO PUSH2 0x1F4A JUMPI PUSH1 0x0 DUP1 REVERT JUMPDEST DUP4 DUP7 GT ISZERO PUSH2 0x1F57 JUMPI PUSH1 0x0 DUP1 REVERT JUMPDEST POP POP DUP3 ADD SWAP4 SWAP2 SWAP1 SWAP3 SUB SWAP2 POP JUMP JUMPDEST PUSH1 0x0 DUP3 NOT DUP3 GT ISZERO PUSH2 0x1F77 JUMPI PUSH2 0x1F77 PUSH2 0x2076 JUMP JUMPDEST POP ADD SWAP1 JUMP JUMPDEST PUSH1 0x0 DUP3 DUP3 LT ISZERO PUSH2 0x1F8E JUMPI PUSH2 0x1F8E PUSH2 0x2076 JUMP JUMPDEST POP SUB SWAP1 JUMP JUMPDEST PUSH1 0x0 PUSH2 0x1FA1 PUSH2 0x162D DUP5 PUSH2 0x1F16 JUMP JUMPDEST DUP1 DUP5 DUP3 MSTORE PUSH1 0x20 DUP1 DUP4 ADD SWAP3 POP DUP5 CALLDATASIZE DUP8 PUSH1 0x5 SHL DUP8 ADD GT ISZERO PUSH2 0x1FBF JUMPI PUSH1 0x0 DUP1 REVERT JUMPDEST PUSH1 0x0 JUMPDEST DUP8 DUP2 LT ISZERO PUSH2 0x204F JUMPI DUP2 CALLDATALOAD PUSH8 0xFFFFFFFFFFFFFFFF DUP1 DUP3 GT ISZERO PUSH2 0x1FE2 JUMPI PUSH1 0x0 DUP1 REVERT JUMPDEST DUP2 DUP10 ADD SWAP2 POP PUSH1 0x60 DUP3 CALLDATASIZE SUB SLT ISZERO PUSH2 0x1FF7 JUMPI PUSH1 0x0 DUP1 REVERT JUMPDEST PUSH2 0x1FFF PUSH2 0x1EC2 JUMP JUMPDEST DUP3 CALLDATALOAD PUSH2 0x200A DUP2 PUSH2 0x20CE JUMP JUMPDEST DUP2 MSTORE DUP3 DUP7 ADD CALLDATALOAD DUP7 DUP3 ADD MSTORE PUSH1 0x40 DUP1 DUP5 ADD CALLDATALOAD DUP4 DUP2 GT ISZERO PUSH2 0x2027 JUMPI PUSH1 0x0 DUP1 REVERT JUMPDEST PUSH2 0x2033 CALLDATASIZE DUP3 DUP8 ADD PUSH2 0x16C0 JUMP JUMPDEST SWAP2 DUP4 ADD SWAP2 SWAP1 SWAP2 MSTORE POP DUP8 MSTORE POP POP SWAP4 DUP3 ADD SWAP4 SWAP1 DUP3 ADD SWAP1 PUSH1 0x1 ADD PUSH2 0x1FC2 JUMP JUMPDEST POP SWAP2 SWAP7 SWAP6 POP POP POP POP POP POP JUMP JUMPDEST PUSH1 0x0 PUSH1 0x0 NOT DUP3 EQ ISZERO PUSH2 0x206F JUMPI PUSH2 0x206F PUSH2 0x2076 JUMP JUMPDEST POP PUSH1 0x1 ADD SWAP1 JUMP JUMPDEST PUSH4 0x4E487B71 PUSH1 0xE0 SHL PUSH1 0x0 MSTORE PUSH1 0x11 PUSH1 0x4 MSTORE PUSH1 0x24 PUSH1 0x0 REVERT JUMPDEST PUSH4 0x4E487B71 PUSH1 0xE0 SHL PUSH1 0x0 MSTORE PUSH1 0x21 PUSH1 0x4 MSTORE PUSH1 0x24 PUSH1 0x0 REVERT JUMPDEST PUSH4 0x4E487B71 PUSH1 0xE0 SHL PUSH1 0x0 MSTORE PUSH1 0x32 PUSH1 0x4 MSTORE PUSH1 0x24 PUSH1 0x0 REVERT JUMPDEST PUSH4 0x4E487B71 PUSH1 0xE0 SHL PUSH1 0x0 MSTORE PUSH1 0x41 PUSH1 0x4 MSTORE PUSH1 0x24 PUSH1 0x0 REVERT JUMPDEST PUSH1 0x1 PUSH1 0x1 PUSH1 0xA0 SHL SUB DUP2 AND DUP2 EQ PUSH2 0x20E3 JUMPI PUSH1 0x0 DUP1 REVERT JUMPDEST POP JUMP JUMPDEST PUSH1 0x1 PUSH1 0x1 PUSH1 0xE0 SHL SUB NOT DUP2 AND DUP2 EQ PUSH2 0x20E3 JUMPI PUSH1 0x0 DUP1 REVERT INVALID LOG2 PUSH5 0x6970667358 0x22 SLT KECCAK256 0xD9 0xAA 0xAA 0x29 JUMPDEST 0xC1 LOG0 PUSH11 0x2AC00D1DD4400FE93299DD SIGNEXTEND PUSH7 0x64212E22872DFB CALLVALUE 0xE1 GASLIMIT GASPRICE PUSH5 0x736F6C6343 STOP ADDMOD SMOD STOP CALLER "},"methodIdentifiers":{"execute((address,uint256,bytes)[],bytes)":"6171d1c9","executeBySelf((address,uint256,bytes)[])":"6769de82","executeBySender((address,uint256,bytes)[])":"abc5345e","isValidSignature(bytes32,bytes)":"1626ba7e","nonce()":"affed0e0","onERC1155BatchReceived(address,address,uint256[],uint256[],bytes)":"bc197c81","onERC1155Received(address,address,uint256,uint256,bytes)":"f23a6e61","onERC721Received(address,address,uint256,bytes)":"150b7a02","privileges(address)":"c066a5b1","scheduledRecoveries(bytes32)":"160aa0ef","setAddrPrivilege(address,bytes32)":"0d5828d4","supportsInterface(bytes4)":"01ffc9a7","tryCatch(address,uint256,bytes)":"bf1cb383","tryCatchLimit(address,uint256,bytes,uint256)":"3628d042"}},"storageLayout":{"storage":[{"astId":1068,"contract":"src/contracts/Wallet.sol:Wallet","label":"privileges","offset":0,"slot":"0","type":"t_mapping(t_address,t_bytes32)"},{"astId":1070,"contract":"src/contracts/Wallet.sol:Wallet","label":"nonce","offset":0,"slot":"1","type":"t_uint256"},{"astId":1074,"contract":"src/contracts/Wallet.sol:Wallet","label":"scheduledRecoveries","offset":0,"slot":"2","type":"t_mapping(t_bytes32,t_uint256)"}],"types":{"t_address":{"encoding":"inplace","label":"address","numberOfBytes":"20"},"t_bytes32":{"encoding":"inplace","label":"bytes32","numberOfBytes":"32"},"t_mapping(t_address,t_bytes32)":{"encoding":"mapping","key":"t_address","label":"mapping(address => bytes32)","numberOfBytes":"32","value":"t_bytes32"},"t_mapping(t_bytes32,t_uint256)":{"encoding":"mapping","key":"t_bytes32","label":"mapping(bytes32 => uint256)","numberOfBytes":"32","value":"t_uint256"},"t_uint256":{"encoding":"inplace","label":"uint256","numberOfBytes":"32"}}}}}}