{"src/contracts/QuickAccManager.sol":{"QuickAccManager":{"abi":[{"inputs":[],"stateMutability":"nonpayable","type":"constructor"},{"anonymous":false,"inputs":[{"indexed":true,"internalType":"bytes32","name":"txnHash","type":"bytes32"},{"indexed":true,"internalType":"bytes32","name":"accHash","type":"bytes32"},{"indexed":true,"internalType":"address","name":"signer","type":"address"},{"indexed":false,"internalType":"uint256","name":"time","type":"uint256"}],"name":"LogCancelled","type":"event"},{"anonymous":false,"inputs":[{"indexed":true,"internalType":"bytes32","name":"txnHash","type":"bytes32"},{"indexed":true,"internalType":"bytes32","name":"accHash","type":"bytes32"},{"indexed":false,"internalType":"uint256","name":"time","type":"uint256"}],"name":"LogExecScheduled","type":"event"},{"anonymous":false,"inputs":[{"indexed":true,"internalType":"bytes32","name":"txnHash","type":"bytes32"},{"indexed":true,"internalType":"bytes32","name":"accHash","type":"bytes32"},{"indexed":true,"internalType":"address","name":"signer","type":"address"},{"indexed":false,"internalType":"uint256","name":"nonce","type":"uint256"},{"indexed":false,"internalType":"uint256","name":"time","type":"uint256"},{"components":[{"internalType":"address","name":"to","type":"address"},{"internalType":"uint256","name":"value","type":"uint256"},{"internalType":"bytes","name":"data","type":"bytes"}],"indexed":false,"internalType":"struct Wallet.Transaction[]","name":"txns","type":"tuple[]"}],"name":"LogScheduled","type":"event"},{"inputs":[],"name":"DOMAIN_SEPARATOR","outputs":[{"internalType":"bytes32","name":"","type":"bytes32"}],"stateMutability":"view","type":"function"},{"inputs":[{"internalType":"contract Wallet","name":"identity","type":"address"},{"components":[{"internalType":"uint256","name":"timelock","type":"uint256"},{"internalType":"address","name":"one","type":"address"},{"internalType":"address","name":"two","type":"address"}],"internalType":"struct QuickAccManager.QuickAccount","name":"acc","type":"tuple"},{"internalType":"uint256","name":"nonce","type":"uint256"},{"internalType":"bytes","name":"sig","type":"bytes"},{"components":[{"internalType":"address","name":"to","type":"address"},{"internalType":"uint256","name":"value","type":"uint256"},{"internalType":"bytes","name":"data","type":"bytes"}],"internalType":"struct Wallet.Transaction[]","name":"txns","type":"tuple[]"}],"name":"cancel","outputs":[],"stateMutability":"nonpayable","type":"function"},{"inputs":[{"internalType":"contract Wallet","name":"identity","type":"address"},{"internalType":"bytes32","name":"accHash","type":"bytes32"},{"internalType":"uint256","name":"nonce","type":"uint256"},{"components":[{"internalType":"address","name":"to","type":"address"},{"internalType":"uint256","name":"value","type":"uint256"},{"internalType":"bytes","name":"data","type":"bytes"}],"internalType":"struct Wallet.Transaction[]","name":"txns","type":"tuple[]"}],"name":"execScheduled","outputs":[],"stateMutability":"nonpayable","type":"function"},{"inputs":[{"internalType":"bytes32","name":"hash","type":"bytes32"},{"internalType":"bytes","name":"signature","type":"bytes"}],"name":"isValidSignature","outputs":[{"internalType":"bytes4","name":"","type":"bytes4"}],"stateMutability":"view","type":"function"},{"inputs":[{"internalType":"address","name":"","type":"address"}],"name":"nonces","outputs":[{"internalType":"uint256","name":"","type":"uint256"}],"stateMutability":"view","type":"function"},{"inputs":[{"internalType":"bytes32","name":"","type":"bytes32"}],"name":"scheduled","outputs":[{"internalType":"uint256","name":"","type":"uint256"}],"stateMutability":"view","type":"function"},{"inputs":[{"internalType":"contract Wallet","name":"identity","type":"address"},{"components":[{"internalType":"uint256","name":"timelock","type":"uint256"},{"internalType":"address","name":"one","type":"address"},{"internalType":"address","name":"two","type":"address"}],"internalType":"struct QuickAccManager.QuickAccount","name":"acc","type":"tuple"},{"components":[{"internalType":"bool","name":"isBothSigned","type":"bool"},{"internalType":"bytes","name":"one","type":"bytes"},{"internalType":"bytes","name":"two","type":"bytes"}],"internalType":"struct QuickAccManager.DualSig","name":"sigs","type":"tuple"},{"components":[{"internalType":"address","name":"to","type":"address"},{"internalType":"uint256","name":"value","type":"uint256"},{"internalType":"bytes","name":"data","type":"bytes"}],"internalType":"struct Wallet.Transaction[]","name":"txns","type":"tuple[]"}],"name":"send","outputs":[],"stateMutability":"nonpayable","type":"function"},{"inputs":[{"internalType":"contract Wallet","name":"identity","type":"address"},{"components":[{"internalType":"uint256","name":"timelock","type":"uint256"},{"internalType":"address","name":"one","type":"address"},{"internalType":"address","name":"two","type":"address"}],"internalType":"struct QuickAccManager.QuickAccount","name":"acc","type":"tuple"},{"components":[{"internalType":"bytes","name":"one","type":"bytes"},{"internalType":"bytes","name":"two","type":"bytes"}],"internalType":"struct QuickAccManager.DualSigAlwaysBoth","name":"sigs","type":"tuple"},{"components":[{"internalType":"address","name":"token","type":"address"},{"internalType":"address","name":"to","type":"address"},{"internalType":"uint256","name":"amount","type":"uint256"},{"internalType":"uint256","name":"fee","type":"uint256"}],"internalType":"struct QuickAccManager.Transfer","name":"t","type":"tuple"}],"name":"sendTransfer","outputs":[],"stateMutability":"nonpayable","type":"function"},{"inputs":[{"internalType":"contract Wallet","name":"identity","type":"address"},{"components":[{"internalType":"uint256","name":"timelock","type":"uint256"},{"internalType":"address","name":"one","type":"address"},{"internalType":"address","name":"two","type":"address"}],"internalType":"struct QuickAccManager.QuickAccount","name":"acc","type":"tuple"},{"components":[{"internalType":"bytes","name":"one","type":"bytes"},{"internalType":"bytes","name":"two","type":"bytes"}],"internalType":"struct QuickAccManager.DualSigAlwaysBoth","name":"sigs","type":"tuple"},{"components":[{"internalType":"string","name":"description","type":"string"},{"internalType":"address","name":"to","type":"address"},{"internalType":"uint256","name":"value","type":"uint256"},{"internalType":"bytes","name":"data","type":"bytes"}],"internalType":"struct QuickAccManager.Txn[]","name":"txns","type":"tuple[]"}],"name":"sendTxns","outputs":[],"stateMutability":"nonpayable","type":"function"}],"evm":{"bytecode":{"linkReferences":{},"object":"60c060405234801561001057600080fd5b50466080526100ee604080518082018252600f81526e28bab4b1b5a0b1b1a6b0b730b3b2b960891b6020918201528151808301835260018152603160f81b9082015281517f8b73c3c69bb8fe3d512ecc4cf759cc79239f7b179b0ffacaa9a75d522b39400f818301527fdd6279146cd749d2a67dc5a2dd953b56d7184f1fa2451e20d6e2ce2682583fbe818401527fc89efdaa54c0f20c7adf612882df0950f5a951637e0307cdcb4c672f298b8bc660608201524660808201523060a0808301919091528351808303909101815260c0909101909252815191012090565b60a05260805160a05161291961011660003960006103f9015260006102d001526129196000f3fe608060405234801561001057600080fd5b50600436106100a35760003560e01c8063534255ff11610076578063634866891161005b578063634866891461014a5780637ecebe001461015d578063a396eeb91461017d57600080fd5b8063534255ff146101245780635ee6010b1461013757600080fd5b806303675992146100a85780631626ba7e146100db5780633644e515146101075780634b776c6d1461010f575b600080fd5b6100c86100b63660046120ac565b60016020526000908152604090205481565b6040519081526020015b60405180910390f35b6100ee6100e93660046120de565b610190565b6040516001600160e01b031990911681526020016100d2565b6100c86102cc565b61012261011d36600461223c565b61041b565b005b6101226101323660046122b9565b61094e565b610122610145366004612154565b610d19565b6101226101583660046121be565b610f30565b6100c861016b366004612050565b60006020819052908152604090205481565b61012261018b366004612314565b611585565b60008080806101a1858701876123b2565b925092509250600060405180606001604052808581526020016101c48a866118b6565b6001600160a01b031681526020016101dc8a856118b6565b6001600160a01b0390811690915260408051835160208083019190915284015183168183015292015116606082015260800160408051808303601f1901815290829052805160209091012063c066a5b160e01b825230600483015291508190339063c066a5b19060240160206040518083038186803b15801561025e57600080fd5b505afa158015610272573d6000803e3d6000fd5b505050506040513d601f19601f8201168201806040525081019061029691906120c5565b14156102b05750630b135d3f60e11b93506102c592505050565b506001600160e01b031993506102c592505050565b9392505050565b60007f000000000000000000000000000000000000000000000000000000000000000046146103f65750604080518082018252600f81527f517569636b4163634d616e61676572000000000000000000000000000000000060209182015281518083018352600181527f31000000000000000000000000000000000000000000000000000000000000009082015281517f8b73c3c69bb8fe3d512ecc4cf759cc79239f7b179b0ffacaa9a75d522b39400f818301527fdd6279146cd749d2a67dc5a2dd953b56d7184f1fa2451e20d6e2ce2682583fbe818401527fc89efdaa54c0f20c7adf612882df0950f5a951637e0307cdcb4c672f298b8bc660608201524660808201523060a0808301919091528351808303909101815260c0909101909252815191012090565b507f000000000000000000000000000000000000000000000000000000000000000090565b8260405160200161042c919061276a565b60408051601f1981840301815290829052805160209091012063c066a5b160e01b8252306004830152906001600160a01b0386169063c066a5b19060240160206040518083038186803b15801561048257600080fd5b505afa158015610496573d6000803e3d6000fd5b505050506040513d601f19601f820116820180604052508101906104ba91906120c5565b146105035760405162461bcd60e51b81526020600482015260146024820152732ba927a723afa0a1a1afa7a92fa727afa82924ab60611b60448201526064015b60405180910390fd5b600061050d6102cc565b7f9103d0305308ef16a11f86b9325bf83d3e3eae9b7f173af50b71d9726b2f79bc61053b6020850185612050565b61054b6040860160208701612050565b6001600160a01b0389166000908152602081905260408082208054918901359260608a0135928d92909161057e83612858565b909155506040805160208101989098526001600160a01b03968716908801529385166060870152608086019290925260a085015290911660c083015260e0820152610100016040516020818303038152906040528051906020012060405160200161060092919061190160f01b81526002810192909252602282015260420190565b60408051601f19818403018152919052805160209091012090506106628161062885806127d9565b8080601f0160208091040260200160405190810160405280939291908181526020018383808284376000920191909152506118b692505050565b6001600160a01b031661067b6040860160208701612050565b6001600160a01b0316146106bb5760405162461bcd60e51b81526020600482015260076024820152665349475f4f4e4560c81b60448201526064016104fa565b6106cc8161062860208601866127d9565b6001600160a01b03166106e56060860160408701612050565b6001600160a01b0316146107255760405162461bcd60e51b81526020600482015260076024820152665349475f54574f60c81b60448201526064016104fa565b60408051600280825260608201909252600091816020015b6040805160608082018352600080835260208301529181019190915281526020019060019003908161073d57905050905061077b6020840184612050565b8160008151811061078e5761078e61289f565b6020908102919091018101516001600160a01b0390921690915263a9059cbb60e01b906107c19060408601908601612050565b604080516001600160a01b0390921660248301528501356044820152606401604051602081830303815290604052906001600160e01b0319166020820180516001600160e01b038381831617835250505050816000815181106108265761082661289f565b6020026020010151604001819052508260000160208101906108489190612050565b8160018151811061085b5761085b61289f565b60209081029190910101516001600160a01b039190911690526040513360248201526060840135604482015263a9059cbb60e01b90606401604051602081830303815290604052906001600160e01b0319166020820180516001600160e01b038381831617835250505050816001815181106108d9576108d961289f565b602002602001015160400181905250856001600160a01b031663abc5345e826040518263ffffffff1660e01b81526004016109149190612610565b600060405180830381600087803b15801561092e57600080fd5b505af1158015610942573d6000803e3d6000fd5b50505050505050505050565b600084604051602001610961919061276a565b60408051601f1981840301815290829052805160209091012063c066a5b160e01b8252306004830152915081906001600160a01b0388169063c066a5b19060240160206040518083038186803b1580156109ba57600080fd5b505afa1580156109ce573d6000803e3d6000fd5b505050506040513d601f19601f820116820180604052508101906109f291906120c5565b14610a365760405162461bcd60e51b81526020600482015260146024820152732ba927a723afa0a1a1afa7a92fa727afa82924ab60611b60448201526064016104fa565b6001600160a01b038616600090815260208190526040812080549082610a5b83612858565b909155509050600030468985858989610a7760208e018e61208a565b604051602001610a8e98979695949392919061259e565b60408051601f1981840301815291905280516020918201209150610ab49087018761208a565b15610bf257610aca8161062860208901896127d9565b6001600160a01b0316610ae36040890160208a01612050565b6001600160a01b031614610b235760405162461bcd60e51b81526020600482015260076024820152665349475f4f4e4560c81b60448201526064016104fa565b610b348161062860408901896127d9565b6001600160a01b0316610b4d6060890160408a01612050565b6001600160a01b031614610b8d5760405162461bcd60e51b81526020600482015260076024820152665349475f54574f60c81b60448201526064016104fa565b6040516355e29a2f60e11b81526001600160a01b0389169063abc5345e90610bbb90889088906004016125f4565b600060405180830381600087803b158015610bd557600080fd5b505af1158015610be9573d6000803e3d6000fd5b50505050610d0f565b6000610c058261062860208a018a6127d9565b90506001600160a01b038116610c2160408a0160208b01612050565b6001600160a01b03161480610c5657506001600160a01b038116610c4b60608a0160408b01612050565b6001600160a01b0316145b610ca25760405162461bcd60e51b815260206004820152600360248201527f534947000000000000000000000000000000000000000000000000000000000060448201526064016104fa565b610cad883542612840565b6001600084815260200190815260200160002081905550806001600160a01b031684837fcee85821b11d2e8cef8d7a7bc1a4143b692460ff226964dcca97c6c92399f95b86428b8b604051610d0594939291906127af565b60405180910390a4505b5050505050505050565b60405163c066a5b160e01b815230600482015284906001600160a01b0387169063c066a5b19060240160206040518083038186803b158015610d5a57600080fd5b505afa158015610d6e573d6000803e3d6000fd5b505050506040513d601f19601f82011682018060405250810190610d9291906120c5565b14610dd65760405162461bcd60e51b81526020600482015260146024820152732ba927a723afa0a1a1afa7a92fa727afa82924ab60611b60448201526064016104fa565b6000304687878787876000604051602001610df898979695949392919061259e565b60408051601f198184030181529181528151602092830120600081815260019093529120549091508015801590610e2f5750804210155b610e7b5760405162461bcd60e51b815260206004820152600860248201527f4e4f545f54494d4500000000000000000000000000000000000000000000000060448201526064016104fa565b60008281526001602052604080822091909155516355e29a2f60e11b81526001600160a01b0388169063abc5345e90610eba90879087906004016125f4565b600060405180830381600087803b158015610ed457600080fd5b505af1158015610ee8573d6000803e3d6000fd5b5050505085827fdedaa4afdb5fdfa3ae5d58bb0f5b01a38b6766dc750c29f828808e27e9f8963842604051610f1f91815260200190565b60405180910390a350505050505050565b83604051602001610f41919061276a565b60408051601f1981840301815290829052805160209091012063c066a5b160e01b8252306004830152906001600160a01b0387169063c066a5b19060240160206040518083038186803b158015610f9757600080fd5b505afa158015610fab573d6000803e3d6000fd5b505050506040513d601f19601f82011682018060405250810190610fcf91906120c5565b146110135760405162461bcd60e51b81526020600482015260146024820152732ba927a723afa0a1a1afa7a92fa727afa82924ab60611b60448201526064016104fa565b60008167ffffffffffffffff81111561102e5761102e6128b5565b604051908082528060200260200182016040528015611057578160200160208202803683370190505b50905060008267ffffffffffffffff811115611075576110756128b5565b6040519080825280602002602001820160405280156110c257816020015b604080516060808201835260008083526020830152918101919091528152602001906001900390816110935790505b5090508260005b8181101561133e577f61a0bfaa737731097664cd97af196222d6cd62fa2d4cd73a3a4629d1468037c78686838181106111045761110461289f565b90506020028101906111169190612820565b61112090806127d9565b8888858181106111325761113261289f565b90506020028101906111449190612820565b611155906040810190602001612050565b8989868181106111675761116761289f565b90506020028101906111799190612820565b604001358a8a8781811061118f5761118f61289f565b90506020028101906111a19190612820565b6111af9060608101906127d9565b6040516020016111c597969594939291906126b1565b604051602081830303815290604052805190602001208482815181106111ed576111ed61289f565b60200260200101818152505085858281811061120b5761120b61289f565b905060200281019061121d9190612820565b61122e906040810190602001612050565b8382815181106112405761124061289f565b60209081029190910101516001600160a01b03909116905285858281811061126a5761126a61289f565b905060200281019061127c9190612820565b604001358382815181106112925761129261289f565b602002602001015160200181815250508585828181106112b4576112b461289f565b90506020028101906112c69190612820565b6112d49060608101906127d9565b8080601f016020809104026020016040519081016040528093929190818152602001838380828437600092019190915250508551869250849150811061131c5761131c61289f565b602002602001015160400181905250808061133690612858565b9150506110c9565b506000836040516020016113529190612568565b60405160208183030381529060405280519060200120905060006113746102cc565b6001600160a01b038b16600090815260208190526040812080547fe6b0783dbabe951529a13330614abf47fbe8d357b2858869312a7cec354cba04928e92906113bc83612858565b91905055856040516020016113f394939291909384526001600160a01b039290921660208401526040830152606082015260800190565b6040516020818303038152906040528051906020012060405160200161143092919061190160f01b81526002810192909252602282015260420190565b60408051601f1981840301815291905280516020909101209050611458816106288a806127d9565b6001600160a01b031661147160408b0160208c01612050565b6001600160a01b0316146114b15760405162461bcd60e51b81526020600482015260076024820152665349475f4f4e4560c81b60448201526064016104fa565b6114c28161062860208b018b6127d9565b6001600160a01b03166114db60608b0160408c01612050565b6001600160a01b03161461151b5760405162461bcd60e51b81526020600482015260076024820152665349475f54574f60c81b60448201526064016104fa565b6040516355e29a2f60e11b81526001600160a01b038b169063abc5345e90611547908790600401612610565b600060405180830381600087803b15801561156157600080fd5b505af1158015611575573d6000803e3d6000fd5b5050505050505050505050505050565b600086604051602001611598919061276a565b60408051601f1981840301815290829052805160209091012063c066a5b160e01b8252306004830152915081906001600160a01b038a169063c066a5b19060240160206040518083038186803b1580156115f157600080fd5b505afa158015611605573d6000803e3d6000fd5b505050506040513d601f19601f8201168201806040525081019061162991906120c5565b1461166d5760405162461bcd60e51b81526020600482015260146024820152732ba927a723afa0a1a1afa7a92fa727afa82924ab60611b60448201526064016104fa565b6040516000906116b1907fc47c31000000000000000000000000000000000000000000000000000000000090309046908d9087908d908b908b908a90602001612701565b604051602081830303815290604052805190602001209050600061170b8288888080601f0160208091040260200160405190810160405280939291908181526020018383808284376000920191909152506118b692505050565b905061171d60408a0160208b01612050565b6001600160a01b0316816001600160a01b0316148061175c575061174760608a0160408b01612050565b6001600160a01b0316816001600160a01b0316145b6117a85760405162461bcd60e51b815260206004820152601160248201527f494e56414c49445f5349474e415455524500000000000000000000000000000060448201526064016104fa565b600030468c868c8a8a60006040516020016117ca98979695949392919061259e565b60408051601f19818403018152918152815160209283012060008181526001909352912054909150801580159061180057508042105b61184c5760405162461bcd60e51b815260206004820152600860248201527f544f4f5f4c41544500000000000000000000000000000000000000000000000060448201526064016104fa565b6001600083815260200190815260200160002060009055826001600160a01b031685837fd9c10d884d0d236030e76a4d486ed75e9557f5fddb152fffa5132a761267b3ef426040516118a091815260200190565b60405180910390a4505050505050505050505050565b60006102c583836000806001835110156119125760405162461bcd60e51b815260206004820152600960248201527f53565f5349474c454e000000000000000000000000000000000000000000000060448201526064016104fa565b60008360018551038151811061192a5761192a61289f565b016020015160f81c9050600481106119845760405162461bcd60e51b815260206004820152600a60248201527f53565f5349474d4f44450000000000000000000000000000000000000000000060448201526064016104fa565b60008160ff16600481111561199b5761199b612889565b905060008160048111156119b1576119b1612889565b14806119ce575060018160048111156119cc576119cc612889565b145b15611be8578451604214611a245760405162461bcd60e51b815260206004820152600660248201527f53565f4c454e000000000000000000000000000000000000000000000000000060448201526064016104fa565b6000611a308682611e51565b90506000611a3f876020611e51565b9050600087604081518110611a5657611a5661289f565b016020015160f81c9050601b811480611a7257508060ff16601c145b611abe5760405162461bcd60e51b815260206004820152600c60248201527f53565f494e56414c49445f56000000000000000000000000000000000000000060448201526064016104fa565b6001846004811115611ad257611ad2612889565b1415611b24576040517f19457468657265756d205369676e6564204d6573736167653a0a3332000000006020820152603c81018a9052605c016040516020818303038152906040528051906020012098505b604080516000808252602082018084528c905260ff841692820192909252606081018590526080810184905260019060a0016020604051602081039080840390855afa158015611b78573d6000803e3d6000fd5b5050604051601f1901519150506001600160a01b038116611bdb5760405162461bcd60e51b815260206004820152600b60248201527f53565f5a45524f5f53494700000000000000000000000000000000000000000060448201526064016104fa565b95506102c5945050505050565b6002816004811115611bfc57611bfc612889565b1415611d59576021855111611c535760405162461bcd60e51b815260206004820152600d60248201527f53565f4c454e5f57414c4c45540000000000000000000000000000000000000060448201526064016104fa565b8451602019016000611c658783611e51565b9050611c718783611eb7565b604051630b135d3f60e11b81526001600160a01b03821690631626ba7e90611c9f908b908b90600401612698565b60206040518083038186803b158015611cb757600080fd5b505afa158015611ccb573d6000803e3d6000fd5b505050506040513d601f19601f82011682018060405250810190611cef919061212a565b6001600160e01b031916630b135d3f60e11b14611d4e5760405162461bcd60e51b815260206004820152601160248201527f53565f57414c4c45545f494e56414c494400000000000000000000000000000060448201526064016104fa565b93506102c592505050565b6003816004811115611d6d57611d6d612889565b148015611d775750835b15611e455732600114611dcc5760405162461bcd60e51b815260206004820152600f60248201527f53565f53504f4f465f4f524947494e000000000000000000000000000000000060448201526064016104fa565b8451602114611e1d5760405162461bcd60e51b815260206004820152600c60248201527f53565f53504f4f465f4c454e000000000000000000000000000000000000000060448201526064016104fa565b611e28856020611eb7565b84806020019051810190611e3c919061206d565b925050506102c5565b50600095945050505050565b6000611e5e602083612840565b91508183511015611eb15760405162461bcd60e51b815260206004820152601060248201527f42797465734c69623a206c656e6774680000000000000000000000000000000060448201526064016104fa565b50015190565b80825111611f075760405162461bcd60e51b815260206004820152601860248201527f42797465734c69623a206f6e6c7920736872696e6b696e67000000000000000060448201526064016104fa565b9052565b60008083601f840112611f1d57600080fd5b50813567ffffffffffffffff811115611f3557600080fd5b6020830191508360208260051b8501011115611f5057600080fd5b9250929050565b60008083601f840112611f6957600080fd5b50813567ffffffffffffffff811115611f8157600080fd5b602083019150836020828501011115611f5057600080fd5b600082601f830112611faa57600080fd5b813567ffffffffffffffff80821115611fc557611fc56128b5565b604051601f8301601f19908116603f01168101908282118183101715611fed57611fed6128b5565b8160405283815286602085880101111561200657600080fd5b836020870160208301376000602085830101528094505050505092915050565b60006040828403121561203857600080fd5b50919050565b60006060828403121561203857600080fd5b60006020828403121561206257600080fd5b81356102c5816128cb565b60006020828403121561207f57600080fd5b81516102c5816128cb565b60006020828403121561209c57600080fd5b813580151581146102c557600080fd5b6000602082840312156120be57600080fd5b5035919050565b6000602082840312156120d757600080fd5b5051919050565b6000806000604084860312156120f357600080fd5b83359250602084013567ffffffffffffffff81111561211157600080fd5b61211d86828701611f57565b9497909650939450505050565b60006020828403121561213c57600080fd5b81516001600160e01b0319811681146102c557600080fd5b60008060008060006080868803121561216c57600080fd5b8535612177816128cb565b94506020860135935060408601359250606086013567ffffffffffffffff8111156121a157600080fd5b6121ad88828901611f0b565b969995985093965092949392505050565b600080600080600060c086880312156121d657600080fd5b85356121e1816128cb565b94506121f0876020880161203e565b9350608086013567ffffffffffffffff8082111561220d57600080fd5b61221989838a01612026565b945060a088013591508082111561222f57600080fd5b506121ad88828901611f0b565b60008060008084860361012081121561225457600080fd5b853561225f816128cb565b945061226e876020880161203e565b9350608086013567ffffffffffffffff81111561228a57600080fd5b61229688828901612026565b9350506080609f19820112156122ab57600080fd5b5092959194509260a0019150565b600080600080600060c086880312156122d157600080fd5b85356122dc816128cb565b94506122eb876020880161203e565b9350608086013567ffffffffffffffff8082111561230857600080fd5b61221989838a0161203e565b600080600080600080600060e0888a03121561232f57600080fd5b873561233a816128cb565b96506123498960208a0161203e565b95506080880135945060a088013567ffffffffffffffff8082111561236d57600080fd5b6123798b838c01611f57565b909650945060c08a013591508082111561239257600080fd5b5061239f8a828b01611f0b565b989b979a50959850939692959293505050565b6000806000606084860312156123c757600080fd5b83359250602084013567ffffffffffffffff808211156123e657600080fd5b6123f287838801611f99565b9350604086013591508082111561240857600080fd5b5061241586828701611f99565b9150509250925092565b818352600060208085019450848460051b86018460005b878110156124e55783830389528135605e1988360301811261245757600080fd5b870160608135612466816128cb565b6001600160a01b03168552818701358786015260408083013536849003601e1901811261249257600080fd5b8301803567ffffffffffffffff8111156124ab57600080fd5b8036038513156124ba57600080fd5b83838901526124ce848901828c85016124f2565b9d8a019d9750505093870193505050600101612436565b5090979650505050505050565b81835281816020850137506000828201602090810191909152601f909101601f19169091010190565b6000815180845260005b8181101561254157602081850181015186830182015201612525565b81811115612553576000602083870101525b50601f01601f19169290920160200192915050565b815160009082906020808601845b8381101561259257815185529382019390820190600101612576565b50929695505050505050565b60006001600160a01b03808b16835289602084015280891660408401525086606083015285608083015260e060a08301526125dd60e08301858761241f565b905082151560c08301529998505050505050505050565b60208152600061260860208301848661241f565b949350505050565b60006020808301818452808551808352604092508286019150828160051b87010184880160005b8381101561268a57888303603f19018552815180516001600160a01b03168452878101518885015286015160608785018190526126768186018361251b565b968901969450505090860190600101612637565b509098975050505050505050565b828152604060208201526000612608604083018461251b565b87815260a0602082015260006126cb60a08301888a6124f2565b6001600160a01b038716604084015285606084015282810360808401526126f38185876124f2565b9a9950505050505050505050565b60006101006001600160e01b03198c1683526001600160a01b03808c1660208501528a6040850152808a166060850152508760808401528660a08401528060c0840152612751818401868861241f565b91505082151560e08301529a9950505050505050505050565b81358152606081016020830135612780816128cb565b6001600160a01b03908116602084015260408401359061279f826128cb565b8082166040850152505092915050565b8481528360208201526060604082015260006127cf60608301848661241f565b9695505050505050565b6000808335601e198436030181126127f057600080fd5b83018035915067ffffffffffffffff82111561280b57600080fd5b602001915036819003821315611f5057600080fd5b60008235607e1983360301811261283657600080fd5b9190910192915050565b6000821982111561285357612853612873565b500190565b600060001982141561286c5761286c612873565b5060010190565b634e487b7160e01b600052601160045260246000fd5b634e487b7160e01b600052602160045260246000fd5b634e487b7160e01b600052603260045260246000fd5b634e487b7160e01b600052604160045260246000fd5b6001600160a01b03811681146128e057600080fd5b5056fea264697066735822122080e524c79a404970545d75cfc6a073d7e0baaa98fceb5495a68ccaecce01109a64736f6c63430008070033","opcodes":"PUSH1 0xC0 PUSH1 0x40 MSTORE CALLVALUE DUP1 ISZERO PUSH2 0x10 JUMPI PUSH1 0x0 DUP1 REVERT JUMPDEST POP CHAINID PUSH1 0x80 MSTORE PUSH2 0xEE PUSH1 0x40 DUP1 MLOAD DUP1 DUP3 ADD DUP3 MSTORE PUSH1 0xF DUP2 MSTORE PUSH15 0x28BAB4B1B5A0B1B1A6B0B730B3B2B9 PUSH1 0x89 SHL PUSH1 0x20 SWAP2 DUP3 ADD MSTORE DUP2 MLOAD DUP1 DUP4 ADD DUP4 MSTORE PUSH1 0x1 DUP2 MSTORE PUSH1 0x31 PUSH1 0xF8 SHL SWAP1 DUP3 ADD MSTORE DUP2 MLOAD PUSH32 0x8B73C3C69BB8FE3D512ECC4CF759CC79239F7B179B0FFACAA9A75D522B39400F DUP2 DUP4 ADD MSTORE PUSH32 0xDD6279146CD749D2A67DC5A2DD953B56D7184F1FA2451E20D6E2CE2682583FBE DUP2 DUP5 ADD MSTORE PUSH32 0xC89EFDAA54C0F20C7ADF612882DF0950F5A951637E0307CDCB4C672F298B8BC6 PUSH1 0x60 DUP3 ADD MSTORE CHAINID PUSH1 0x80 DUP3 ADD MSTORE ADDRESS PUSH1 0xA0 DUP1 DUP4 ADD SWAP2 SWAP1 SWAP2 MSTORE DUP4 MLOAD DUP1 DUP4 SUB SWAP1 SWAP2 ADD DUP2 MSTORE PUSH1 0xC0 SWAP1 SWAP2 ADD SWAP1 SWAP3 MSTORE DUP2 MLOAD SWAP2 ADD KECCAK256 SWAP1 JUMP JUMPDEST PUSH1 0xA0 MSTORE PUSH1 0x80 MLOAD PUSH1 0xA0 MLOAD PUSH2 0x2919 PUSH2 0x116 PUSH1 0x0 CODECOPY PUSH1 0x0 PUSH2 0x3F9 ADD MSTORE PUSH1 0x0 PUSH2 0x2D0 ADD MSTORE PUSH2 0x2919 PUSH1 0x0 RETURN INVALID PUSH1 0x80 PUSH1 0x40 MSTORE CALLVALUE DUP1 ISZERO PUSH2 0x10 JUMPI PUSH1 0x0 DUP1 REVERT JUMPDEST POP PUSH1 0x4 CALLDATASIZE LT PUSH2 0xA3 JUMPI PUSH1 0x0 CALLDATALOAD PUSH1 0xE0 SHR DUP1 PUSH4 0x534255FF GT PUSH2 0x76 JUMPI DUP1 PUSH4 0x63486689 GT PUSH2 0x5B JUMPI DUP1 PUSH4 0x63486689 EQ PUSH2 0x14A JUMPI DUP1 PUSH4 0x7ECEBE00 EQ PUSH2 0x15D JUMPI DUP1 PUSH4 0xA396EEB9 EQ PUSH2 0x17D JUMPI PUSH1 0x0 DUP1 REVERT JUMPDEST DUP1 PUSH4 0x534255FF EQ PUSH2 0x124 JUMPI DUP1 PUSH4 0x5EE6010B EQ PUSH2 0x137 JUMPI PUSH1 0x0 DUP1 REVERT JUMPDEST DUP1 PUSH4 0x3675992 EQ PUSH2 0xA8 JUMPI DUP1 PUSH4 0x1626BA7E EQ PUSH2 0xDB JUMPI DUP1 PUSH4 0x3644E515 EQ PUSH2 0x107 JUMPI DUP1 PUSH4 0x4B776C6D EQ PUSH2 0x10F JUMPI JUMPDEST PUSH1 0x0 DUP1 REVERT JUMPDEST PUSH2 0xC8 PUSH2 0xB6 CALLDATASIZE PUSH1 0x4 PUSH2 0x20AC JUMP JUMPDEST PUSH1 0x1 PUSH1 0x20 MSTORE PUSH1 0x0 SWAP1 DUP2 MSTORE PUSH1 0x40 SWAP1 KECCAK256 SLOAD DUP2 JUMP JUMPDEST PUSH1 0x40 MLOAD SWAP1 DUP2 MSTORE PUSH1 0x20 ADD JUMPDEST PUSH1 0x40 MLOAD DUP1 SWAP2 SUB SWAP1 RETURN JUMPDEST PUSH2 0xEE PUSH2 0xE9 CALLDATASIZE PUSH1 0x4 PUSH2 0x20DE JUMP JUMPDEST PUSH2 0x190 JUMP JUMPDEST PUSH1 0x40 MLOAD PUSH1 0x1 PUSH1 0x1 PUSH1 0xE0 SHL SUB NOT SWAP1 SWAP2 AND DUP2 MSTORE PUSH1 0x20 ADD PUSH2 0xD2 JUMP JUMPDEST PUSH2 0xC8 PUSH2 0x2CC JUMP JUMPDEST PUSH2 0x122 PUSH2 0x11D CALLDATASIZE PUSH1 0x4 PUSH2 0x223C JUMP JUMPDEST PUSH2 0x41B JUMP JUMPDEST STOP JUMPDEST PUSH2 0x122 PUSH2 0x132 CALLDATASIZE PUSH1 0x4 PUSH2 0x22B9 JUMP JUMPDEST PUSH2 0x94E JUMP JUMPDEST PUSH2 0x122 PUSH2 0x145 CALLDATASIZE PUSH1 0x4 PUSH2 0x2154 JUMP JUMPDEST PUSH2 0xD19 JUMP JUMPDEST PUSH2 0x122 PUSH2 0x158 CALLDATASIZE PUSH1 0x4 PUSH2 0x21BE JUMP JUMPDEST PUSH2 0xF30 JUMP JUMPDEST PUSH2 0xC8 PUSH2 0x16B CALLDATASIZE PUSH1 0x4 PUSH2 0x2050 JUMP JUMPDEST PUSH1 0x0 PUSH1 0x20 DUP2 SWAP1 MSTORE SWAP1 DUP2 MSTORE PUSH1 0x40 SWAP1 KECCAK256 SLOAD DUP2 JUMP JUMPDEST PUSH2 0x122 PUSH2 0x18B CALLDATASIZE PUSH1 0x4 PUSH2 0x2314 JUMP JUMPDEST PUSH2 0x1585 JUMP JUMPDEST PUSH1 0x0 DUP1 DUP1 DUP1 PUSH2 0x1A1 DUP6 DUP8 ADD DUP8 PUSH2 0x23B2 JUMP JUMPDEST SWAP3 POP SWAP3 POP SWAP3 POP PUSH1 0x0 PUSH1 0x40 MLOAD DUP1 PUSH1 0x60 ADD PUSH1 0x40 MSTORE DUP1 DUP6 DUP2 MSTORE PUSH1 0x20 ADD PUSH2 0x1C4 DUP11 DUP7 PUSH2 0x18B6 JUMP JUMPDEST PUSH1 0x1 PUSH1 0x1 PUSH1 0xA0 SHL SUB AND DUP2 MSTORE PUSH1 0x20 ADD PUSH2 0x1DC DUP11 DUP6 PUSH2 0x18B6 JUMP JUMPDEST PUSH1 0x1 PUSH1 0x1 PUSH1 0xA0 SHL SUB SWAP1 DUP2 AND SWAP1 SWAP2 MSTORE PUSH1 0x40 DUP1 MLOAD DUP4 MLOAD PUSH1 0x20 DUP1 DUP4 ADD SWAP2 SWAP1 SWAP2 MSTORE DUP5 ADD MLOAD DUP4 AND DUP2 DUP4 ADD MSTORE SWAP3 ADD MLOAD AND PUSH1 0x60 DUP3 ADD MSTORE PUSH1 0x80 ADD PUSH1 0x40 DUP1 MLOAD DUP1 DUP4 SUB PUSH1 0x1F NOT ADD DUP2 MSTORE SWAP1 DUP3 SWAP1 MSTORE DUP1 MLOAD PUSH1 0x20 SWAP1 SWAP2 ADD KECCAK256 PUSH4 0xC066A5B1 PUSH1 0xE0 SHL DUP3 MSTORE ADDRESS PUSH1 0x4 DUP4 ADD MSTORE SWAP2 POP DUP2 SWAP1 CALLER SWAP1 PUSH4 0xC066A5B1 SWAP1 PUSH1 0x24 ADD PUSH1 0x20 PUSH1 0x40 MLOAD DUP1 DUP4 SUB DUP2 DUP7 DUP1 EXTCODESIZE ISZERO DUP1 ISZERO PUSH2 0x25E JUMPI PUSH1 0x0 DUP1 REVERT JUMPDEST POP GAS STATICCALL ISZERO DUP1 ISZERO PUSH2 0x272 JUMPI RETURNDATASIZE PUSH1 0x0 DUP1 RETURNDATACOPY RETURNDATASIZE PUSH1 0x0 REVERT JUMPDEST POP POP POP POP PUSH1 0x40 MLOAD RETURNDATASIZE PUSH1 0x1F NOT PUSH1 0x1F DUP3 ADD AND DUP3 ADD DUP1 PUSH1 0x40 MSTORE POP DUP2 ADD SWAP1 PUSH2 0x296 SWAP2 SWAP1 PUSH2 0x20C5 JUMP JUMPDEST EQ ISZERO PUSH2 0x2B0 JUMPI POP PUSH4 0xB135D3F PUSH1 0xE1 SHL SWAP4 POP PUSH2 0x2C5 SWAP3 POP POP POP JUMP JUMPDEST POP PUSH1 0x1 PUSH1 0x1 PUSH1 0xE0 SHL SUB NOT SWAP4 POP PUSH2 0x2C5 SWAP3 POP POP POP JUMP JUMPDEST SWAP4 SWAP3 POP POP POP JUMP JUMPDEST PUSH1 0x0 PUSH32 0x0 CHAINID EQ PUSH2 0x3F6 JUMPI POP PUSH1 0x40 DUP1 MLOAD DUP1 DUP3 ADD DUP3 MSTORE PUSH1 0xF DUP2 MSTORE PUSH32 0x517569636B4163634D616E616765720000000000000000000000000000000000 PUSH1 0x20 SWAP2 DUP3 ADD MSTORE DUP2 MLOAD DUP1 DUP4 ADD DUP4 MSTORE PUSH1 0x1 DUP2 MSTORE PUSH32 0x3100000000000000000000000000000000000000000000000000000000000000 SWAP1 DUP3 ADD MSTORE DUP2 MLOAD PUSH32 0x8B73C3C69BB8FE3D512ECC4CF759CC79239F7B179B0FFACAA9A75D522B39400F DUP2 DUP4 ADD MSTORE PUSH32 0xDD6279146CD749D2A67DC5A2DD953B56D7184F1FA2451E20D6E2CE2682583FBE DUP2 DUP5 ADD MSTORE PUSH32 0xC89EFDAA54C0F20C7ADF612882DF0950F5A951637E0307CDCB4C672F298B8BC6 PUSH1 0x60 DUP3 ADD MSTORE CHAINID PUSH1 0x80 DUP3 ADD MSTORE ADDRESS PUSH1 0xA0 DUP1 DUP4 ADD SWAP2 SWAP1 SWAP2 MSTORE DUP4 MLOAD DUP1 DUP4 SUB SWAP1 SWAP2 ADD DUP2 MSTORE PUSH1 0xC0 SWAP1 SWAP2 ADD SWAP1 SWAP3 MSTORE DUP2 MLOAD SWAP2 ADD KECCAK256 SWAP1 JUMP JUMPDEST POP PUSH32 0x0 SWAP1 JUMP JUMPDEST DUP3 PUSH1 0x40 MLOAD PUSH1 0x20 ADD PUSH2 0x42C SWAP2 SWAP1 PUSH2 0x276A JUMP JUMPDEST PUSH1 0x40 DUP1 MLOAD PUSH1 0x1F NOT DUP2 DUP5 SUB ADD DUP2 MSTORE SWAP1 DUP3 SWAP1 MSTORE DUP1 MLOAD PUSH1 0x20 SWAP1 SWAP2 ADD KECCAK256 PUSH4 0xC066A5B1 PUSH1 0xE0 SHL DUP3 MSTORE ADDRESS PUSH1 0x4 DUP4 ADD MSTORE SWAP1 PUSH1 0x1 PUSH1 0x1 PUSH1 0xA0 SHL SUB DUP7 AND SWAP1 PUSH4 0xC066A5B1 SWAP1 PUSH1 0x24 ADD PUSH1 0x20 PUSH1 0x40 MLOAD DUP1 DUP4 SUB DUP2 DUP7 DUP1 EXTCODESIZE ISZERO DUP1 ISZERO PUSH2 0x482 JUMPI PUSH1 0x0 DUP1 REVERT JUMPDEST POP GAS STATICCALL ISZERO DUP1 ISZERO PUSH2 0x496 JUMPI RETURNDATASIZE PUSH1 0x0 DUP1 RETURNDATACOPY RETURNDATASIZE PUSH1 0x0 REVERT JUMPDEST POP POP POP POP PUSH1 0x40 MLOAD RETURNDATASIZE PUSH1 0x1F NOT PUSH1 0x1F DUP3 ADD AND DUP3 ADD DUP1 PUSH1 0x40 MSTORE POP DUP2 ADD SWAP1 PUSH2 0x4BA SWAP2 SWAP1 PUSH2 0x20C5 JUMP JUMPDEST EQ PUSH2 0x503 JUMPI PUSH1 0x40 MLOAD PUSH3 0x461BCD PUSH1 0xE5 SHL DUP2 MSTORE PUSH1 0x20 PUSH1 0x4 DUP3 ADD MSTORE PUSH1 0x14 PUSH1 0x24 DUP3 ADD MSTORE PUSH20 0x2BA927A723AFA0A1A1AFA7A92FA727AFA82924AB PUSH1 0x61 SHL PUSH1 0x44 DUP3 ADD MSTORE PUSH1 0x64 ADD JUMPDEST PUSH1 0x40 MLOAD DUP1 SWAP2 SUB SWAP1 REVERT JUMPDEST PUSH1 0x0 PUSH2 0x50D PUSH2 0x2CC JUMP JUMPDEST PUSH32 0x9103D0305308EF16A11F86B9325BF83D3E3EAE9B7F173AF50B71D9726B2F79BC PUSH2 0x53B PUSH1 0x20 DUP6 ADD DUP6 PUSH2 0x2050 JUMP JUMPDEST PUSH2 0x54B PUSH1 0x40 DUP7 ADD PUSH1 0x20 DUP8 ADD PUSH2 0x2050 JUMP JUMPDEST PUSH1 0x1 PUSH1 0x1 PUSH1 0xA0 SHL SUB DUP10 AND PUSH1 0x0 SWAP1 DUP2 MSTORE PUSH1 0x20 DUP2 SWAP1 MSTORE PUSH1 0x40 DUP1 DUP3 KECCAK256 DUP1 SLOAD SWAP2 DUP10 ADD CALLDATALOAD SWAP3 PUSH1 0x60 DUP11 ADD CALLDATALOAD SWAP3 DUP14 SWAP3 SWAP1 SWAP2 PUSH2 0x57E DUP4 PUSH2 0x2858 JUMP JUMPDEST SWAP1 SWAP2 SSTORE POP PUSH1 0x40 DUP1 MLOAD PUSH1 0x20 DUP2 ADD SWAP9 SWAP1 SWAP9 MSTORE PUSH1 0x1 PUSH1 0x1 PUSH1 0xA0 SHL SUB SWAP7 DUP8 AND SWAP1 DUP9 ADD MSTORE SWAP4 DUP6 AND PUSH1 0x60 DUP8 ADD MSTORE PUSH1 0x80 DUP7 ADD SWAP3 SWAP1 SWAP3 MSTORE PUSH1 0xA0 DUP6 ADD MSTORE SWAP1 SWAP2 AND PUSH1 0xC0 DUP4 ADD MSTORE PUSH1 0xE0 DUP3 ADD MSTORE PUSH2 0x100 ADD PUSH1 0x40 MLOAD PUSH1 0x20 DUP2 DUP4 SUB SUB DUP2 MSTORE SWAP1 PUSH1 0x40 MSTORE DUP1 MLOAD SWAP1 PUSH1 0x20 ADD KECCAK256 PUSH1 0x40 MLOAD PUSH1 0x20 ADD PUSH2 0x600 SWAP3 SWAP2 SWAP1 PUSH2 0x1901 PUSH1 0xF0 SHL DUP2 MSTORE PUSH1 0x2 DUP2 ADD SWAP3 SWAP1 SWAP3 MSTORE PUSH1 0x22 DUP3 ADD MSTORE PUSH1 0x42 ADD SWAP1 JUMP JUMPDEST PUSH1 0x40 DUP1 MLOAD PUSH1 0x1F NOT DUP2 DUP5 SUB ADD DUP2 MSTORE SWAP2 SWAP1 MSTORE DUP1 MLOAD PUSH1 0x20 SWAP1 SWAP2 ADD KECCAK256 SWAP1 POP PUSH2 0x662 DUP2 PUSH2 0x628 DUP6 DUP1 PUSH2 0x27D9 JUMP JUMPDEST DUP1 DUP1 PUSH1 0x1F ADD PUSH1 0x20 DUP1 SWAP2 DIV MUL PUSH1 0x20 ADD PUSH1 0x40 MLOAD SWAP1 DUP2 ADD PUSH1 0x40 MSTORE DUP1 SWAP4 SWAP3 SWAP2 SWAP1 DUP2 DUP2 MSTORE PUSH1 0x20 ADD DUP4 DUP4 DUP1 DUP3 DUP5 CALLDATACOPY PUSH1 0x0 SWAP3 ADD SWAP2 SWAP1 SWAP2 MSTORE POP PUSH2 0x18B6 SWAP3 POP POP POP JUMP JUMPDEST PUSH1 0x1 PUSH1 0x1 PUSH1 0xA0 SHL SUB AND PUSH2 0x67B PUSH1 0x40 DUP7 ADD PUSH1 0x20 DUP8 ADD PUSH2 0x2050 JUMP JUMPDEST PUSH1 0x1 PUSH1 0x1 PUSH1 0xA0 SHL SUB AND EQ PUSH2 0x6BB JUMPI PUSH1 0x40 MLOAD PUSH3 0x461BCD PUSH1 0xE5 SHL DUP2 MSTORE PUSH1 0x20 PUSH1 0x4 DUP3 ADD MSTORE PUSH1 0x7 PUSH1 0x24 DUP3 ADD MSTORE PUSH7 0x5349475F4F4E45 PUSH1 0xC8 SHL PUSH1 0x44 DUP3 ADD MSTORE PUSH1 0x64 ADD PUSH2 0x4FA JUMP JUMPDEST PUSH2 0x6CC DUP2 PUSH2 0x628 PUSH1 0x20 DUP7 ADD DUP7 PUSH2 0x27D9 JUMP JUMPDEST PUSH1 0x1 PUSH1 0x1 PUSH1 0xA0 SHL SUB AND PUSH2 0x6E5 PUSH1 0x60 DUP7 ADD PUSH1 0x40 DUP8 ADD PUSH2 0x2050 JUMP JUMPDEST PUSH1 0x1 PUSH1 0x1 PUSH1 0xA0 SHL SUB AND EQ PUSH2 0x725 JUMPI PUSH1 0x40 MLOAD PUSH3 0x461BCD PUSH1 0xE5 SHL DUP2 MSTORE PUSH1 0x20 PUSH1 0x4 DUP3 ADD MSTORE PUSH1 0x7 PUSH1 0x24 DUP3 ADD MSTORE PUSH7 0x5349475F54574F PUSH1 0xC8 SHL PUSH1 0x44 DUP3 ADD MSTORE PUSH1 0x64 ADD PUSH2 0x4FA JUMP JUMPDEST PUSH1 0x40 DUP1 MLOAD PUSH1 0x2 DUP1 DUP3 MSTORE PUSH1 0x60 DUP3 ADD SWAP1 SWAP3 MSTORE PUSH1 0x0 SWAP2 DUP2 PUSH1 0x20 ADD JUMPDEST PUSH1 0x40 DUP1 MLOAD PUSH1 0x60 DUP1 DUP3 ADD DUP4 MSTORE PUSH1 0x0 DUP1 DUP4 MSTORE PUSH1 0x20 DUP4 ADD MSTORE SWAP2 DUP2 ADD SWAP2 SWAP1 SWAP2 MSTORE DUP2 MSTORE PUSH1 0x20 ADD SWAP1 PUSH1 0x1 SWAP1 SUB SWAP1 DUP2 PUSH2 0x73D JUMPI SWAP1 POP POP SWAP1 POP PUSH2 0x77B PUSH1 0x20 DUP5 ADD DUP5 PUSH2 0x2050 JUMP JUMPDEST DUP2 PUSH1 0x0 DUP2 MLOAD DUP2 LT PUSH2 0x78E JUMPI PUSH2 0x78E PUSH2 0x289F JUMP JUMPDEST PUSH1 0x20 SWAP1 DUP2 MUL SWAP2 SWAP1 SWAP2 ADD DUP2 ADD MLOAD PUSH1 0x1 PUSH1 0x1 PUSH1 0xA0 SHL SUB SWAP1 SWAP3 AND SWAP1 SWAP2 MSTORE PUSH4 0xA9059CBB PUSH1 0xE0 SHL SWAP1 PUSH2 0x7C1 SWAP1 PUSH1 0x40 DUP7 ADD SWAP1 DUP7 ADD PUSH2 0x2050 JUMP JUMPDEST PUSH1 0x40 DUP1 MLOAD PUSH1 0x1 PUSH1 0x1 PUSH1 0xA0 SHL SUB SWAP1 SWAP3 AND PUSH1 0x24 DUP4 ADD MSTORE DUP6 ADD CALLDATALOAD PUSH1 0x44 DUP3 ADD MSTORE PUSH1 0x64 ADD PUSH1 0x40 MLOAD PUSH1 0x20 DUP2 DUP4 SUB SUB DUP2 MSTORE SWAP1 PUSH1 0x40 MSTORE SWAP1 PUSH1 0x1 PUSH1 0x1 PUSH1 0xE0 SHL SUB NOT AND PUSH1 0x20 DUP3 ADD DUP1 MLOAD PUSH1 0x1 PUSH1 0x1 PUSH1 0xE0 SHL SUB DUP4 DUP2 DUP4 AND OR DUP4 MSTORE POP POP POP POP DUP2 PUSH1 0x0 DUP2 MLOAD DUP2 LT PUSH2 0x826 JUMPI PUSH2 0x826 PUSH2 0x289F JUMP JUMPDEST PUSH1 0x20 MUL PUSH1 0x20 ADD ADD MLOAD PUSH1 0x40 ADD DUP2 SWAP1 MSTORE POP DUP3 PUSH1 0x0 ADD PUSH1 0x20 DUP2 ADD SWAP1 PUSH2 0x848 SWAP2 SWAP1 PUSH2 0x2050 JUMP JUMPDEST DUP2 PUSH1 0x1 DUP2 MLOAD DUP2 LT PUSH2 0x85B JUMPI PUSH2 0x85B PUSH2 0x289F JUMP JUMPDEST PUSH1 0x20 SWAP1 DUP2 MUL SWAP2 SWAP1 SWAP2 ADD ADD MLOAD PUSH1 0x1 PUSH1 0x1 PUSH1 0xA0 SHL SUB SWAP2 SWAP1 SWAP2 AND SWAP1 MSTORE PUSH1 0x40 MLOAD CALLER PUSH1 0x24 DUP3 ADD MSTORE PUSH1 0x60 DUP5 ADD CALLDATALOAD PUSH1 0x44 DUP3 ADD MSTORE PUSH4 0xA9059CBB PUSH1 0xE0 SHL SWAP1 PUSH1 0x64 ADD PUSH1 0x40 MLOAD PUSH1 0x20 DUP2 DUP4 SUB SUB DUP2 MSTORE SWAP1 PUSH1 0x40 MSTORE SWAP1 PUSH1 0x1 PUSH1 0x1 PUSH1 0xE0 SHL SUB NOT AND PUSH1 0x20 DUP3 ADD DUP1 MLOAD PUSH1 0x1 PUSH1 0x1 PUSH1 0xE0 SHL SUB DUP4 DUP2 DUP4 AND OR DUP4 MSTORE POP POP POP POP DUP2 PUSH1 0x1 DUP2 MLOAD DUP2 LT PUSH2 0x8D9 JUMPI PUSH2 0x8D9 PUSH2 0x289F JUMP JUMPDEST PUSH1 0x20 MUL PUSH1 0x20 ADD ADD MLOAD PUSH1 0x40 ADD DUP2 SWAP1 MSTORE POP DUP6 PUSH1 0x1 PUSH1 0x1 PUSH1 0xA0 SHL SUB AND PUSH4 0xABC5345E DUP3 PUSH1 0x40 MLOAD DUP3 PUSH4 0xFFFFFFFF AND PUSH1 0xE0 SHL DUP2 MSTORE PUSH1 0x4 ADD PUSH2 0x914 SWAP2 SWAP1 PUSH2 0x2610 JUMP JUMPDEST PUSH1 0x0 PUSH1 0x40 MLOAD DUP1 DUP4 SUB DUP2 PUSH1 0x0 DUP8 DUP1 EXTCODESIZE ISZERO DUP1 ISZERO PUSH2 0x92E JUMPI PUSH1 0x0 DUP1 REVERT JUMPDEST POP GAS CALL ISZERO DUP1 ISZERO PUSH2 0x942 JUMPI RETURNDATASIZE PUSH1 0x0 DUP1 RETURNDATACOPY RETURNDATASIZE PUSH1 0x0 REVERT JUMPDEST POP POP POP POP POP POP POP POP POP POP JUMP JUMPDEST PUSH1 0x0 DUP5 PUSH1 0x40 MLOAD PUSH1 0x20 ADD PUSH2 0x961 SWAP2 SWAP1 PUSH2 0x276A JUMP JUMPDEST PUSH1 0x40 DUP1 MLOAD PUSH1 0x1F NOT DUP2 DUP5 SUB ADD DUP2 MSTORE SWAP1 DUP3 SWAP1 MSTORE DUP1 MLOAD PUSH1 0x20 SWAP1 SWAP2 ADD KECCAK256 PUSH4 0xC066A5B1 PUSH1 0xE0 SHL DUP3 MSTORE ADDRESS PUSH1 0x4 DUP4 ADD MSTORE SWAP2 POP DUP2 SWAP1 PUSH1 0x1 PUSH1 0x1 PUSH1 0xA0 SHL SUB DUP9 AND SWAP1 PUSH4 0xC066A5B1 SWAP1 PUSH1 0x24 ADD PUSH1 0x20 PUSH1 0x40 MLOAD DUP1 DUP4 SUB DUP2 DUP7 DUP1 EXTCODESIZE ISZERO DUP1 ISZERO PUSH2 0x9BA JUMPI PUSH1 0x0 DUP1 REVERT JUMPDEST POP GAS STATICCALL ISZERO DUP1 ISZERO PUSH2 0x9CE JUMPI RETURNDATASIZE PUSH1 0x0 DUP1 RETURNDATACOPY RETURNDATASIZE PUSH1 0x0 REVERT JUMPDEST POP POP POP POP PUSH1 0x40 MLOAD RETURNDATASIZE PUSH1 0x1F NOT PUSH1 0x1F DUP3 ADD AND DUP3 ADD DUP1 PUSH1 0x40 MSTORE POP DUP2 ADD SWAP1 PUSH2 0x9F2 SWAP2 SWAP1 PUSH2 0x20C5 JUMP JUMPDEST EQ PUSH2 0xA36 JUMPI PUSH1 0x40 MLOAD PUSH3 0x461BCD PUSH1 0xE5 SHL DUP2 MSTORE PUSH1 0x20 PUSH1 0x4 DUP3 ADD MSTORE PUSH1 0x14 PUSH1 0x24 DUP3 ADD MSTORE PUSH20 0x2BA927A723AFA0A1A1AFA7A92FA727AFA82924AB PUSH1 0x61 SHL PUSH1 0x44 DUP3 ADD MSTORE PUSH1 0x64 ADD PUSH2 0x4FA JUMP JUMPDEST PUSH1 0x1 PUSH1 0x1 PUSH1 0xA0 SHL SUB DUP7 AND PUSH1 0x0 SWAP1 DUP2 MSTORE PUSH1 0x20 DUP2 SWAP1 MSTORE PUSH1 0x40 DUP2 KECCAK256 DUP1 SLOAD SWAP1 DUP3 PUSH2 0xA5B DUP4 PUSH2 0x2858 JUMP JUMPDEST SWAP1 SWAP2 SSTORE POP SWAP1 POP PUSH1 0x0 ADDRESS CHAINID DUP10 DUP6 DUP6 DUP10 DUP10 PUSH2 0xA77 PUSH1 0x20 DUP15 ADD DUP15 PUSH2 0x208A JUMP JUMPDEST PUSH1 0x40 MLOAD PUSH1 0x20 ADD PUSH2 0xA8E SWAP9 SWAP8 SWAP7 SWAP6 SWAP5 SWAP4 SWAP3 SWAP2 SWAP1 PUSH2 0x259E JUMP JUMPDEST PUSH1 0x40 DUP1 MLOAD PUSH1 0x1F NOT DUP2 DUP5 SUB ADD DUP2 MSTORE SWAP2 SWAP1 MSTORE DUP1 MLOAD PUSH1 0x20 SWAP2 DUP3 ADD KECCAK256 SWAP2 POP PUSH2 0xAB4 SWAP1 DUP8 ADD DUP8 PUSH2 0x208A JUMP JUMPDEST ISZERO PUSH2 0xBF2 JUMPI PUSH2 0xACA DUP2 PUSH2 0x628 PUSH1 0x20 DUP10 ADD DUP10 PUSH2 0x27D9 JUMP JUMPDEST PUSH1 0x1 PUSH1 0x1 PUSH1 0xA0 SHL SUB AND PUSH2 0xAE3 PUSH1 0x40 DUP10 ADD PUSH1 0x20 DUP11 ADD PUSH2 0x2050 JUMP JUMPDEST PUSH1 0x1 PUSH1 0x1 PUSH1 0xA0 SHL SUB AND EQ PUSH2 0xB23 JUMPI PUSH1 0x40 MLOAD PUSH3 0x461BCD PUSH1 0xE5 SHL DUP2 MSTORE PUSH1 0x20 PUSH1 0x4 DUP3 ADD MSTORE PUSH1 0x7 PUSH1 0x24 DUP3 ADD MSTORE PUSH7 0x5349475F4F4E45 PUSH1 0xC8 SHL PUSH1 0x44 DUP3 ADD MSTORE PUSH1 0x64 ADD PUSH2 0x4FA JUMP JUMPDEST PUSH2 0xB34 DUP2 PUSH2 0x628 PUSH1 0x40 DUP10 ADD DUP10 PUSH2 0x27D9 JUMP JUMPDEST PUSH1 0x1 PUSH1 0x1 PUSH1 0xA0 SHL SUB AND PUSH2 0xB4D PUSH1 0x60 DUP10 ADD PUSH1 0x40 DUP11 ADD PUSH2 0x2050 JUMP JUMPDEST PUSH1 0x1 PUSH1 0x1 PUSH1 0xA0 SHL SUB AND EQ PUSH2 0xB8D JUMPI PUSH1 0x40 MLOAD PUSH3 0x461BCD PUSH1 0xE5 SHL DUP2 MSTORE PUSH1 0x20 PUSH1 0x4 DUP3 ADD MSTORE PUSH1 0x7 PUSH1 0x24 DUP3 ADD MSTORE PUSH7 0x5349475F54574F PUSH1 0xC8 SHL PUSH1 0x44 DUP3 ADD MSTORE PUSH1 0x64 ADD PUSH2 0x4FA JUMP JUMPDEST PUSH1 0x40 MLOAD PUSH4 0x55E29A2F PUSH1 0xE1 SHL DUP2 MSTORE PUSH1 0x1 PUSH1 0x1 PUSH1 0xA0 SHL SUB DUP10 AND SWAP1 PUSH4 0xABC5345E SWAP1 PUSH2 0xBBB SWAP1 DUP9 SWAP1 DUP9 SWAP1 PUSH1 0x4 ADD PUSH2 0x25F4 JUMP JUMPDEST PUSH1 0x0 PUSH1 0x40 MLOAD DUP1 DUP4 SUB DUP2 PUSH1 0x0 DUP8 DUP1 EXTCODESIZE ISZERO DUP1 ISZERO PUSH2 0xBD5 JUMPI PUSH1 0x0 DUP1 REVERT JUMPDEST POP GAS CALL ISZERO DUP1 ISZERO PUSH2 0xBE9 JUMPI RETURNDATASIZE PUSH1 0x0 DUP1 RETURNDATACOPY RETURNDATASIZE PUSH1 0x0 REVERT JUMPDEST POP POP POP POP PUSH2 0xD0F JUMP JUMPDEST PUSH1 0x0 PUSH2 0xC05 DUP3 PUSH2 0x628 PUSH1 0x20 DUP11 ADD DUP11 PUSH2 0x27D9 JUMP JUMPDEST SWAP1 POP PUSH1 0x1 PUSH1 0x1 PUSH1 0xA0 SHL SUB DUP2 AND PUSH2 0xC21 PUSH1 0x40 DUP11 ADD PUSH1 0x20 DUP12 ADD PUSH2 0x2050 JUMP JUMPDEST PUSH1 0x1 PUSH1 0x1 PUSH1 0xA0 SHL SUB AND EQ DUP1 PUSH2 0xC56 JUMPI POP PUSH1 0x1 PUSH1 0x1 PUSH1 0xA0 SHL SUB DUP2 AND PUSH2 0xC4B PUSH1 0x60 DUP11 ADD PUSH1 0x40 DUP12 ADD PUSH2 0x2050 JUMP JUMPDEST PUSH1 0x1 PUSH1 0x1 PUSH1 0xA0 SHL SUB AND EQ JUMPDEST PUSH2 0xCA2 JUMPI PUSH1 0x40 MLOAD PUSH3 0x461BCD PUSH1 0xE5 SHL DUP2 MSTORE PUSH1 0x20 PUSH1 0x4 DUP3 ADD MSTORE PUSH1 0x3 PUSH1 0x24 DUP3 ADD MSTORE PUSH32 0x5349470000000000000000000000000000000000000000000000000000000000 PUSH1 0x44 DUP3 ADD MSTORE PUSH1 0x64 ADD PUSH2 0x4FA JUMP JUMPDEST PUSH2 0xCAD DUP9 CALLDATALOAD TIMESTAMP PUSH2 0x2840 JUMP JUMPDEST PUSH1 0x1 PUSH1 0x0 DUP5 DUP2 MSTORE PUSH1 0x20 ADD SWAP1 DUP2 MSTORE PUSH1 0x20 ADD PUSH1 0x0 KECCAK256 DUP2 SWAP1 SSTORE POP DUP1 PUSH1 0x1 PUSH1 0x1 PUSH1 0xA0 SHL SUB AND DUP5 DUP4 PUSH32 0xCEE85821B11D2E8CEF8D7A7BC1A4143B692460FF226964DCCA97C6C92399F95B DUP7 TIMESTAMP DUP12 DUP12 PUSH1 0x40 MLOAD PUSH2 0xD05 SWAP5 SWAP4 SWAP3 SWAP2 SWAP1 PUSH2 0x27AF JUMP JUMPDEST PUSH1 0x40 MLOAD DUP1 SWAP2 SUB SWAP1 LOG4 POP JUMPDEST POP POP POP POP POP POP POP POP JUMP JUMPDEST PUSH1 0x40 MLOAD PUSH4 0xC066A5B1 PUSH1 0xE0 SHL DUP2 MSTORE ADDRESS PUSH1 0x4 DUP3 ADD MSTORE DUP5 SWAP1 PUSH1 0x1 PUSH1 0x1 PUSH1 0xA0 SHL SUB DUP8 AND SWAP1 PUSH4 0xC066A5B1 SWAP1 PUSH1 0x24 ADD PUSH1 0x20 PUSH1 0x40 MLOAD DUP1 DUP4 SUB DUP2 DUP7 DUP1 EXTCODESIZE ISZERO DUP1 ISZERO PUSH2 0xD5A JUMPI PUSH1 0x0 DUP1 REVERT JUMPDEST POP GAS STATICCALL ISZERO DUP1 ISZERO PUSH2 0xD6E JUMPI RETURNDATASIZE PUSH1 0x0 DUP1 RETURNDATACOPY RETURNDATASIZE PUSH1 0x0 REVERT JUMPDEST POP POP POP POP PUSH1 0x40 MLOAD RETURNDATASIZE PUSH1 0x1F NOT PUSH1 0x1F DUP3 ADD AND DUP3 ADD DUP1 PUSH1 0x40 MSTORE POP DUP2 ADD SWAP1 PUSH2 0xD92 SWAP2 SWAP1 PUSH2 0x20C5 JUMP JUMPDEST EQ PUSH2 0xDD6 JUMPI PUSH1 0x40 MLOAD PUSH3 0x461BCD PUSH1 0xE5 SHL DUP2 MSTORE PUSH1 0x20 PUSH1 0x4 DUP3 ADD MSTORE PUSH1 0x14 PUSH1 0x24 DUP3 ADD MSTORE PUSH20 0x2BA927A723AFA0A1A1AFA7A92FA727AFA82924AB PUSH1 0x61 SHL PUSH1 0x44 DUP3 ADD MSTORE PUSH1 0x64 ADD PUSH2 0x4FA JUMP JUMPDEST PUSH1 0x0 ADDRESS CHAINID DUP8 DUP8 DUP8 DUP8 DUP8 PUSH1 0x0 PUSH1 0x40 MLOAD PUSH1 0x20 ADD PUSH2 0xDF8 SWAP9 SWAP8 SWAP7 SWAP6 SWAP5 SWAP4 SWAP3 SWAP2 SWAP1 PUSH2 0x259E JUMP JUMPDEST PUSH1 0x40 DUP1 MLOAD PUSH1 0x1F NOT DUP2 DUP5 SUB ADD DUP2 MSTORE SWAP2 DUP2 MSTORE DUP2 MLOAD PUSH1 0x20 SWAP3 DUP4 ADD KECCAK256 PUSH1 0x0 DUP2 DUP2 MSTORE PUSH1 0x1 SWAP1 SWAP4 MSTORE SWAP2 KECCAK256 SLOAD SWAP1 SWAP2 POP DUP1 ISZERO DUP1 ISZERO SWAP1 PUSH2 0xE2F JUMPI POP DUP1 TIMESTAMP LT ISZERO JUMPDEST PUSH2 0xE7B JUMPI PUSH1 0x40 MLOAD PUSH3 0x461BCD PUSH1 0xE5 SHL DUP2 MSTORE PUSH1 0x20 PUSH1 0x4 DUP3 ADD MSTORE PUSH1 0x8 PUSH1 0x24 DUP3 ADD MSTORE PUSH32 0x4E4F545F54494D45000000000000000000000000000000000000000000000000 PUSH1 0x44 DUP3 ADD MSTORE PUSH1 0x64 ADD PUSH2 0x4FA JUMP JUMPDEST PUSH1 0x0 DUP3 DUP2 MSTORE PUSH1 0x1 PUSH1 0x20 MSTORE PUSH1 0x40 DUP1 DUP3 KECCAK256 SWAP2 SWAP1 SWAP2 SSTORE MLOAD PUSH4 0x55E29A2F PUSH1 0xE1 SHL DUP2 MSTORE PUSH1 0x1 PUSH1 0x1 PUSH1 0xA0 SHL SUB DUP9 AND SWAP1 PUSH4 0xABC5345E SWAP1 PUSH2 0xEBA SWAP1 DUP8 SWAP1 DUP8 SWAP1 PUSH1 0x4 ADD PUSH2 0x25F4 JUMP JUMPDEST PUSH1 0x0 PUSH1 0x40 MLOAD DUP1 DUP4 SUB DUP2 PUSH1 0x0 DUP8 DUP1 EXTCODESIZE ISZERO DUP1 ISZERO PUSH2 0xED4 JUMPI PUSH1 0x0 DUP1 REVERT JUMPDEST POP GAS CALL ISZERO DUP1 ISZERO PUSH2 0xEE8 JUMPI RETURNDATASIZE PUSH1 0x0 DUP1 RETURNDATACOPY RETURNDATASIZE PUSH1 0x0 REVERT JUMPDEST POP POP POP POP DUP6 DUP3 PUSH32 0xDEDAA4AFDB5FDFA3AE5D58BB0F5B01A38B6766DC750C29F828808E27E9F89638 TIMESTAMP PUSH1 0x40 MLOAD PUSH2 0xF1F SWAP2 DUP2 MSTORE PUSH1 0x20 ADD SWAP1 JUMP JUMPDEST PUSH1 0x40 MLOAD DUP1 SWAP2 SUB SWAP1 LOG3 POP POP POP POP POP POP POP JUMP JUMPDEST DUP4 PUSH1 0x40 MLOAD PUSH1 0x20 ADD PUSH2 0xF41 SWAP2 SWAP1 PUSH2 0x276A JUMP JUMPDEST PUSH1 0x40 DUP1 MLOAD PUSH1 0x1F NOT DUP2 DUP5 SUB ADD DUP2 MSTORE SWAP1 DUP3 SWAP1 MSTORE DUP1 MLOAD PUSH1 0x20 SWAP1 SWAP2 ADD KECCAK256 PUSH4 0xC066A5B1 PUSH1 0xE0 SHL DUP3 MSTORE ADDRESS PUSH1 0x4 DUP4 ADD MSTORE SWAP1 PUSH1 0x1 PUSH1 0x1 PUSH1 0xA0 SHL SUB DUP8 AND SWAP1 PUSH4 0xC066A5B1 SWAP1 PUSH1 0x24 ADD PUSH1 0x20 PUSH1 0x40 MLOAD DUP1 DUP4 SUB DUP2 DUP7 DUP1 EXTCODESIZE ISZERO DUP1 ISZERO PUSH2 0xF97 JUMPI PUSH1 0x0 DUP1 REVERT JUMPDEST POP GAS STATICCALL ISZERO DUP1 ISZERO PUSH2 0xFAB JUMPI RETURNDATASIZE PUSH1 0x0 DUP1 RETURNDATACOPY RETURNDATASIZE PUSH1 0x0 REVERT JUMPDEST POP POP POP POP PUSH1 0x40 MLOAD RETURNDATASIZE PUSH1 0x1F NOT PUSH1 0x1F DUP3 ADD AND DUP3 ADD DUP1 PUSH1 0x40 MSTORE POP DUP2 ADD SWAP1 PUSH2 0xFCF SWAP2 SWAP1 PUSH2 0x20C5 JUMP JUMPDEST EQ PUSH2 0x1013 JUMPI PUSH1 0x40 MLOAD PUSH3 0x461BCD PUSH1 0xE5 SHL DUP2 MSTORE PUSH1 0x20 PUSH1 0x4 DUP3 ADD MSTORE PUSH1 0x14 PUSH1 0x24 DUP3 ADD MSTORE PUSH20 0x2BA927A723AFA0A1A1AFA7A92FA727AFA82924AB PUSH1 0x61 SHL PUSH1 0x44 DUP3 ADD MSTORE PUSH1 0x64 ADD PUSH2 0x4FA JUMP JUMPDEST PUSH1 0x0 DUP2 PUSH8 0xFFFFFFFFFFFFFFFF DUP2 GT ISZERO PUSH2 0x102E JUMPI PUSH2 0x102E PUSH2 0x28B5 JUMP JUMPDEST PUSH1 0x40 MLOAD SWAP1 DUP1 DUP3 MSTORE DUP1 PUSH1 0x20 MUL PUSH1 0x20 ADD DUP3 ADD PUSH1 0x40 MSTORE DUP1 ISZERO PUSH2 0x1057 JUMPI DUP2 PUSH1 0x20 ADD PUSH1 0x20 DUP3 MUL DUP1 CALLDATASIZE DUP4 CALLDATACOPY ADD SWAP1 POP JUMPDEST POP SWAP1 POP PUSH1 0x0 DUP3 PUSH8 0xFFFFFFFFFFFFFFFF DUP2 GT ISZERO PUSH2 0x1075 JUMPI PUSH2 0x1075 PUSH2 0x28B5 JUMP JUMPDEST PUSH1 0x40 MLOAD SWAP1 DUP1 DUP3 MSTORE DUP1 PUSH1 0x20 MUL PUSH1 0x20 ADD DUP3 ADD PUSH1 0x40 MSTORE DUP1 ISZERO PUSH2 0x10C2 JUMPI DUP2 PUSH1 0x20 ADD JUMPDEST PUSH1 0x40 DUP1 MLOAD PUSH1 0x60 DUP1 DUP3 ADD DUP4 MSTORE PUSH1 0x0 DUP1 DUP4 MSTORE PUSH1 0x20 DUP4 ADD MSTORE SWAP2 DUP2 ADD SWAP2 SWAP1 SWAP2 MSTORE DUP2 MSTORE PUSH1 0x20 ADD SWAP1 PUSH1 0x1 SWAP1 SUB SWAP1 DUP2 PUSH2 0x1093 JUMPI SWAP1 POP JUMPDEST POP SWAP1 POP DUP3 PUSH1 0x0 JUMPDEST DUP2 DUP2 LT ISZERO PUSH2 0x133E JUMPI PUSH32 0x61A0BFAA737731097664CD97AF196222D6CD62FA2D4CD73A3A4629D1468037C7 DUP7 DUP7 DUP4 DUP2 DUP2 LT PUSH2 0x1104 JUMPI PUSH2 0x1104 PUSH2 0x289F JUMP JUMPDEST SWAP1 POP PUSH1 0x20 MUL DUP2 ADD SWAP1 PUSH2 0x1116 SWAP2 SWAP1 PUSH2 0x2820 JUMP JUMPDEST PUSH2 0x1120 SWAP1 DUP1 PUSH2 0x27D9 JUMP JUMPDEST DUP9 DUP9 DUP6 DUP2 DUP2 LT PUSH2 0x1132 JUMPI PUSH2 0x1132 PUSH2 0x289F JUMP JUMPDEST SWAP1 POP PUSH1 0x20 MUL DUP2 ADD SWAP1 PUSH2 0x1144 SWAP2 SWAP1 PUSH2 0x2820 JUMP JUMPDEST PUSH2 0x1155 SWAP1 PUSH1 0x40 DUP2 ADD SWAP1 PUSH1 0x20 ADD PUSH2 0x2050 JUMP JUMPDEST DUP10 DUP10 DUP7 DUP2 DUP2 LT PUSH2 0x1167 JUMPI PUSH2 0x1167 PUSH2 0x289F JUMP JUMPDEST SWAP1 POP PUSH1 0x20 MUL DUP2 ADD SWAP1 PUSH2 0x1179 SWAP2 SWAP1 PUSH2 0x2820 JUMP JUMPDEST PUSH1 0x40 ADD CALLDATALOAD DUP11 DUP11 DUP8 DUP2 DUP2 LT PUSH2 0x118F JUMPI PUSH2 0x118F PUSH2 0x289F JUMP JUMPDEST SWAP1 POP PUSH1 0x20 MUL DUP2 ADD SWAP1 PUSH2 0x11A1 SWAP2 SWAP1 PUSH2 0x2820 JUMP JUMPDEST PUSH2 0x11AF SWAP1 PUSH1 0x60 DUP2 ADD SWAP1 PUSH2 0x27D9 JUMP JUMPDEST PUSH1 0x40 MLOAD PUSH1 0x20 ADD PUSH2 0x11C5 SWAP8 SWAP7 SWAP6 SWAP5 SWAP4 SWAP3 SWAP2 SWAP1 PUSH2 0x26B1 JUMP JUMPDEST PUSH1 0x40 MLOAD PUSH1 0x20 DUP2 DUP4 SUB SUB DUP2 MSTORE SWAP1 PUSH1 0x40 MSTORE DUP1 MLOAD SWAP1 PUSH1 0x20 ADD KECCAK256 DUP5 DUP3 DUP2 MLOAD DUP2 LT PUSH2 0x11ED JUMPI PUSH2 0x11ED PUSH2 0x289F JUMP JUMPDEST PUSH1 0x20 MUL PUSH1 0x20 ADD ADD DUP2 DUP2 MSTORE POP POP DUP6 DUP6 DUP3 DUP2 DUP2 LT PUSH2 0x120B JUMPI PUSH2 0x120B PUSH2 0x289F JUMP JUMPDEST SWAP1 POP PUSH1 0x20 MUL DUP2 ADD SWAP1 PUSH2 0x121D SWAP2 SWAP1 PUSH2 0x2820 JUMP JUMPDEST PUSH2 0x122E SWAP1 PUSH1 0x40 DUP2 ADD SWAP1 PUSH1 0x20 ADD PUSH2 0x2050 JUMP JUMPDEST DUP4 DUP3 DUP2 MLOAD DUP2 LT PUSH2 0x1240 JUMPI PUSH2 0x1240 PUSH2 0x289F JUMP JUMPDEST PUSH1 0x20 SWAP1 DUP2 MUL SWAP2 SWAP1 SWAP2 ADD ADD MLOAD PUSH1 0x1 PUSH1 0x1 PUSH1 0xA0 SHL SUB SWAP1 SWAP2 AND SWAP1 MSTORE DUP6 DUP6 DUP3 DUP2 DUP2 LT PUSH2 0x126A JUMPI PUSH2 0x126A PUSH2 0x289F JUMP JUMPDEST SWAP1 POP PUSH1 0x20 MUL DUP2 ADD SWAP1 PUSH2 0x127C SWAP2 SWAP1 PUSH2 0x2820 JUMP JUMPDEST PUSH1 0x40 ADD CALLDATALOAD DUP4 DUP3 DUP2 MLOAD DUP2 LT PUSH2 0x1292 JUMPI PUSH2 0x1292 PUSH2 0x289F JUMP JUMPDEST PUSH1 0x20 MUL PUSH1 0x20 ADD ADD MLOAD PUSH1 0x20 ADD DUP2 DUP2 MSTORE POP POP DUP6 DUP6 DUP3 DUP2 DUP2 LT PUSH2 0x12B4 JUMPI PUSH2 0x12B4 PUSH2 0x289F JUMP JUMPDEST SWAP1 POP PUSH1 0x20 MUL DUP2 ADD SWAP1 PUSH2 0x12C6 SWAP2 SWAP1 PUSH2 0x2820 JUMP JUMPDEST PUSH2 0x12D4 SWAP1 PUSH1 0x60 DUP2 ADD SWAP1 PUSH2 0x27D9 JUMP JUMPDEST DUP1 DUP1 PUSH1 0x1F ADD PUSH1 0x20 DUP1 SWAP2 DIV MUL PUSH1 0x20 ADD PUSH1 0x40 MLOAD SWAP1 DUP2 ADD PUSH1 0x40 MSTORE DUP1 SWAP4 SWAP3 SWAP2 SWAP1 DUP2 DUP2 MSTORE PUSH1 0x20 ADD DUP4 DUP4 DUP1 DUP3 DUP5 CALLDATACOPY PUSH1 0x0 SWAP3 ADD SWAP2 SWAP1 SWAP2 MSTORE POP POP DUP6 MLOAD DUP7 SWAP3 POP DUP5 SWAP2 POP DUP2 LT PUSH2 0x131C JUMPI PUSH2 0x131C PUSH2 0x289F JUMP JUMPDEST PUSH1 0x20 MUL PUSH1 0x20 ADD ADD MLOAD PUSH1 0x40 ADD DUP2 SWAP1 MSTORE POP DUP1 DUP1 PUSH2 0x1336 SWAP1 PUSH2 0x2858 JUMP JUMPDEST SWAP2 POP POP PUSH2 0x10C9 JUMP JUMPDEST POP PUSH1 0x0 DUP4 PUSH1 0x40 MLOAD PUSH1 0x20 ADD PUSH2 0x1352 SWAP2 SWAP1 PUSH2 0x2568 JUMP JUMPDEST PUSH1 0x40 MLOAD PUSH1 0x20 DUP2 DUP4 SUB SUB DUP2 MSTORE SWAP1 PUSH1 0x40 MSTORE DUP1 MLOAD SWAP1 PUSH1 0x20 ADD KECCAK256 SWAP1 POP PUSH1 0x0 PUSH2 0x1374 PUSH2 0x2CC JUMP JUMPDEST PUSH1 0x1 PUSH1 0x1 PUSH1 0xA0 SHL SUB DUP12 AND PUSH1 0x0 SWAP1 DUP2 MSTORE PUSH1 0x20 DUP2 SWAP1 MSTORE PUSH1 0x40 DUP2 KECCAK256 DUP1 SLOAD PUSH32 0xE6B0783DBABE951529A13330614ABF47FBE8D357B2858869312A7CEC354CBA04 SWAP3 DUP15 SWAP3 SWAP1 PUSH2 0x13BC DUP4 PUSH2 0x2858 JUMP JUMPDEST SWAP2 SWAP1 POP SSTORE DUP6 PUSH1 0x40 MLOAD PUSH1 0x20 ADD PUSH2 0x13F3 SWAP5 SWAP4 SWAP3 SWAP2 SWAP1 SWAP4 DUP5 MSTORE PUSH1 0x1 PUSH1 0x1 PUSH1 0xA0 SHL SUB SWAP3 SWAP1 SWAP3 AND PUSH1 0x20 DUP5 ADD MSTORE PUSH1 0x40 DUP4 ADD MSTORE PUSH1 0x60 DUP3 ADD MSTORE PUSH1 0x80 ADD SWAP1 JUMP JUMPDEST PUSH1 0x40 MLOAD PUSH1 0x20 DUP2 DUP4 SUB SUB DUP2 MSTORE SWAP1 PUSH1 0x40 MSTORE DUP1 MLOAD SWAP1 PUSH1 0x20 ADD KECCAK256 PUSH1 0x40 MLOAD PUSH1 0x20 ADD PUSH2 0x1430 SWAP3 SWAP2 SWAP1 PUSH2 0x1901 PUSH1 0xF0 SHL DUP2 MSTORE PUSH1 0x2 DUP2 ADD SWAP3 SWAP1 SWAP3 MSTORE PUSH1 0x22 DUP3 ADD MSTORE PUSH1 0x42 ADD SWAP1 JUMP JUMPDEST PUSH1 0x40 DUP1 MLOAD PUSH1 0x1F NOT DUP2 DUP5 SUB ADD DUP2 MSTORE SWAP2 SWAP1 MSTORE DUP1 MLOAD PUSH1 0x20 SWAP1 SWAP2 ADD KECCAK256 SWAP1 POP PUSH2 0x1458 DUP2 PUSH2 0x628 DUP11 DUP1 PUSH2 0x27D9 JUMP JUMPDEST PUSH1 0x1 PUSH1 0x1 PUSH1 0xA0 SHL SUB AND PUSH2 0x1471 PUSH1 0x40 DUP12 ADD PUSH1 0x20 DUP13 ADD PUSH2 0x2050 JUMP JUMPDEST PUSH1 0x1 PUSH1 0x1 PUSH1 0xA0 SHL SUB AND EQ PUSH2 0x14B1 JUMPI PUSH1 0x40 MLOAD PUSH3 0x461BCD PUSH1 0xE5 SHL DUP2 MSTORE PUSH1 0x20 PUSH1 0x4 DUP3 ADD MSTORE PUSH1 0x7 PUSH1 0x24 DUP3 ADD MSTORE PUSH7 0x5349475F4F4E45 PUSH1 0xC8 SHL PUSH1 0x44 DUP3 ADD MSTORE PUSH1 0x64 ADD PUSH2 0x4FA JUMP JUMPDEST PUSH2 0x14C2 DUP2 PUSH2 0x628 PUSH1 0x20 DUP12 ADD DUP12 PUSH2 0x27D9 JUMP JUMPDEST PUSH1 0x1 PUSH1 0x1 PUSH1 0xA0 SHL SUB AND PUSH2 0x14DB PUSH1 0x60 DUP12 ADD PUSH1 0x40 DUP13 ADD PUSH2 0x2050 JUMP JUMPDEST PUSH1 0x1 PUSH1 0x1 PUSH1 0xA0 SHL SUB AND EQ PUSH2 0x151B JUMPI PUSH1 0x40 MLOAD PUSH3 0x461BCD PUSH1 0xE5 SHL DUP2 MSTORE PUSH1 0x20 PUSH1 0x4 DUP3 ADD MSTORE PUSH1 0x7 PUSH1 0x24 DUP3 ADD MSTORE PUSH7 0x5349475F54574F PUSH1 0xC8 SHL PUSH1 0x44 DUP3 ADD MSTORE PUSH1 0x64 ADD PUSH2 0x4FA JUMP JUMPDEST PUSH1 0x40 MLOAD PUSH4 0x55E29A2F PUSH1 0xE1 SHL DUP2 MSTORE PUSH1 0x1 PUSH1 0x1 PUSH1 0xA0 SHL SUB DUP12 AND SWAP1 PUSH4 0xABC5345E SWAP1 PUSH2 0x1547 SWAP1 DUP8 SWAP1 PUSH1 0x4 ADD PUSH2 0x2610 JUMP JUMPDEST PUSH1 0x0 PUSH1 0x40 MLOAD DUP1 DUP4 SUB DUP2 PUSH1 0x0 DUP8 DUP1 EXTCODESIZE ISZERO DUP1 ISZERO PUSH2 0x1561 JUMPI PUSH1 0x0 DUP1 REVERT JUMPDEST POP GAS CALL ISZERO DUP1 ISZERO PUSH2 0x1575 JUMPI RETURNDATASIZE PUSH1 0x0 DUP1 RETURNDATACOPY RETURNDATASIZE PUSH1 0x0 REVERT JUMPDEST POP POP POP POP POP POP POP POP POP POP POP POP POP POP JUMP JUMPDEST PUSH1 0x0 DUP7 PUSH1 0x40 MLOAD PUSH1 0x20 ADD PUSH2 0x1598 SWAP2 SWAP1 PUSH2 0x276A JUMP JUMPDEST PUSH1 0x40 DUP1 MLOAD PUSH1 0x1F NOT DUP2 DUP5 SUB ADD DUP2 MSTORE SWAP1 DUP3 SWAP1 MSTORE DUP1 MLOAD PUSH1 0x20 SWAP1 SWAP2 ADD KECCAK256 PUSH4 0xC066A5B1 PUSH1 0xE0 SHL DUP3 MSTORE ADDRESS PUSH1 0x4 DUP4 ADD MSTORE SWAP2 POP DUP2 SWAP1 PUSH1 0x1 PUSH1 0x1 PUSH1 0xA0 SHL SUB DUP11 AND SWAP1 PUSH4 0xC066A5B1 SWAP1 PUSH1 0x24 ADD PUSH1 0x20 PUSH1 0x40 MLOAD DUP1 DUP4 SUB DUP2 DUP7 DUP1 EXTCODESIZE ISZERO DUP1 ISZERO PUSH2 0x15F1 JUMPI PUSH1 0x0 DUP1 REVERT JUMPDEST POP GAS STATICCALL ISZERO DUP1 ISZERO PUSH2 0x1605 JUMPI RETURNDATASIZE PUSH1 0x0 DUP1 RETURNDATACOPY RETURNDATASIZE PUSH1 0x0 REVERT JUMPDEST POP POP POP POP PUSH1 0x40 MLOAD RETURNDATASIZE PUSH1 0x1F NOT PUSH1 0x1F DUP3 ADD AND DUP3 ADD DUP1 PUSH1 0x40 MSTORE POP DUP2 ADD SWAP1 PUSH2 0x1629 SWAP2 SWAP1 PUSH2 0x20C5 JUMP JUMPDEST EQ PUSH2 0x166D JUMPI PUSH1 0x40 MLOAD PUSH3 0x461BCD PUSH1 0xE5 SHL DUP2 MSTORE PUSH1 0x20 PUSH1 0x4 DUP3 ADD MSTORE PUSH1 0x14 PUSH1 0x24 DUP3 ADD MSTORE PUSH20 0x2BA927A723AFA0A1A1AFA7A92FA727AFA82924AB PUSH1 0x61 SHL PUSH1 0x44 DUP3 ADD MSTORE PUSH1 0x64 ADD PUSH2 0x4FA JUMP JUMPDEST PUSH1 0x40 MLOAD PUSH1 0x0 SWAP1 PUSH2 0x16B1 SWAP1 PUSH32 0xC47C310000000000000000000000000000000000000000000000000000000000 SWAP1 ADDRESS SWAP1 CHAINID SWAP1 DUP14 SWAP1 DUP8 SWAP1 DUP14 SWAP1 DUP12 SWAP1 DUP12 SWAP1 DUP11 SWAP1 PUSH1 0x20 ADD PUSH2 0x2701 JUMP JUMPDEST PUSH1 0x40 MLOAD PUSH1 0x20 DUP2 DUP4 SUB SUB DUP2 MSTORE SWAP1 PUSH1 0x40 MSTORE DUP1 MLOAD SWAP1 PUSH1 0x20 ADD KECCAK256 SWAP1 POP PUSH1 0x0 PUSH2 0x170B DUP3 DUP9 DUP9 DUP1 DUP1 PUSH1 0x1F ADD PUSH1 0x20 DUP1 SWAP2 DIV MUL PUSH1 0x20 ADD PUSH1 0x40 MLOAD SWAP1 DUP2 ADD PUSH1 0x40 MSTORE DUP1 SWAP4 SWAP3 SWAP2 SWAP1 DUP2 DUP2 MSTORE PUSH1 0x20 ADD DUP4 DUP4 DUP1 DUP3 DUP5 CALLDATACOPY PUSH1 0x0 SWAP3 ADD SWAP2 SWAP1 SWAP2 MSTORE POP PUSH2 0x18B6 SWAP3 POP POP POP JUMP JUMPDEST SWAP1 POP PUSH2 0x171D PUSH1 0x40 DUP11 ADD PUSH1 0x20 DUP12 ADD PUSH2 0x2050 JUMP JUMPDEST PUSH1 0x1 PUSH1 0x1 PUSH1 0xA0 SHL SUB AND DUP2 PUSH1 0x1 PUSH1 0x1 PUSH1 0xA0 SHL SUB AND EQ DUP1 PUSH2 0x175C JUMPI POP PUSH2 0x1747 PUSH1 0x60 DUP11 ADD PUSH1 0x40 DUP12 ADD PUSH2 0x2050 JUMP JUMPDEST PUSH1 0x1 PUSH1 0x1 PUSH1 0xA0 SHL SUB AND DUP2 PUSH1 0x1 PUSH1 0x1 PUSH1 0xA0 SHL SUB AND EQ JUMPDEST PUSH2 0x17A8 JUMPI PUSH1 0x40 MLOAD PUSH3 0x461BCD PUSH1 0xE5 SHL DUP2 MSTORE PUSH1 0x20 PUSH1 0x4 DUP3 ADD MSTORE PUSH1 0x11 PUSH1 0x24 DUP3 ADD MSTORE PUSH32 0x494E56414C49445F5349474E4154555245000000000000000000000000000000 PUSH1 0x44 DUP3 ADD MSTORE PUSH1 0x64 ADD PUSH2 0x4FA JUMP JUMPDEST PUSH1 0x0 ADDRESS CHAINID DUP13 DUP7 DUP13 DUP11 DUP11 PUSH1 0x0 PUSH1 0x40 MLOAD PUSH1 0x20 ADD PUSH2 0x17CA SWAP9 SWAP8 SWAP7 SWAP6 SWAP5 SWAP4 SWAP3 SWAP2 SWAP1 PUSH2 0x259E JUMP JUMPDEST PUSH1 0x40 DUP1 MLOAD PUSH1 0x1F NOT DUP2 DUP5 SUB ADD DUP2 MSTORE SWAP2 DUP2 MSTORE DUP2 MLOAD PUSH1 0x20 SWAP3 DUP4 ADD KECCAK256 PUSH1 0x0 DUP2 DUP2 MSTORE PUSH1 0x1 SWAP1 SWAP4 MSTORE SWAP2 KECCAK256 SLOAD SWAP1 SWAP2 POP DUP1 ISZERO DUP1 ISZERO SWAP1 PUSH2 0x1800 JUMPI POP DUP1 TIMESTAMP LT JUMPDEST PUSH2 0x184C JUMPI PUSH1 0x40 MLOAD PUSH3 0x461BCD PUSH1 0xE5 SHL DUP2 MSTORE PUSH1 0x20 PUSH1 0x4 DUP3 ADD MSTORE PUSH1 0x8 PUSH1 0x24 DUP3 ADD MSTORE PUSH32 0x544F4F5F4C415445000000000000000000000000000000000000000000000000 PUSH1 0x44 DUP3 ADD MSTORE PUSH1 0x64 ADD PUSH2 0x4FA JUMP JUMPDEST PUSH1 0x1 PUSH1 0x0 DUP4 DUP2 MSTORE PUSH1 0x20 ADD SWAP1 DUP2 MSTORE PUSH1 0x20 ADD PUSH1 0x0 KECCAK256 PUSH1 0x0 SWAP1 SSTORE DUP3 PUSH1 0x1 PUSH1 0x1 PUSH1 0xA0 SHL SUB AND DUP6 DUP4 PUSH32 0xD9C10D884D0D236030E76A4D486ED75E9557F5FDDB152FFFA5132A761267B3EF TIMESTAMP PUSH1 0x40 MLOAD PUSH2 0x18A0 SWAP2 DUP2 MSTORE PUSH1 0x20 ADD SWAP1 JUMP JUMPDEST PUSH1 0x40 MLOAD DUP1 SWAP2 SUB SWAP1 LOG4 POP POP POP POP POP POP POP POP POP POP POP POP JUMP JUMPDEST PUSH1 0x0 PUSH2 0x2C5 DUP4 DUP4 PUSH1 0x0 DUP1 PUSH1 0x1 DUP4 MLOAD LT ISZERO PUSH2 0x1912 JUMPI PUSH1 0x40 MLOAD PUSH3 0x461BCD PUSH1 0xE5 SHL DUP2 MSTORE PUSH1 0x20 PUSH1 0x4 DUP3 ADD MSTORE PUSH1 0x9 PUSH1 0x24 DUP3 ADD MSTORE PUSH32 0x53565F5349474C454E0000000000000000000000000000000000000000000000 PUSH1 0x44 DUP3 ADD MSTORE PUSH1 0x64 ADD PUSH2 0x4FA JUMP JUMPDEST PUSH1 0x0 DUP4 PUSH1 0x1 DUP6 MLOAD SUB DUP2 MLOAD DUP2 LT PUSH2 0x192A JUMPI PUSH2 0x192A PUSH2 0x289F JUMP JUMPDEST ADD PUSH1 0x20 ADD MLOAD PUSH1 0xF8 SHR SWAP1 POP PUSH1 0x4 DUP2 LT PUSH2 0x1984 JUMPI PUSH1 0x40 MLOAD PUSH3 0x461BCD PUSH1 0xE5 SHL DUP2 MSTORE PUSH1 0x20 PUSH1 0x4 DUP3 ADD MSTORE PUSH1 0xA PUSH1 0x24 DUP3 ADD MSTORE PUSH32 0x53565F5349474D4F444500000000000000000000000000000000000000000000 PUSH1 0x44 DUP3 ADD MSTORE PUSH1 0x64 ADD PUSH2 0x4FA JUMP JUMPDEST PUSH1 0x0 DUP2 PUSH1 0xFF AND PUSH1 0x4 DUP2 GT ISZERO PUSH2 0x199B JUMPI PUSH2 0x199B PUSH2 0x2889 JUMP JUMPDEST SWAP1 POP PUSH1 0x0 DUP2 PUSH1 0x4 DUP2 GT ISZERO PUSH2 0x19B1 JUMPI PUSH2 0x19B1 PUSH2 0x2889 JUMP JUMPDEST EQ DUP1 PUSH2 0x19CE JUMPI POP PUSH1 0x1 DUP2 PUSH1 0x4 DUP2 GT ISZERO PUSH2 0x19CC JUMPI PUSH2 0x19CC PUSH2 0x2889 JUMP JUMPDEST EQ JUMPDEST ISZERO PUSH2 0x1BE8 JUMPI DUP5 MLOAD PUSH1 0x42 EQ PUSH2 0x1A24 JUMPI PUSH1 0x40 MLOAD PUSH3 0x461BCD PUSH1 0xE5 SHL DUP2 MSTORE PUSH1 0x20 PUSH1 0x4 DUP3 ADD MSTORE PUSH1 0x6 PUSH1 0x24 DUP3 ADD MSTORE PUSH32 0x53565F4C454E0000000000000000000000000000000000000000000000000000 PUSH1 0x44 DUP3 ADD MSTORE PUSH1 0x64 ADD PUSH2 0x4FA JUMP JUMPDEST PUSH1 0x0 PUSH2 0x1A30 DUP7 DUP3 PUSH2 0x1E51 JUMP JUMPDEST SWAP1 POP PUSH1 0x0 PUSH2 0x1A3F DUP8 PUSH1 0x20 PUSH2 0x1E51 JUMP JUMPDEST SWAP1 POP PUSH1 0x0 DUP8 PUSH1 0x40 DUP2 MLOAD DUP2 LT PUSH2 0x1A56 JUMPI PUSH2 0x1A56 PUSH2 0x289F JUMP JUMPDEST ADD PUSH1 0x20 ADD MLOAD PUSH1 0xF8 SHR SWAP1 POP PUSH1 0x1B DUP2 EQ DUP1 PUSH2 0x1A72 JUMPI POP DUP1 PUSH1 0xFF AND PUSH1 0x1C EQ JUMPDEST PUSH2 0x1ABE JUMPI PUSH1 0x40 MLOAD PUSH3 0x461BCD PUSH1 0xE5 SHL DUP2 MSTORE PUSH1 0x20 PUSH1 0x4 DUP3 ADD MSTORE PUSH1 0xC PUSH1 0x24 DUP3 ADD MSTORE PUSH32 0x53565F494E56414C49445F560000000000000000000000000000000000000000 PUSH1 0x44 DUP3 ADD MSTORE PUSH1 0x64 ADD PUSH2 0x4FA JUMP JUMPDEST PUSH1 0x1 DUP5 PUSH1 0x4 DUP2 GT ISZERO PUSH2 0x1AD2 JUMPI PUSH2 0x1AD2 PUSH2 0x2889 JUMP JUMPDEST EQ ISZERO PUSH2 0x1B24 JUMPI PUSH1 0x40 MLOAD PUSH32 0x19457468657265756D205369676E6564204D6573736167653A0A333200000000 PUSH1 0x20 DUP3 ADD MSTORE PUSH1 0x3C DUP2 ADD DUP11 SWAP1 MSTORE PUSH1 0x5C ADD PUSH1 0x40 MLOAD PUSH1 0x20 DUP2 DUP4 SUB SUB DUP2 MSTORE SWAP1 PUSH1 0x40 MSTORE DUP1 MLOAD SWAP1 PUSH1 0x20 ADD KECCAK256 SWAP9 POP JUMPDEST PUSH1 0x40 DUP1 MLOAD PUSH1 0x0 DUP1 DUP3 MSTORE PUSH1 0x20 DUP3 ADD DUP1 DUP5 MSTORE DUP13 SWAP1 MSTORE PUSH1 0xFF DUP5 AND SWAP3 DUP3 ADD SWAP3 SWAP1 SWAP3 MSTORE PUSH1 0x60 DUP2 ADD DUP6 SWAP1 MSTORE PUSH1 0x80 DUP2 ADD DUP5 SWAP1 MSTORE PUSH1 0x1 SWAP1 PUSH1 0xA0 ADD PUSH1 0x20 PUSH1 0x40 MLOAD PUSH1 0x20 DUP2 SUB SWAP1 DUP1 DUP5 SUB SWAP1 DUP6 GAS STATICCALL ISZERO DUP1 ISZERO PUSH2 0x1B78 JUMPI RETURNDATASIZE PUSH1 0x0 DUP1 RETURNDATACOPY RETURNDATASIZE PUSH1 0x0 REVERT JUMPDEST POP POP PUSH1 0x40 MLOAD PUSH1 0x1F NOT ADD MLOAD SWAP2 POP POP PUSH1 0x1 PUSH1 0x1 PUSH1 0xA0 SHL SUB DUP2 AND PUSH2 0x1BDB JUMPI PUSH1 0x40 MLOAD PUSH3 0x461BCD PUSH1 0xE5 SHL DUP2 MSTORE PUSH1 0x20 PUSH1 0x4 DUP3 ADD MSTORE PUSH1 0xB PUSH1 0x24 DUP3 ADD MSTORE PUSH32 0x53565F5A45524F5F534947000000000000000000000000000000000000000000 PUSH1 0x44 DUP3 ADD MSTORE PUSH1 0x64 ADD PUSH2 0x4FA JUMP JUMPDEST SWAP6 POP PUSH2 0x2C5 SWAP5 POP POP POP POP POP JUMP JUMPDEST PUSH1 0x2 DUP2 PUSH1 0x4 DUP2 GT ISZERO PUSH2 0x1BFC JUMPI PUSH2 0x1BFC PUSH2 0x2889 JUMP JUMPDEST EQ ISZERO PUSH2 0x1D59 JUMPI PUSH1 0x21 DUP6 MLOAD GT PUSH2 0x1C53 JUMPI PUSH1 0x40 MLOAD PUSH3 0x461BCD PUSH1 0xE5 SHL DUP2 MSTORE PUSH1 0x20 PUSH1 0x4 DUP3 ADD MSTORE PUSH1 0xD PUSH1 0x24 DUP3 ADD MSTORE PUSH32 0x53565F4C454E5F57414C4C455400000000000000000000000000000000000000 PUSH1 0x44 DUP3 ADD MSTORE PUSH1 0x64 ADD PUSH2 0x4FA JUMP JUMPDEST DUP5 MLOAD PUSH1 0x20 NOT ADD PUSH1 0x0 PUSH2 0x1C65 DUP8 DUP4 PUSH2 0x1E51 JUMP JUMPDEST SWAP1 POP PUSH2 0x1C71 DUP8 DUP4 PUSH2 0x1EB7 JUMP JUMPDEST PUSH1 0x40 MLOAD PUSH4 0xB135D3F PUSH1 0xE1 SHL DUP2 MSTORE PUSH1 0x1 PUSH1 0x1 PUSH1 0xA0 SHL SUB DUP3 AND SWAP1 PUSH4 0x1626BA7E SWAP1 PUSH2 0x1C9F SWAP1 DUP12 SWAP1 DUP12 SWAP1 PUSH1 0x4 ADD PUSH2 0x2698 JUMP JUMPDEST PUSH1 0x20 PUSH1 0x40 MLOAD DUP1 DUP4 SUB DUP2 DUP7 DUP1 EXTCODESIZE ISZERO DUP1 ISZERO PUSH2 0x1CB7 JUMPI PUSH1 0x0 DUP1 REVERT JUMPDEST POP GAS STATICCALL ISZERO DUP1 ISZERO PUSH2 0x1CCB JUMPI RETURNDATASIZE PUSH1 0x0 DUP1 RETURNDATACOPY RETURNDATASIZE PUSH1 0x0 REVERT JUMPDEST POP POP POP POP PUSH1 0x40 MLOAD RETURNDATASIZE PUSH1 0x1F NOT PUSH1 0x1F DUP3 ADD AND DUP3 ADD DUP1 PUSH1 0x40 MSTORE POP DUP2 ADD SWAP1 PUSH2 0x1CEF SWAP2 SWAP1 PUSH2 0x212A JUMP JUMPDEST PUSH1 0x1 PUSH1 0x1 PUSH1 0xE0 SHL SUB NOT AND PUSH4 0xB135D3F PUSH1 0xE1 SHL EQ PUSH2 0x1D4E JUMPI PUSH1 0x40 MLOAD PUSH3 0x461BCD PUSH1 0xE5 SHL DUP2 MSTORE PUSH1 0x20 PUSH1 0x4 DUP3 ADD MSTORE PUSH1 0x11 PUSH1 0x24 DUP3 ADD MSTORE PUSH32 0x53565F57414C4C45545F494E56414C4944000000000000000000000000000000 PUSH1 0x44 DUP3 ADD MSTORE PUSH1 0x64 ADD PUSH2 0x4FA JUMP JUMPDEST SWAP4 POP PUSH2 0x2C5 SWAP3 POP POP POP JUMP JUMPDEST PUSH1 0x3 DUP2 PUSH1 0x4 DUP2 GT ISZERO PUSH2 0x1D6D JUMPI PUSH2 0x1D6D PUSH2 0x2889 JUMP JUMPDEST EQ DUP1 ISZERO PUSH2 0x1D77 JUMPI POP DUP4 JUMPDEST ISZERO PUSH2 0x1E45 JUMPI ORIGIN PUSH1 0x1 EQ PUSH2 0x1DCC JUMPI PUSH1 0x40 MLOAD PUSH3 0x461BCD PUSH1 0xE5 SHL DUP2 MSTORE PUSH1 0x20 PUSH1 0x4 DUP3 ADD MSTORE PUSH1 0xF PUSH1 0x24 DUP3 ADD MSTORE PUSH32 0x53565F53504F4F465F4F524947494E0000000000000000000000000000000000 PUSH1 0x44 DUP3 ADD MSTORE PUSH1 0x64 ADD PUSH2 0x4FA JUMP JUMPDEST DUP5 MLOAD PUSH1 0x21 EQ PUSH2 0x1E1D JUMPI PUSH1 0x40 MLOAD PUSH3 0x461BCD PUSH1 0xE5 SHL DUP2 MSTORE PUSH1 0x20 PUSH1 0x4 DUP3 ADD MSTORE PUSH1 0xC PUSH1 0x24 DUP3 ADD MSTORE PUSH32 0x53565F53504F4F465F4C454E0000000000000000000000000000000000000000 PUSH1 0x44 DUP3 ADD MSTORE PUSH1 0x64 ADD PUSH2 0x4FA JUMP JUMPDEST PUSH2 0x1E28 DUP6 PUSH1 0x20 PUSH2 0x1EB7 JUMP JUMPDEST DUP5 DUP1 PUSH1 0x20 ADD SWAP1 MLOAD DUP2 ADD SWAP1 PUSH2 0x1E3C SWAP2 SWAP1 PUSH2 0x206D JUMP JUMPDEST SWAP3 POP POP POP PUSH2 0x2C5 JUMP JUMPDEST POP PUSH1 0x0 SWAP6 SWAP5 POP POP POP POP POP JUMP JUMPDEST PUSH1 0x0 PUSH2 0x1E5E PUSH1 0x20 DUP4 PUSH2 0x2840 JUMP JUMPDEST SWAP2 POP DUP2 DUP4 MLOAD LT ISZERO PUSH2 0x1EB1 JUMPI PUSH1 0x40 MLOAD PUSH3 0x461BCD PUSH1 0xE5 SHL DUP2 MSTORE PUSH1 0x20 PUSH1 0x4 DUP3 ADD MSTORE PUSH1 0x10 PUSH1 0x24 DUP3 ADD MSTORE PUSH32 0x42797465734C69623A206C656E67746800000000000000000000000000000000 PUSH1 0x44 DUP3 ADD MSTORE PUSH1 0x64 ADD PUSH2 0x4FA JUMP JUMPDEST POP ADD MLOAD SWAP1 JUMP JUMPDEST DUP1 DUP3 MLOAD GT PUSH2 0x1F07 JUMPI PUSH1 0x40 MLOAD PUSH3 0x461BCD PUSH1 0xE5 SHL DUP2 MSTORE PUSH1 0x20 PUSH1 0x4 DUP3 ADD MSTORE PUSH1 0x18 PUSH1 0x24 DUP3 ADD MSTORE PUSH32 0x42797465734C69623A206F6E6C7920736872696E6B696E670000000000000000 PUSH1 0x44 DUP3 ADD MSTORE PUSH1 0x64 ADD PUSH2 0x4FA JUMP JUMPDEST SWAP1 MSTORE JUMP JUMPDEST PUSH1 0x0 DUP1 DUP4 PUSH1 0x1F DUP5 ADD SLT PUSH2 0x1F1D JUMPI PUSH1 0x0 DUP1 REVERT JUMPDEST POP DUP2 CALLDATALOAD PUSH8 0xFFFFFFFFFFFFFFFF DUP2 GT ISZERO PUSH2 0x1F35 JUMPI PUSH1 0x0 DUP1 REVERT JUMPDEST PUSH1 0x20 DUP4 ADD SWAP2 POP DUP4 PUSH1 0x20 DUP3 PUSH1 0x5 SHL DUP6 ADD ADD GT ISZERO PUSH2 0x1F50 JUMPI PUSH1 0x0 DUP1 REVERT JUMPDEST SWAP3 POP SWAP3 SWAP1 POP JUMP JUMPDEST PUSH1 0x0 DUP1 DUP4 PUSH1 0x1F DUP5 ADD SLT PUSH2 0x1F69 JUMPI PUSH1 0x0 DUP1 REVERT JUMPDEST POP DUP2 CALLDATALOAD PUSH8 0xFFFFFFFFFFFFFFFF DUP2 GT ISZERO PUSH2 0x1F81 JUMPI PUSH1 0x0 DUP1 REVERT JUMPDEST PUSH1 0x20 DUP4 ADD SWAP2 POP DUP4 PUSH1 0x20 DUP3 DUP6 ADD ADD GT ISZERO PUSH2 0x1F50 JUMPI PUSH1 0x0 DUP1 REVERT JUMPDEST PUSH1 0x0 DUP3 PUSH1 0x1F DUP4 ADD SLT PUSH2 0x1FAA JUMPI PUSH1 0x0 DUP1 REVERT JUMPDEST DUP2 CALLDATALOAD PUSH8 0xFFFFFFFFFFFFFFFF DUP1 DUP3 GT ISZERO PUSH2 0x1FC5 JUMPI PUSH2 0x1FC5 PUSH2 0x28B5 JUMP JUMPDEST PUSH1 0x40 MLOAD PUSH1 0x1F DUP4 ADD PUSH1 0x1F NOT SWAP1 DUP2 AND PUSH1 0x3F ADD AND DUP2 ADD SWAP1 DUP3 DUP3 GT DUP2 DUP4 LT OR ISZERO PUSH2 0x1FED JUMPI PUSH2 0x1FED PUSH2 0x28B5 JUMP JUMPDEST DUP2 PUSH1 0x40 MSTORE DUP4 DUP2 MSTORE DUP7 PUSH1 0x20 DUP6 DUP9 ADD ADD GT ISZERO PUSH2 0x2006 JUMPI PUSH1 0x0 DUP1 REVERT JUMPDEST DUP4 PUSH1 0x20 DUP8 ADD PUSH1 0x20 DUP4 ADD CALLDATACOPY PUSH1 0x0 PUSH1 0x20 DUP6 DUP4 ADD ADD MSTORE DUP1 SWAP5 POP POP POP POP POP SWAP3 SWAP2 POP POP JUMP JUMPDEST PUSH1 0x0 PUSH1 0x40 DUP3 DUP5 SUB SLT ISZERO PUSH2 0x2038 JUMPI PUSH1 0x0 DUP1 REVERT JUMPDEST POP SWAP2 SWAP1 POP JUMP JUMPDEST PUSH1 0x0 PUSH1 0x60 DUP3 DUP5 SUB SLT ISZERO PUSH2 0x2038 JUMPI PUSH1 0x0 DUP1 REVERT JUMPDEST PUSH1 0x0 PUSH1 0x20 DUP3 DUP5 SUB SLT ISZERO PUSH2 0x2062 JUMPI PUSH1 0x0 DUP1 REVERT JUMPDEST DUP2 CALLDATALOAD PUSH2 0x2C5 DUP2 PUSH2 0x28CB JUMP JUMPDEST PUSH1 0x0 PUSH1 0x20 DUP3 DUP5 SUB SLT ISZERO PUSH2 0x207F JUMPI PUSH1 0x0 DUP1 REVERT JUMPDEST DUP2 MLOAD PUSH2 0x2C5 DUP2 PUSH2 0x28CB JUMP JUMPDEST PUSH1 0x0 PUSH1 0x20 DUP3 DUP5 SUB SLT ISZERO PUSH2 0x209C JUMPI PUSH1 0x0 DUP1 REVERT JUMPDEST DUP2 CALLDATALOAD DUP1 ISZERO ISZERO DUP2 EQ PUSH2 0x2C5 JUMPI PUSH1 0x0 DUP1 REVERT JUMPDEST PUSH1 0x0 PUSH1 0x20 DUP3 DUP5 SUB SLT ISZERO PUSH2 0x20BE JUMPI PUSH1 0x0 DUP1 REVERT JUMPDEST POP CALLDATALOAD SWAP2 SWAP1 POP JUMP JUMPDEST PUSH1 0x0 PUSH1 0x20 DUP3 DUP5 SUB SLT ISZERO PUSH2 0x20D7 JUMPI PUSH1 0x0 DUP1 REVERT JUMPDEST POP MLOAD SWAP2 SWAP1 POP JUMP JUMPDEST PUSH1 0x0 DUP1 PUSH1 0x0 PUSH1 0x40 DUP5 DUP7 SUB SLT ISZERO PUSH2 0x20F3 JUMPI PUSH1 0x0 DUP1 REVERT JUMPDEST DUP4 CALLDATALOAD SWAP3 POP PUSH1 0x20 DUP5 ADD CALLDATALOAD PUSH8 0xFFFFFFFFFFFFFFFF DUP2 GT ISZERO PUSH2 0x2111 JUMPI PUSH1 0x0 DUP1 REVERT JUMPDEST PUSH2 0x211D DUP7 DUP3 DUP8 ADD PUSH2 0x1F57 JUMP JUMPDEST SWAP5 SWAP8 SWAP1 SWAP7 POP SWAP4 SWAP5 POP POP POP POP JUMP JUMPDEST PUSH1 0x0 PUSH1 0x20 DUP3 DUP5 SUB SLT ISZERO PUSH2 0x213C JUMPI PUSH1 0x0 DUP1 REVERT JUMPDEST DUP2 MLOAD PUSH1 0x1 PUSH1 0x1 PUSH1 0xE0 SHL SUB NOT DUP2 AND DUP2 EQ PUSH2 0x2C5 JUMPI PUSH1 0x0 DUP1 REVERT JUMPDEST PUSH1 0x0 DUP1 PUSH1 0x0 DUP1 PUSH1 0x0 PUSH1 0x80 DUP7 DUP9 SUB SLT ISZERO PUSH2 0x216C JUMPI PUSH1 0x0 DUP1 REVERT JUMPDEST DUP6 CALLDATALOAD PUSH2 0x2177 DUP2 PUSH2 0x28CB JUMP JUMPDEST SWAP5 POP PUSH1 0x20 DUP7 ADD CALLDATALOAD SWAP4 POP PUSH1 0x40 DUP7 ADD CALLDATALOAD SWAP3 POP PUSH1 0x60 DUP7 ADD CALLDATALOAD PUSH8 0xFFFFFFFFFFFFFFFF DUP2 GT ISZERO PUSH2 0x21A1 JUMPI PUSH1 0x0 DUP1 REVERT JUMPDEST PUSH2 0x21AD DUP9 DUP3 DUP10 ADD PUSH2 0x1F0B JUMP JUMPDEST SWAP7 SWAP10 SWAP6 SWAP9 POP SWAP4 SWAP7 POP SWAP3 SWAP5 SWAP4 SWAP3 POP POP POP JUMP JUMPDEST PUSH1 0x0 DUP1 PUSH1 0x0 DUP1 PUSH1 0x0 PUSH1 0xC0 DUP7 DUP9 SUB SLT ISZERO PUSH2 0x21D6 JUMPI PUSH1 0x0 DUP1 REVERT JUMPDEST DUP6 CALLDATALOAD PUSH2 0x21E1 DUP2 PUSH2 0x28CB JUMP JUMPDEST SWAP5 POP PUSH2 0x21F0 DUP8 PUSH1 0x20 DUP9 ADD PUSH2 0x203E JUMP JUMPDEST SWAP4 POP PUSH1 0x80 DUP7 ADD CALLDATALOAD PUSH8 0xFFFFFFFFFFFFFFFF DUP1 DUP3 GT ISZERO PUSH2 0x220D JUMPI PUSH1 0x0 DUP1 REVERT JUMPDEST PUSH2 0x2219 DUP10 DUP4 DUP11 ADD PUSH2 0x2026 JUMP JUMPDEST SWAP5 POP PUSH1 0xA0 DUP9 ADD CALLDATALOAD SWAP2 POP DUP1 DUP3 GT ISZERO PUSH2 0x222F JUMPI PUSH1 0x0 DUP1 REVERT JUMPDEST POP PUSH2 0x21AD DUP9 DUP3 DUP10 ADD PUSH2 0x1F0B JUMP JUMPDEST PUSH1 0x0 DUP1 PUSH1 0x0 DUP1 DUP5 DUP7 SUB PUSH2 0x120 DUP2 SLT ISZERO PUSH2 0x2254 JUMPI PUSH1 0x0 DUP1 REVERT JUMPDEST DUP6 CALLDATALOAD PUSH2 0x225F DUP2 PUSH2 0x28CB JUMP JUMPDEST SWAP5 POP PUSH2 0x226E DUP8 PUSH1 0x20 DUP9 ADD PUSH2 0x203E JUMP JUMPDEST SWAP4 POP PUSH1 0x80 DUP7 ADD CALLDATALOAD PUSH8 0xFFFFFFFFFFFFFFFF DUP2 GT ISZERO PUSH2 0x228A JUMPI PUSH1 0x0 DUP1 REVERT JUMPDEST PUSH2 0x2296 DUP9 DUP3 DUP10 ADD PUSH2 0x2026 JUMP JUMPDEST SWAP4 POP POP PUSH1 0x80 PUSH1 0x9F NOT DUP3 ADD SLT ISZERO PUSH2 0x22AB JUMPI PUSH1 0x0 DUP1 REVERT JUMPDEST POP SWAP3 SWAP6 SWAP2 SWAP5 POP SWAP3 PUSH1 0xA0 ADD SWAP2 POP JUMP JUMPDEST PUSH1 0x0 DUP1 PUSH1 0x0 DUP1 PUSH1 0x0 PUSH1 0xC0 DUP7 DUP9 SUB SLT ISZERO PUSH2 0x22D1 JUMPI PUSH1 0x0 DUP1 REVERT JUMPDEST DUP6 CALLDATALOAD PUSH2 0x22DC DUP2 PUSH2 0x28CB JUMP JUMPDEST SWAP5 POP PUSH2 0x22EB DUP8 PUSH1 0x20 DUP9 ADD PUSH2 0x203E JUMP JUMPDEST SWAP4 POP PUSH1 0x80 DUP7 ADD CALLDATALOAD PUSH8 0xFFFFFFFFFFFFFFFF DUP1 DUP3 GT ISZERO PUSH2 0x2308 JUMPI PUSH1 0x0 DUP1 REVERT JUMPDEST PUSH2 0x2219 DUP10 DUP4 DUP11 ADD PUSH2 0x203E JUMP JUMPDEST PUSH1 0x0 DUP1 PUSH1 0x0 DUP1 PUSH1 0x0 DUP1 PUSH1 0x0 PUSH1 0xE0 DUP9 DUP11 SUB SLT ISZERO PUSH2 0x232F JUMPI PUSH1 0x0 DUP1 REVERT JUMPDEST DUP8 CALLDATALOAD PUSH2 0x233A DUP2 PUSH2 0x28CB JUMP JUMPDEST SWAP7 POP PUSH2 0x2349 DUP10 PUSH1 0x20 DUP11 ADD PUSH2 0x203E JUMP JUMPDEST SWAP6 POP PUSH1 0x80 DUP9 ADD CALLDATALOAD SWAP5 POP PUSH1 0xA0 DUP9 ADD CALLDATALOAD PUSH8 0xFFFFFFFFFFFFFFFF DUP1 DUP3 GT ISZERO PUSH2 0x236D JUMPI PUSH1 0x0 DUP1 REVERT JUMPDEST PUSH2 0x2379 DUP12 DUP4 DUP13 ADD PUSH2 0x1F57 JUMP JUMPDEST SWAP1 SWAP7 POP SWAP5 POP PUSH1 0xC0 DUP11 ADD CALLDATALOAD SWAP2 POP DUP1 DUP3 GT ISZERO PUSH2 0x2392 JUMPI PUSH1 0x0 DUP1 REVERT JUMPDEST POP PUSH2 0x239F DUP11 DUP3 DUP12 ADD PUSH2 0x1F0B JUMP JUMPDEST SWAP9 SWAP12 SWAP8 SWAP11 POP SWAP6 SWAP9 POP SWAP4 SWAP7 SWAP3 SWAP6 SWAP3 SWAP4 POP POP POP JUMP JUMPDEST PUSH1 0x0 DUP1 PUSH1 0x0 PUSH1 0x60 DUP5 DUP7 SUB SLT ISZERO PUSH2 0x23C7 JUMPI PUSH1 0x0 DUP1 REVERT JUMPDEST DUP4 CALLDATALOAD SWAP3 POP PUSH1 0x20 DUP5 ADD CALLDATALOAD PUSH8 0xFFFFFFFFFFFFFFFF DUP1 DUP3 GT ISZERO PUSH2 0x23E6 JUMPI PUSH1 0x0 DUP1 REVERT JUMPDEST PUSH2 0x23F2 DUP8 DUP4 DUP9 ADD PUSH2 0x1F99 JUMP JUMPDEST SWAP4 POP PUSH1 0x40 DUP7 ADD CALLDATALOAD SWAP2 POP DUP1 DUP3 GT ISZERO PUSH2 0x2408 JUMPI PUSH1 0x0 DUP1 REVERT JUMPDEST POP PUSH2 0x2415 DUP7 DUP3 DUP8 ADD PUSH2 0x1F99 JUMP JUMPDEST SWAP2 POP POP SWAP3 POP SWAP3 POP SWAP3 JUMP JUMPDEST DUP2 DUP4 MSTORE PUSH1 0x0 PUSH1 0x20 DUP1 DUP6 ADD SWAP5 POP DUP5 DUP5 PUSH1 0x5 SHL DUP7 ADD DUP5 PUSH1 0x0 JUMPDEST DUP8 DUP2 LT ISZERO PUSH2 0x24E5 JUMPI DUP4 DUP4 SUB DUP10 MSTORE DUP2 CALLDATALOAD PUSH1 0x5E NOT DUP9 CALLDATASIZE SUB ADD DUP2 SLT PUSH2 0x2457 JUMPI PUSH1 0x0 DUP1 REVERT JUMPDEST DUP8 ADD PUSH1 0x60 DUP2 CALLDATALOAD PUSH2 0x2466 DUP2 PUSH2 0x28CB JUMP JUMPDEST PUSH1 0x1 PUSH1 0x1 PUSH1 0xA0 SHL SUB AND DUP6 MSTORE DUP2 DUP8 ADD CALLDATALOAD DUP8 DUP7 ADD MSTORE PUSH1 0x40 DUP1 DUP4 ADD CALLDATALOAD CALLDATASIZE DUP5 SWAP1 SUB PUSH1 0x1E NOT ADD DUP2 SLT PUSH2 0x2492 JUMPI PUSH1 0x0 DUP1 REVERT JUMPDEST DUP4 ADD DUP1 CALLDATALOAD PUSH8 0xFFFFFFFFFFFFFFFF DUP2 GT ISZERO PUSH2 0x24AB JUMPI PUSH1 0x0 DUP1 REVERT JUMPDEST DUP1 CALLDATASIZE SUB DUP6 SGT ISZERO PUSH2 0x24BA JUMPI PUSH1 0x0 DUP1 REVERT JUMPDEST DUP4 DUP4 DUP10 ADD MSTORE PUSH2 0x24CE DUP5 DUP10 ADD DUP3 DUP13 DUP6 ADD PUSH2 0x24F2 JUMP JUMPDEST SWAP14 DUP11 ADD SWAP14 SWAP8 POP POP POP SWAP4 DUP8 ADD SWAP4 POP POP POP PUSH1 0x1 ADD PUSH2 0x2436 JUMP JUMPDEST POP SWAP1 SWAP8 SWAP7 POP POP POP POP POP POP POP JUMP JUMPDEST DUP2 DUP4 MSTORE DUP2 DUP2 PUSH1 0x20 DUP6 ADD CALLDATACOPY POP PUSH1 0x0 DUP3 DUP3 ADD PUSH1 0x20 SWAP1 DUP2 ADD SWAP2 SWAP1 SWAP2 MSTORE PUSH1 0x1F SWAP1 SWAP2 ADD PUSH1 0x1F NOT AND SWAP1 SWAP2 ADD ADD SWAP1 JUMP JUMPDEST PUSH1 0x0 DUP2 MLOAD DUP1 DUP5 MSTORE PUSH1 0x0 JUMPDEST DUP2 DUP2 LT ISZERO PUSH2 0x2541 JUMPI PUSH1 0x20 DUP2 DUP6 ADD DUP2 ADD MLOAD DUP7 DUP4 ADD DUP3 ADD MSTORE ADD PUSH2 0x2525 JUMP JUMPDEST DUP2 DUP2 GT ISZERO PUSH2 0x2553 JUMPI PUSH1 0x0 PUSH1 0x20 DUP4 DUP8 ADD ADD MSTORE JUMPDEST POP PUSH1 0x1F ADD PUSH1 0x1F NOT AND SWAP3 SWAP1 SWAP3 ADD PUSH1 0x20 ADD SWAP3 SWAP2 POP POP JUMP JUMPDEST DUP2 MLOAD PUSH1 0x0 SWAP1 DUP3 SWAP1 PUSH1 0x20 DUP1 DUP7 ADD DUP5 JUMPDEST DUP4 DUP2 LT ISZERO PUSH2 0x2592 JUMPI DUP2 MLOAD DUP6 MSTORE SWAP4 DUP3 ADD SWAP4 SWAP1 DUP3 ADD SWAP1 PUSH1 0x1 ADD PUSH2 0x2576 JUMP JUMPDEST POP SWAP3 SWAP7 SWAP6 POP POP POP POP POP POP JUMP JUMPDEST PUSH1 0x0 PUSH1 0x1 PUSH1 0x1 PUSH1 0xA0 SHL SUB DUP1 DUP12 AND DUP4 MSTORE DUP10 PUSH1 0x20 DUP5 ADD MSTORE DUP1 DUP10 AND PUSH1 0x40 DUP5 ADD MSTORE POP DUP7 PUSH1 0x60 DUP4 ADD MSTORE DUP6 PUSH1 0x80 DUP4 ADD MSTORE PUSH1 0xE0 PUSH1 0xA0 DUP4 ADD MSTORE PUSH2 0x25DD PUSH1 0xE0 DUP4 ADD DUP6 DUP8 PUSH2 0x241F JUMP JUMPDEST SWAP1 POP DUP3 ISZERO ISZERO PUSH1 0xC0 DUP4 ADD MSTORE SWAP10 SWAP9 POP POP POP POP POP POP POP POP POP JUMP JUMPDEST PUSH1 0x20 DUP2 MSTORE PUSH1 0x0 PUSH2 0x2608 PUSH1 0x20 DUP4 ADD DUP5 DUP7 PUSH2 0x241F JUMP JUMPDEST SWAP5 SWAP4 POP POP POP POP JUMP JUMPDEST PUSH1 0x0 PUSH1 0x20 DUP1 DUP4 ADD DUP2 DUP5 MSTORE DUP1 DUP6 MLOAD DUP1 DUP4 MSTORE PUSH1 0x40 SWAP3 POP DUP3 DUP7 ADD SWAP2 POP DUP3 DUP2 PUSH1 0x5 SHL DUP8 ADD ADD DUP5 DUP9 ADD PUSH1 0x0 JUMPDEST DUP4 DUP2 LT ISZERO PUSH2 0x268A JUMPI DUP9 DUP4 SUB PUSH1 0x3F NOT ADD DUP6 MSTORE DUP2 MLOAD DUP1 MLOAD PUSH1 0x1 PUSH1 0x1 PUSH1 0xA0 SHL SUB AND DUP5 MSTORE DUP8 DUP2 ADD MLOAD DUP9 DUP6 ADD MSTORE DUP7 ADD MLOAD PUSH1 0x60 DUP8 DUP6 ADD DUP2 SWAP1 MSTORE PUSH2 0x2676 DUP2 DUP7 ADD DUP4 PUSH2 0x251B JUMP JUMPDEST SWAP7 DUP10 ADD SWAP7 SWAP5 POP POP POP SWAP1 DUP7 ADD SWAP1 PUSH1 0x1 ADD PUSH2 0x2637 JUMP JUMPDEST POP SWAP1 SWAP9 SWAP8 POP POP POP POP POP POP POP POP JUMP JUMPDEST DUP3 DUP2 MSTORE PUSH1 0x40 PUSH1 0x20 DUP3 ADD MSTORE PUSH1 0x0 PUSH2 0x2608 PUSH1 0x40 DUP4 ADD DUP5 PUSH2 0x251B JUMP JUMPDEST DUP8 DUP2 MSTORE PUSH1 0xA0 PUSH1 0x20 DUP3 ADD MSTORE PUSH1 0x0 PUSH2 0x26CB PUSH1 0xA0 DUP4 ADD DUP9 DUP11 PUSH2 0x24F2 JUMP JUMPDEST PUSH1 0x1 PUSH1 0x1 PUSH1 0xA0 SHL SUB DUP8 AND PUSH1 0x40 DUP5 ADD MSTORE DUP6 PUSH1 0x60 DUP5 ADD MSTORE DUP3 DUP2 SUB PUSH1 0x80 DUP5 ADD MSTORE PUSH2 0x26F3 DUP2 DUP6 DUP8 PUSH2 0x24F2 JUMP JUMPDEST SWAP11 SWAP10 POP POP POP POP POP POP POP POP POP POP JUMP JUMPDEST PUSH1 0x0 PUSH2 0x100 PUSH1 0x1 PUSH1 0x1 PUSH1 0xE0 SHL SUB NOT DUP13 AND DUP4 MSTORE PUSH1 0x1 PUSH1 0x1 PUSH1 0xA0 SHL SUB DUP1 DUP13 AND PUSH1 0x20 DUP6 ADD MSTORE DUP11 PUSH1 0x40 DUP6 ADD MSTORE DUP1 DUP11 AND PUSH1 0x60 DUP6 ADD MSTORE POP DUP8 PUSH1 0x80 DUP5 ADD MSTORE DUP7 PUSH1 0xA0 DUP5 ADD MSTORE DUP1 PUSH1 0xC0 DUP5 ADD MSTORE PUSH2 0x2751 DUP2 DUP5 ADD DUP7 DUP9 PUSH2 0x241F JUMP JUMPDEST SWAP2 POP POP DUP3 ISZERO ISZERO PUSH1 0xE0 DUP4 ADD MSTORE SWAP11 SWAP10 POP POP POP POP POP POP POP POP POP POP JUMP JUMPDEST DUP2 CALLDATALOAD DUP2 MSTORE PUSH1 0x60 DUP2 ADD PUSH1 0x20 DUP4 ADD CALLDATALOAD PUSH2 0x2780 DUP2 PUSH2 0x28CB JUMP JUMPDEST PUSH1 0x1 PUSH1 0x1 PUSH1 0xA0 SHL SUB SWAP1 DUP2 AND PUSH1 0x20 DUP5 ADD MSTORE PUSH1 0x40 DUP5 ADD CALLDATALOAD SWAP1 PUSH2 0x279F DUP3 PUSH2 0x28CB JUMP JUMPDEST DUP1 DUP3 AND PUSH1 0x40 DUP6 ADD MSTORE POP POP SWAP3 SWAP2 POP POP JUMP JUMPDEST DUP5 DUP2 MSTORE DUP4 PUSH1 0x20 DUP3 ADD MSTORE PUSH1 0x60 PUSH1 0x40 DUP3 ADD MSTORE PUSH1 0x0 PUSH2 0x27CF PUSH1 0x60 DUP4 ADD DUP5 DUP7 PUSH2 0x241F JUMP JUMPDEST SWAP7 SWAP6 POP POP POP POP POP POP JUMP JUMPDEST PUSH1 0x0 DUP1 DUP4 CALLDATALOAD PUSH1 0x1E NOT DUP5 CALLDATASIZE SUB ADD DUP2 SLT PUSH2 0x27F0 JUMPI PUSH1 0x0 DUP1 REVERT JUMPDEST DUP4 ADD DUP1 CALLDATALOAD SWAP2 POP PUSH8 0xFFFFFFFFFFFFFFFF DUP3 GT ISZERO PUSH2 0x280B JUMPI PUSH1 0x0 DUP1 REVERT JUMPDEST PUSH1 0x20 ADD SWAP2 POP CALLDATASIZE DUP2 SWAP1 SUB DUP3 SGT ISZERO PUSH2 0x1F50 JUMPI PUSH1 0x0 DUP1 REVERT JUMPDEST PUSH1 0x0 DUP3 CALLDATALOAD PUSH1 0x7E NOT DUP4 CALLDATASIZE SUB ADD DUP2 SLT PUSH2 0x2836 JUMPI PUSH1 0x0 DUP1 REVERT JUMPDEST SWAP2 SWAP1 SWAP2 ADD SWAP3 SWAP2 POP POP JUMP JUMPDEST PUSH1 0x0 DUP3 NOT DUP3 GT ISZERO PUSH2 0x2853 JUMPI PUSH2 0x2853 PUSH2 0x2873 JUMP JUMPDEST POP ADD SWAP1 JUMP JUMPDEST PUSH1 0x0 PUSH1 0x0 NOT DUP3 EQ ISZERO PUSH2 0x286C JUMPI PUSH2 0x286C PUSH2 0x2873 JUMP JUMPDEST POP PUSH1 0x1 ADD SWAP1 JUMP JUMPDEST PUSH4 0x4E487B71 PUSH1 0xE0 SHL PUSH1 0x0 MSTORE PUSH1 0x11 PUSH1 0x4 MSTORE PUSH1 0x24 PUSH1 0x0 REVERT JUMPDEST PUSH4 0x4E487B71 PUSH1 0xE0 SHL PUSH1 0x0 MSTORE PUSH1 0x21 PUSH1 0x4 MSTORE PUSH1 0x24 PUSH1 0x0 REVERT JUMPDEST PUSH4 0x4E487B71 PUSH1 0xE0 SHL PUSH1 0x0 MSTORE PUSH1 0x32 PUSH1 0x4 MSTORE PUSH1 0x24 PUSH1 0x0 REVERT JUMPDEST PUSH4 0x4E487B71 PUSH1 0xE0 SHL PUSH1 0x0 MSTORE PUSH1 0x41 PUSH1 0x4 MSTORE PUSH1 0x24 PUSH1 0x0 REVERT JUMPDEST PUSH1 0x1 PUSH1 0x1 PUSH1 0xA0 SHL SUB DUP2 AND DUP2 EQ PUSH2 0x28E0 JUMPI PUSH1 0x0 DUP1 REVERT JUMPDEST POP JUMP INVALID LOG2 PUSH5 0x6970667358 0x22 SLT KECCAK256 DUP1 0xE5 0x24 0xC7 SWAP11 BLOCKHASH 0x49 PUSH17 0x545D75CFC6A073D7E0BAAA98FCEB5495A6 DUP13 0xCA 0xEC 0xCE ADD LT SWAP11 PUSH5 0x736F6C6343 STOP ADDMOD SMOD STOP CALLER "},"methodIdentifiers":{"DOMAIN_SEPARATOR()":"3644e515","cancel(address,(uint256,address,address),uint256,bytes,(address,uint256,bytes)[])":"a396eeb9","execScheduled(address,bytes32,uint256,(address,uint256,bytes)[])":"5ee6010b","isValidSignature(bytes32,bytes)":"1626ba7e","nonces(address)":"7ecebe00","scheduled(bytes32)":"03675992","send(address,(uint256,address,address),(bool,bytes,bytes),(address,uint256,bytes)[])":"534255ff","sendTransfer(address,(uint256,address,address),(bytes,bytes),(address,address,uint256,uint256))":"4b776c6d","sendTxns(address,(uint256,address,address),(bytes,bytes),(string,address,uint256,bytes)[])":"63486689"}},"storageLayout":{"storage":[{"astId":76,"contract":"src/contracts/QuickAccManager.sol:QuickAccManager","label":"nonces","offset":0,"slot":"0","type":"t_mapping(t_address,t_uint256)"},{"astId":80,"contract":"src/contracts/QuickAccManager.sol:QuickAccManager","label":"scheduled","offset":0,"slot":"1","type":"t_mapping(t_bytes32,t_uint256)"}],"types":{"t_address":{"encoding":"inplace","label":"address","numberOfBytes":"20"},"t_bytes32":{"encoding":"inplace","label":"bytes32","numberOfBytes":"32"},"t_mapping(t_address,t_uint256)":{"encoding":"mapping","key":"t_address","label":"mapping(address => uint256)","numberOfBytes":"32","value":"t_uint256"},"t_mapping(t_bytes32,t_uint256)":{"encoding":"mapping","key":"t_bytes32","label":"mapping(bytes32 => uint256)","numberOfBytes":"32","value":"t_uint256"},"t_uint256":{"encoding":"inplace","label":"uint256","numberOfBytes":"32"}}}}}}