{
  "_format": "hh-sol-artifact-1",
  "contractName": "Wallet",
  "sourceName": "src/contracts/Wallet.sol",
  "abi": [
    {
      "inputs": [
        {
          "internalType": "address[]",
          "name": "addrs",
          "type": "address[]"
        }
      ],
      "stateMutability": "nonpayable",
      "type": "constructor"
    },
    {
      "anonymous": false,
      "inputs": [
        {
          "indexed": true,
          "internalType": "bytes32",
          "name": "txnHash",
          "type": "bytes32"
        },
        {
          "indexed": true,
          "internalType": "bytes32",
          "name": "recoveryHash",
          "type": "bytes32"
        },
        {
          "indexed": true,
          "internalType": "address",
          "name": "recoveryKey",
          "type": "address"
        },
        {
          "indexed": false,
          "internalType": "uint256",
          "name": "time",
          "type": "uint256"
        }
      ],
      "name": "LogCancelled",
      "type": "event"
    },
    {
      "anonymous": false,
      "inputs": [
        {
          "indexed": true,
          "internalType": "address",
          "name": "to",
          "type": "address"
        },
        {
          "indexed": false,
          "internalType": "uint256",
          "name": "value",
          "type": "uint256"
        },
        {
          "indexed": false,
          "internalType": "bytes",
          "name": "data",
          "type": "bytes"
        },
        {
          "indexed": false,
          "internalType": "bytes",
          "name": "returnData",
          "type": "bytes"
        }
      ],
      "name": "LogErr",
      "type": "event"
    },
    {
      "anonymous": false,
      "inputs": [
        {
          "indexed": true,
          "internalType": "bytes32",
          "name": "txnHash",
          "type": "bytes32"
        },
        {
          "indexed": true,
          "internalType": "bytes32",
          "name": "recoveryHash",
          "type": "bytes32"
        },
        {
          "indexed": false,
          "internalType": "uint256",
          "name": "time",
          "type": "uint256"
        }
      ],
      "name": "LogExecScheduled",
      "type": "event"
    },
    {
      "anonymous": false,
      "inputs": [
        {
          "indexed": true,
          "internalType": "address",
          "name": "addr",
          "type": "address"
        },
        {
          "indexed": false,
          "internalType": "bytes32",
          "name": "priv",
          "type": "bytes32"
        }
      ],
      "name": "LogPrivilegeChanged",
      "type": "event"
    },
    {
      "anonymous": false,
      "inputs": [
        {
          "indexed": true,
          "internalType": "bytes32",
          "name": "txnHash",
          "type": "bytes32"
        },
        {
          "indexed": true,
          "internalType": "bytes32",
          "name": "recoveryHash",
          "type": "bytes32"
        },
        {
          "indexed": true,
          "internalType": "address",
          "name": "recoveryKey",
          "type": "address"
        },
        {
          "indexed": false,
          "internalType": "uint256",
          "name": "nonce",
          "type": "uint256"
        },
        {
          "indexed": false,
          "internalType": "uint256",
          "name": "time",
          "type": "uint256"
        },
        {
          "components": [
            {
              "internalType": "address",
              "name": "to",
              "type": "address"
            },
            {
              "internalType": "uint256",
              "name": "value",
              "type": "uint256"
            },
            {
              "internalType": "bytes",
              "name": "data",
              "type": "bytes"
            }
          ],
          "indexed": false,
          "internalType": "struct Wallet.Transaction[]",
          "name": "txns",
          "type": "tuple[]"
        }
      ],
      "name": "LogScheduled",
      "type": "event"
    },
    {
      "anonymous": false,
      "inputs": [
        {
          "indexed": true,
          "internalType": "bytes32",
          "name": "txnHash",
          "type": "bytes32"
        },
        {
          "indexed": true,
          "internalType": "bytes32",
          "name": "recoveryHash",
          "type": "bytes32"
        },
        {
          "indexed": true,
          "internalType": "address",
          "name": "recoveryKey",
          "type": "address"
        },
        {
          "indexed": false,
          "internalType": "uint256",
          "name": "time",
          "type": "uint256"
        }
      ],
      "name": "LogScheduled2",
      "type": "event"
    },
    {
      "stateMutability": "payable",
      "type": "fallback"
    },
    {
      "inputs": [
        {
          "components": [
            {
              "internalType": "address",
              "name": "to",
              "type": "address"
            },
            {
              "internalType": "uint256",
              "name": "value",
              "type": "uint256"
            },
            {
              "internalType": "bytes",
              "name": "data",
              "type": "bytes"
            }
          ],
          "internalType": "struct Wallet.Transaction[]",
          "name": "txns",
          "type": "tuple[]"
        },
        {
          "internalType": "bytes",
          "name": "signature",
          "type": "bytes"
        }
      ],
      "name": "execute",
      "outputs": [],
      "stateMutability": "nonpayable",
      "type": "function"
    },
    {
      "inputs": [
        {
          "components": [
            {
              "internalType": "address",
              "name": "to",
              "type": "address"
            },
            {
              "internalType": "uint256",
              "name": "value",
              "type": "uint256"
            },
            {
              "internalType": "bytes",
              "name": "data",
              "type": "bytes"
            }
          ],
          "internalType": "struct Wallet.Transaction[]",
          "name": "txns",
          "type": "tuple[]"
        }
      ],
      "name": "executeBySelf",
      "outputs": [],
      "stateMutability": "nonpayable",
      "type": "function"
    },
    {
      "inputs": [
        {
          "components": [
            {
              "internalType": "address",
              "name": "to",
              "type": "address"
            },
            {
              "internalType": "uint256",
              "name": "value",
              "type": "uint256"
            },
            {
              "internalType": "bytes",
              "name": "data",
              "type": "bytes"
            }
          ],
          "internalType": "struct Wallet.Transaction[]",
          "name": "txns",
          "type": "tuple[]"
        }
      ],
      "name": "executeBySender",
      "outputs": [],
      "stateMutability": "nonpayable",
      "type": "function"
    },
    {
      "inputs": [
        {
          "internalType": "bytes32",
          "name": "hash",
          "type": "bytes32"
        },
        {
          "internalType": "bytes",
          "name": "signature",
          "type": "bytes"
        }
      ],
      "name": "isValidSignature",
      "outputs": [
        {
          "internalType": "bytes4",
          "name": "",
          "type": "bytes4"
        }
      ],
      "stateMutability": "view",
      "type": "function"
    },
    {
      "inputs": [],
      "name": "nonce",
      "outputs": [
        {
          "internalType": "uint256",
          "name": "",
          "type": "uint256"
        }
      ],
      "stateMutability": "view",
      "type": "function"
    },
    {
      "inputs": [
        {
          "internalType": "address",
          "name": "",
          "type": "address"
        },
        {
          "internalType": "address",
          "name": "",
          "type": "address"
        },
        {
          "internalType": "uint256[]",
          "name": "",
          "type": "uint256[]"
        },
        {
          "internalType": "uint256[]",
          "name": "",
          "type": "uint256[]"
        },
        {
          "internalType": "bytes",
          "name": "",
          "type": "bytes"
        }
      ],
      "name": "onERC1155BatchReceived",
      "outputs": [
        {
          "internalType": "bytes4",
          "name": "",
          "type": "bytes4"
        }
      ],
      "stateMutability": "pure",
      "type": "function"
    },
    {
      "inputs": [
        {
          "internalType": "address",
          "name": "",
          "type": "address"
        },
        {
          "internalType": "address",
          "name": "",
          "type": "address"
        },
        {
          "internalType": "uint256",
          "name": "",
          "type": "uint256"
        },
        {
          "internalType": "uint256",
          "name": "",
          "type": "uint256"
        },
        {
          "internalType": "bytes",
          "name": "",
          "type": "bytes"
        }
      ],
      "name": "onERC1155Received",
      "outputs": [
        {
          "internalType": "bytes4",
          "name": "",
          "type": "bytes4"
        }
      ],
      "stateMutability": "pure",
      "type": "function"
    },
    {
      "inputs": [
        {
          "internalType": "address",
          "name": "",
          "type": "address"
        },
        {
          "internalType": "address",
          "name": "",
          "type": "address"
        },
        {
          "internalType": "uint256",
          "name": "",
          "type": "uint256"
        },
        {
          "internalType": "bytes",
          "name": "",
          "type": "bytes"
        }
      ],
      "name": "onERC721Received",
      "outputs": [
        {
          "internalType": "bytes4",
          "name": "",
          "type": "bytes4"
        }
      ],
      "stateMutability": "pure",
      "type": "function"
    },
    {
      "inputs": [
        {
          "internalType": "address",
          "name": "",
          "type": "address"
        }
      ],
      "name": "privileges",
      "outputs": [
        {
          "internalType": "bytes32",
          "name": "",
          "type": "bytes32"
        }
      ],
      "stateMutability": "view",
      "type": "function"
    },
    {
      "inputs": [
        {
          "internalType": "bytes32",
          "name": "",
          "type": "bytes32"
        }
      ],
      "name": "scheduledRecoveries",
      "outputs": [
        {
          "internalType": "uint256",
          "name": "",
          "type": "uint256"
        }
      ],
      "stateMutability": "view",
      "type": "function"
    },
    {
      "inputs": [
        {
          "internalType": "address",
          "name": "addr",
          "type": "address"
        },
        {
          "internalType": "bytes32",
          "name": "priv",
          "type": "bytes32"
        }
      ],
      "name": "setAddrPrivilege",
      "outputs": [],
      "stateMutability": "nonpayable",
      "type": "function"
    },
    {
      "inputs": [
        {
          "internalType": "bytes4",
          "name": "interfaceID",
          "type": "bytes4"
        }
      ],
      "name": "supportsInterface",
      "outputs": [
        {
          "internalType": "bool",
          "name": "",
          "type": "bool"
        }
      ],
      "stateMutability": "pure",
      "type": "function"
    },
    {
      "inputs": [
        {
          "internalType": "address",
          "name": "to",
          "type": "address"
        },
        {
          "internalType": "uint256",
          "name": "value",
          "type": "uint256"
        },
        {
          "internalType": "bytes",
          "name": "data",
          "type": "bytes"
        }
      ],
      "name": "tryCatch",
      "outputs": [],
      "stateMutability": "nonpayable",
      "type": "function"
    },
    {
      "inputs": [
        {
          "internalType": "address",
          "name": "to",
          "type": "address"
        },
        {
          "internalType": "uint256",
          "name": "value",
          "type": "uint256"
        },
        {
          "internalType": "bytes",
          "name": "data",
          "type": "bytes"
        },
        {
          "internalType": "uint256",
          "name": "gasLimit",
          "type": "uint256"
        }
      ],
      "name": "tryCatchLimit",
      "outputs": [],
      "stateMutability": "nonpayable",
      "type": "function"
    },
    {
      "stateMutability": "payable",
      "type": "receive"
    }
  ],
  "bytecode": "0x60806040523480156200001157600080fd5b50604051620022db380380620022db83398101604081905262000034916200012a565b805160005b818110156200010457600160001b6000808584815181106200005f576200005f6200022d565b60200260200101516001600160a01b03166001600160a01b0316815260200190815260200160002081905550828181518110620000a057620000a06200022d565b60200260200101516001600160a01b03167f08ac40e0195c5998554e98853c23964a13a24309e127b2d016e8ec4adecf5e83600160001b604051620000e791815260200190565b60405180910390a280620000fb8162000203565b91505062000039565b50505062000259565b80516001600160a01b03811681146200012557600080fd5b919050565b600060208083850312156200013e57600080fd5b82516001600160401b03808211156200015657600080fd5b818501915085601f8301126200016b57600080fd5b81518181111562000180576200018062000243565b8060051b604051601f19603f83011681018181108582111715620001a857620001a862000243565b604052828152858101935084860182860187018a1015620001c857600080fd5b600095505b83861015620001f657620001e1816200010d565b855260019590950194938601938601620001cd565b5098975050505050505050565b60006000198214156200022657634e487b7160e01b600052601160045260246000fd5b5060010190565b634e487b7160e01b600052603260045260246000fd5b634e487b7160e01b600052604160045260246000fd5b61207280620002696000396000f3fe6080604052600436106100e15760003560e01c80636769de821161007f578063bc197c8111610059578063bc197c81146102ee578063bf1cb38314610333578063c066a5b114610353578063f23a6e6114610380576100e8565b80636769de8214610298578063abc5345e146102b8578063affed0e0146102d8576100e8565b8063160aa0ef116100bb578063160aa0ef146101fd5780631626ba7e146102385780633628d042146102585780636171d1c914610278576100e8565b806301ffc9a7146101495780630d5828d41461017e578063150b7a02146101a0576100e8565b366100e857005b61696960009081526020527f662a30f03e82d96c1f4d254ac3d297ac2d115f4d7e55a040fee317b77fa274e7546001600160a01b0381166101265750005b3660008037600080366000845af43d806000803e8161014457806000fd5b806000f35b34801561015557600080fd5b50610169610164366004611a5b565b6103c5565b60405190151581526020015b60405180910390f35b34801561018a57600080fd5b5061019e610199366004611868565b61042e565b005b3480156101ac57600080fd5b506101e46101bb366004611793565b7f150b7a0200000000000000000000000000000000000000000000000000000000949350505050565b6040516001600160e01b03199091168152602001610175565b34801561020957600080fd5b5061022a6102183660046119f6565b60026020526000908152604090205481565b604051908152602001610175565b34801561024457600080fd5b506101e4610253366004611a0f565b610545565b34801561026457600080fd5b5061019e6102733660046118f0565b6105d4565b34801561028457600080fd5b5061019e610293366004611996565b6106e1565b3480156102a457600080fd5b5061019e6102b3366004611954565b610bba565b3480156102c457600080fd5b5061019e6102d3366004611954565b610c1a565b3480156102e457600080fd5b5061022a60015481565b3480156102fa57600080fd5b506101e46103093660046116e5565b7fbc197c810000000000000000000000000000000000000000000000000000000095945050505050565b34801561033f57600080fd5b5061019e61034e366004611894565b610cdf565b34801561035f57600080fd5b5061022a61036e3660046116ab565b60006020819052908152604090205481565b34801561038c57600080fd5b506101e461039b3660046117ff565b7ff23a6e610000000000000000000000000000000000000000000000000000000095945050505050565b60007f01ffc9a7000000000000000000000000000000000000000000000000000000006001600160e01b03198316148061042857507f4e2312e0000000000000000000000000000000000000000000000000000000006001600160e01b03198316145b92915050565b3330146104825760405162461bcd60e51b815260206004820152601660248201527f4f4e4c595f4944454e544954595f43414e5f43414c4c0000000000000000000060448201526064015b60405180910390fd5b6001600160a01b038216600090815260208190526040902054600110156104f45760018114156104f45760405162461bcd60e51b815260206004820152601660248201527f554e53455454494e475f5350454349414c5f44415441000000000000000000006044820152606401610479565b6001600160a01b0382166000818152602081815260409182902084905590518381527f08ac40e0195c5998554e98853c23964a13a24309e127b2d016e8ec4adecf5e83910160405180910390a25050565b60008060001b60008061058e8787878080601f016020809104026020016040519081016040528093929190818152602001838380828437600092019190915250610deb92505050565b6001600160a01b03166001600160a01b0316815260200190815260200160002054146105c25750630b135d3f60e11b6105cd565b506001600160e01b03195b9392505050565b3330146106235760405162461bcd60e51b815260206004820152601660248201527f4f4e4c595f4944454e544954595f43414e5f43414c4c000000000000000000006044820152606401610479565b600080866001600160a01b03168684908787604051610643929190611c3a565b600060405180830381858888f193505050503d8060008114610681576040519150601f19603f3d011682016040523d82523d6000602084013e610686565b606091505b5091509150816106d857866001600160a01b03167f80c2637928bd94d0e1a90eaac1efc1553be6391d962fe5c82a01e90122c84ccc878787856040516106cf9493929190611dcc565b60405180910390a25b50505050505050565b600154604051600090610700903090469085908a908a90602001611c4a565b6040516020818303038152906040528051906020012090508160016107259190611ea4565b600190815560009081908690869061073d9082611ebc565b81811061074c5761074c611fe2565b919091013560f81c91505060fe8110610a8d576000808080610770898b018b611a95565b50935093509350935060008560ff1660ff1490506000856040516020016107979190611d67565b60408051601f1981840301815291815281516020928301206001600160a01b03871660009081529283905291205490915081146108165760405162461bcd60e51b815260206004820152601760248201527f5245434f564552595f4e4f545f415554484f52495a45440000000000000000006044820152606401610479565b6000898152600260205260409020548015801590610832575082155b156108e0578398508042116108895760405162461bcd60e51b815260206004820152601260248201527f5245434f564552595f4e4f545f524541445900000000000000000000000000006044820152606401610479565b600260008b815260200190815260200160002060009055818a7fdedaa4afdb5fdfa3ae5d58bb0f5b01a38b6766dc750c29f828808e27e9f89638426040516108d391815260200190565b60405180910390a3610a81565b60006108ec8b88610deb565b90506000805b89515181101561094e57826001600160a01b03168a60000151828151811061091c5761091c611fe2565b60200260200101516001600160a01b0316141561093c576001915061094e565b8061094681611f9b565b9150506108f2565b508061099c5760405162461bcd60e51b815260206004820152601760248201527f5245434f564552595f4e4f545f415554484f52495a45440000000000000000006044820152606401610479565b8415610a0357600260008d815260200190815260200160002060009055816001600160a01b0316848d7fd9c10d884d0d236030e76a4d486ed75e9557f5fddb152fffa5132a761267b3ef426040516109f691815260200190565b60405180910390a4610a6f565b6020890151610a129042611ea4565b600260008e815260200190815260200160002081905550816001600160a01b0316848d7fb2f8bda3c8f565fdc73233855a3905b0f79fd43d42b8fa03dd03fb4411a3c1d742604051610a6691815260200190565b60405180910390a45b50505050505050505050505050610bb4565b50505050505050610b38565b610ad08387878080601f01602080910402602001604051908101604052809392919081815260200183838082843760009201919091525060019250610df5915050565b6001600160a01b038116600090815260208190526040902054909250610b385760405162461bcd60e51b815260206004820152601660248201527f494e53554646494349454e545f50524956494c454745000000000000000000006044820152606401610479565b610b4a610b45888a611ed3565b611388565b6001600160a01b038216600090815260208190526040902054610baf5760405162461bcd60e51b815260206004820152601860248201527f50524956494c4547455f4e4f545f444f574e47524144454400000000000000006044820152606401610479565b505050505b50505050565b333014610c095760405162461bcd60e51b815260206004820152601660248201527f4f4e4c595f4944454e544954595f43414e5f43414c4c000000000000000000006044820152606401610479565b610c16610b458284611ed3565b5050565b33600090815260208190526040902054610c765760405162461bcd60e51b815260206004820152601660248201527f494e53554646494349454e545f50524956494c454745000000000000000000006044820152606401610479565b610c83610b458284611ed3565b33600090815260208190526040902054610c165760405162461bcd60e51b815260206004820152601860248201527f50524956494c4547455f4e4f545f444f574e47524144454400000000000000006044820152606401610479565b333014610d2e5760405162461bcd60e51b815260206004820152601660248201527f4f4e4c595f4944454e544954595f43414e5f43414c4c000000000000000000006044820152606401610479565b600080856001600160a01b0316855a908686604051610d4e929190611c3a565b600060405180830381858888f193505050503d8060008114610d8c576040519150601f19603f3d011682016040523d82523d6000602084013e610d91565b606091505b509150915081610de357856001600160a01b03167f80c2637928bd94d0e1a90eaac1efc1553be6391d962fe5c82a01e90122c84ccc86868685604051610dda9493929190611dcc565b60405180910390a25b505050505050565b60006105cd838360005b6000600183511015610e495760405162461bcd60e51b815260206004820152600960248201527f53565f5349474c454e00000000000000000000000000000000000000000000006044820152606401610479565b600083600185510381518110610e6157610e61611fe2565b016020015160f81c905060048110610ebb5760405162461bcd60e51b815260206004820152600a60248201527f53565f5349474d4f4445000000000000000000000000000000000000000000006044820152606401610479565b60008160ff166004811115610ed257610ed2611fcc565b90506000816004811115610ee857610ee8611fcc565b1480610f0557506001816004811115610f0357610f03611fcc565b145b1561111f578451604214610f5b5760405162461bcd60e51b815260206004820152600660248201527f53565f4c454e00000000000000000000000000000000000000000000000000006044820152606401610479565b6000610f678682611433565b90506000610f76876020611433565b9050600087604081518110610f8d57610f8d611fe2565b016020015160f81c9050601b811480610fa957508060ff16601c145b610ff55760405162461bcd60e51b815260206004820152600c60248201527f53565f494e56414c49445f5600000000000000000000000000000000000000006044820152606401610479565b600184600481111561100957611009611fcc565b141561105b576040517f19457468657265756d205369676e6564204d6573736167653a0a3332000000006020820152603c81018a9052605c016040516020818303038152906040528051906020012098505b604080516000808252602082018084528c905260ff841692820192909252606081018590526080810184905260019060a0016020604051602081039080840390855afa1580156110af573d6000803e3d6000fd5b5050604051601f1901519150506001600160a01b0381166111125760405162461bcd60e51b815260206004820152600b60248201527f53565f5a45524f5f5349470000000000000000000000000000000000000000006044820152606401610479565b95506105cd945050505050565b600281600481111561113357611133611fcc565b141561129057602185511161118a5760405162461bcd60e51b815260206004820152600d60248201527f53565f4c454e5f57414c4c4554000000000000000000000000000000000000006044820152606401610479565b845160201901600061119c8783611433565b90506111a88783611499565b604051630b135d3f60e11b81526001600160a01b03821690631626ba7e906111d6908b908b90600401611d46565b60206040518083038186803b1580156111ee57600080fd5b505afa158015611202573d6000803e3d6000fd5b505050506040513d601f19601f820116820180604052508101906112269190611a78565b6001600160e01b031916630b135d3f60e11b146112855760405162461bcd60e51b815260206004820152601160248201527f53565f57414c4c45545f494e56414c49440000000000000000000000000000006044820152606401610479565b93506105cd92505050565b60038160048111156112a4576112a4611fcc565b1480156112ae5750835b1561137c57326001146113035760405162461bcd60e51b815260206004820152600f60248201527f53565f53504f4f465f4f524947494e00000000000000000000000000000000006044820152606401610479565b84516021146113545760405162461bcd60e51b815260206004820152600c60248201527f53565f53504f4f465f4c454e00000000000000000000000000000000000000006044820152606401610479565b61135f856020611499565b8480602001905181019061137391906116c8565b925050506105cd565b50600095945050505050565b60008151116113d95760405162461bcd60e51b815260206004820152600c60248201527f4d5553545f504153535f545800000000000000000000000000000000000000006044820152606401610479565b805160005b8181101561142e5760008382815181106113fa576113fa611fe2565b6020026020010151905061141b8160000151826020015183604001516114ed565b508061142681611f9b565b9150506113de565b505050565b6000611440602083611ea4565b915081835110156114935760405162461bcd60e51b815260206004820152601060248201527f42797465734c69623a206c656e677468000000000000000000000000000000006044820152606401610479565b50015190565b808251116114e95760405162461bcd60e51b815260206004820152601860248201527f42797465734c69623a206f6e6c7920736872696e6b696e6700000000000000006044820152606401610479565b9052565b60008082516020840185875af180801561150657611513565b3d604051816000823e8181fd5b5050505050565b80356115258161200e565b919050565b60008083601f84011261153c57600080fd5b50813567ffffffffffffffff81111561155457600080fd5b6020830191508360208260051b850101111561156f57600080fd5b9250929050565b600082601f83011261158757600080fd5b8135602061159c61159783611e80565b611e4f565b80838252828201915082860187848660051b89010111156115bc57600080fd5b60005b858110156115db578135845292840192908401906001016115bf565b5090979650505050505050565b60008083601f8401126115fa57600080fd5b50813567ffffffffffffffff81111561161257600080fd5b60208301915083602082850101111561156f57600080fd5b600082601f83011261163b57600080fd5b813567ffffffffffffffff81111561165557611655611ff8565b611668601f8201601f1916602001611e4f565b81815284602083860101111561167d57600080fd5b816020850160208301376000918101602001919091529392505050565b803560ff8116811461152557600080fd5b6000602082840312156116bd57600080fd5b81356105cd8161200e565b6000602082840312156116da57600080fd5b81516105cd8161200e565b600080600080600060a086880312156116fd57600080fd5b85356117088161200e565b945060208601356117188161200e565b9350604086013567ffffffffffffffff8082111561173557600080fd5b61174189838a01611576565b9450606088013591508082111561175757600080fd5b61176389838a01611576565b9350608088013591508082111561177957600080fd5b506117868882890161162a565b9150509295509295909350565b600080600080608085870312156117a957600080fd5b84356117b48161200e565b935060208501356117c48161200e565b925060408501359150606085013567ffffffffffffffff8111156117e757600080fd5b6117f38782880161162a565b91505092959194509250565b600080600080600060a0868803121561181757600080fd5b85356118228161200e565b945060208601356118328161200e565b93506040860135925060608601359150608086013567ffffffffffffffff81111561185c57600080fd5b6117868882890161162a565b6000806040838503121561187b57600080fd5b82356118868161200e565b946020939093013593505050565b600080600080606085870312156118aa57600080fd5b84356118b58161200e565b935060208501359250604085013567ffffffffffffffff8111156118d857600080fd5b6118e4878288016115e8565b95989497509550505050565b60008060008060006080868803121561190857600080fd5b85356119138161200e565b945060208601359350604086013567ffffffffffffffff81111561193657600080fd5b611942888289016115e8565b96999598509660600135949350505050565b6000806020838503121561196757600080fd5b823567ffffffffffffffff81111561197e57600080fd5b61198a8582860161152a565b90969095509350505050565b600080600080604085870312156119ac57600080fd5b843567ffffffffffffffff808211156119c457600080fd5b6119d08883890161152a565b909650945060208701359150808211156119e957600080fd5b506118e4878288016115e8565b600060208284031215611a0857600080fd5b5035919050565b600080600060408486031215611a2457600080fd5b83359250602084013567ffffffffffffffff811115611a4257600080fd5b611a4e868287016115e8565b9497909650939450505050565b600060208284031215611a6d57600080fd5b81356105cd81612026565b600060208284031215611a8a57600080fd5b81516105cd81612026565b600080600080600060a08688031215611aad57600080fd5b853567ffffffffffffffff80821115611ac557600080fd5b908701906040828a031215611ad957600080fd5b611ae1611e03565b823582811115611af057600080fd5b8301601f81018b13611b0157600080fd5b80356020611b1161159783611e80565b8083825282820191508285018f848660051b8801011115611b3157600080fd5b600095505b84861015611b5d578035611b498161200e565b835260019590950194918301918301611b36565b5085525094850135858401525090975050908701359080821115611b8057600080fd5b50611b8d8882890161162a565b945050611b9c6040870161151a565b9250611baa6060870161151a565b9150611bb86080870161169a565b90509295509295909350565b81835281816020850137506000828201602090810191909152601f909101601f19169091010190565b6000815180845260005b81811015611c1357602081850181015186830182015201611bf7565b81811115611c25576000602083870101525b50601f01601f19169290920160200192915050565b8183823760009101908152919050565b6000608082016001600160a01b038089168452602088818601526040888187015260606080818801528488865260a08801905060a08960051b89010195508960005b8a811015611d3357898803609f190183528135368d9003605e19018112611cb257600080fd5b8c018035611cbf8161200e565b8816895280870135878a01528581013536829003601e19018112611ce257600080fd5b8101803567ffffffffffffffff811115611cfb57600080fd5b803603831315611d0a57600080fd5b86888c0152611d1e878c01828b8501611bc4565b9a505050928601925090850190600101611c8c565b50959d9c50505050505050505050505050565b828152604060208201526000611d5f6040830184611bed565b949350505050565b6020808252825160408383015280516060840181905260009291820190839060808601905b80831015611db55783516001600160a01b03168252928401926001929092019190840190611d8c565b508387015160408701528094505050505092915050565b848152606060208201526000611de6606083018587611bc4565b8281036040840152611df88185611bed565b979650505050505050565b6040805190810167ffffffffffffffff81118282101715611e2657611e26611ff8565b60405290565b6040516060810167ffffffffffffffff81118282101715611e2657611e26611ff8565b604051601f8201601f1916810167ffffffffffffffff81118282101715611e7857611e78611ff8565b604052919050565b600067ffffffffffffffff821115611e9a57611e9a611ff8565b5060051b60200190565b60008219821115611eb757611eb7611fb6565b500190565b600082821015611ece57611ece611fb6565b500390565b6000611ee161159784611e80565b808482526020808301925084368760051b87011115611eff57600080fd5b60005b87811015611f8f57813567ffffffffffffffff80821115611f2257600080fd5b818901915060608236031215611f3757600080fd5b611f3f611e2c565b8235611f4a8161200e565b8152828601358682015260408084013583811115611f6757600080fd5b611f733682870161162a565b9183019190915250875250509382019390820190600101611f02565b50919695505050505050565b6000600019821415611faf57611faf611fb6565b5060010190565b634e487b7160e01b600052601160045260246000fd5b634e487b7160e01b600052602160045260246000fd5b634e487b7160e01b600052603260045260246000fd5b634e487b7160e01b600052604160045260246000fd5b6001600160a01b038116811461202357600080fd5b50565b6001600160e01b03198116811461202357600080fdfea264697066735822122005770f7326386d4cd745e93dd56733283e32cdc7bd11b48809e89b7f573aa2a864736f6c63430008070033",
  "linkReferences": {},
  "deployedLinkReferences": {}
}