{
  "_format": "hh-sol-artifact-1",
  "contractName": "Batcher",
  "sourceName": "src/contracts/Batcher.sol",
  "abi": [
    {
      "inputs": [
        {
          "components": [
            {
              "internalType": "address",
              "name": "to",
              "type": "address"
            },
            {
              "internalType": "uint256",
              "name": "value",
              "type": "uint256"
            },
            {
              "internalType": "bytes",
              "name": "data",
              "type": "bytes"
            }
          ],
          "internalType": "struct Batcher.Transaction[]",
          "name": "txns",
          "type": "tuple[]"
        }
      ],
      "name": "batchCall",
      "outputs": [],
      "stateMutability": "nonpayable",
      "type": "function"
    }
  ],
  "bytecode": "0x608060405234801561001057600080fd5b50610396806100206000396000f3fe608060405234801561001057600080fd5b506004361061002b5760003560e01c806386df729214610030575b600080fd5b61004361003e36600461014a565b610045565b005b806100b0576040517f08c379a000000000000000000000000000000000000000000000000000000000815260206004820152600c60248201527f4d5553545f504153535f54580000000000000000000000000000000000000000604482015260640160405180910390fd5b8060005b818110156101175760008484838181106100d0576100d0610334565b90506020028101906100e291906101bf565b6100eb90610239565b905061010481600001518260200151836040015161011d565b508061010f8161030b565b9150506100b4565b50505050565b60008082516020840185875af180801561013657610143565b3d604051816000823e8181fd5b5050505050565b6000806020838503121561015d57600080fd5b823567ffffffffffffffff8082111561017557600080fd5b818501915085601f83011261018957600080fd5b81358181111561019857600080fd5b8660208260051b85010111156101ad57600080fd5b60209290920196919550909350505050565b60008235605e198336030181126101d557600080fd5b9190910192915050565b6040516060810167ffffffffffffffff811182821017156102025761020261034a565b60405290565b604051601f8201601f1916810167ffffffffffffffff811182821017156102315761023161034a565b604052919050565b60006060823603121561024b57600080fd5b6102536101df565b823573ffffffffffffffffffffffffffffffffffffffff8116811461027757600080fd5b815260208381013581830152604084013567ffffffffffffffff8082111561029e57600080fd5b9085019036601f8301126102b157600080fd5b8135818111156102c3576102c361034a565b6102d5601f8201601f19168501610208565b915080825236848285010111156102eb57600080fd5b808484018584013760009082019093019290925250604082015292915050565b600060001982141561032d57634e487b7160e01b600052601160045260246000fd5b5060010190565b634e487b7160e01b600052603260045260246000fd5b634e487b7160e01b600052604160045260246000fdfea26469706673582212202ec1b06b8fb525ea82d5f104aa746130f1adab9d3f7d69a843a8573b222483f864736f6c63430008070033",
  "linkReferences": {},
  "deployedLinkReferences": {}
}